:020000040000FA
:040000000DEF00F010
:04000800F9EF18F004
:06001800FF009CEF1BF04D
:0D2600000000010203040506070850010058
:10260E006100B4F5D9F46100B8F5DAF4610078F33D
:10261E0073F5610078F374F5610078F375F5610078
:10262E0078F376F5050120EE04F06D51D9266E5142
:10263E00DA22DFA025EF13F027EF13F061EF13F08E
:10264E0020EE01F06B51D9266C51DA227339E84233
:10265E00F80BF80BDF6E050E6F6FD890763375336F
:10266E00743373336F2F34EF13F020EE02F06B518F
:10267E00D9266C51DA226100CCF5DFF474C573F5FE
:10268E0075C574F576C575F5766B20EE03F06B5156
:10269E00D9266C51DA2273511F0BDF6E050E6F6F48
:1026AE00D89076337533743373336F2F57EF13F02F
:1026BE0079EF13F020EE03F06B51D9266C51DA222C
:1026CE00000EDF6E10EE02F06B51E1266C51E2222D
:1026DE00DFC4E7F420EE01F06B51D9266C51DA22FB
:1026EE00E7C4DFF46100ACF5D9F46100B0F5DAF4BB
:1026FE006100CCF5DFF474C573F575C574F576C558
:10270E0075F5766B73C56FF5070E6F1720EE01F03A
:10271E006B51D9266C51DA226F51DF1220EE04F084
:10272E006D51D9266E51DA22DF30E8320F0B726FFF
:10273E0020EE04F06D51D9266E51DA22DFB0AAEFE9
:10274E0013F0AEEF13F06F6B6F2BB0EF13F00501BC
:10275E006F6B6F39F00B721320EE04F06D51D926AA
:10276E006E51DA22DFB2BEEF13F0C2EF13F0200E7D
:10277E006F6FC4EF13F005016F6B6F51721320EE84
:10278E0004F06D51D9266E51DA22DFBED1EF13F06F
:10279E00D5EF13F0400E6F6FD7EF13F005016F6B8F
:1027AE006F51721320EE04F06D51D9266E51DA225C
:1027BE00DFBCE4EF13F0E8EF13F0800E6F6FEAEF7B
:1027CE0013F005016F6B6F51721320EE04F06B5115
:1027DE00D9266C51DA226100C8F5DFF420EE04F040
:1027EE006D51D9266E51DA22DFB200EF14F002EFEE
:1027FE0014F02EEF14F0080E6B25606F000E6C2196
:10280E00616F20EE05F06D51D9266E51DA2261000E
:10281E0078F362F5610074F363F520EE04F06D5108
:10282E00D9266E51DA22DF30E8320F0B6F6F706BE4
:10283E00010E6F25F66E260E7021F76EF86A000EE9
:10284E00F8220800F550646F656BECEC1AF012007C
:10285E0020EE04F00C50D9260D50DA22DF50176E00
:10286E0017C510F520EE04F00E50D9260F50DA22BF
:10287E0010461046DF501018C30B1018DF6E17B835
:10288E004BEF14F04FEF14F0106A102A50EF14F0C3
:10289E00106A20EE04F00E50D9260F50DA22DF50C7
:1028AE001018FE0B1018DF6E17BA60EF14F064EFFD
:1028BE0014F0106A102A65EF14F0106A20EE04F07E
:1028CE000E50D9260F50DA221046DF501018FD0B8D
:1028DE001018DF6E17BC76EF14F07AEF14F0106A52
:1028EE00102A7BEF14F0106A20EE04F00E50D92659
:1028FE000F50DA2210321032DF5010187F0B1018E2
:10290E00DF6E17BE8DEF14F091EF14F0106A102ADF
:10291E0092EF14F0106A20EE04F00E50D9260F50EC
:10292E00DA22103A10461046DF501018BF0B10185E
:10293E00DF6E20EE01F00C50D9260D50DA22DF505A
:10294E00106E070E10161050136E146A156A166A62
:10295E0015C516F514C515F513C514F5136A6100E2
:10296E0030F4D9F4610034F4DAF4DF50106E105004
:10297E00131220EE04F00E50D9260F50DA22DFA0EB
:10298E00CBEF14F0CDEF14F00EEF15F0050ED8903E
:10299E001336143615361636E82ECEEF14F020EE1A
:1029AE0003F00C50D9260D50DA22DF50106E1F0E98
:1029BE0010161050131215C516F514C515F513C5BE
:1029CE0014F5136A20EE02F00C50D9260D50DA22BF
:1029DE00DF50106E10501312050ED89013361436A9
:1029EE0015361636E82EF4EF14F020EE01F00C50EA
:1029FE00D9260D50DA22DF50106ED8901032D890B2
:102A0E001032D89010321F0E101610501312610093
:102A1E0038F4D9F461003CF4DAF461004CF4DEF4DD
:102A2E00610050F4DEF4610054F4DEF4610058F4F9
:102A3E00DEF44E0E016E050E026E080E0C24036EB1
:102A4E00000E0D20046E20EE04F00E50D9260F500D
:102A5E00DA22DF30E8320F0B106E116A010E1024ED
:102A6E00F66E260E1120F76EF86A000EF822080098
:102A7E00F550056E066A1AEC1BF020EE05F00E50AE
:102A8E00D9260F50DA224E0EDE6E050EDD6E1200C6
:102A9E0001011DAF55EF15F057EF15F066EF15F06C
:102AAE0002D864EF15F00500FA6E05019951FD6E1E
:102ABE009A51FE6EFF6AFA50120001011D9F1DAD64
:102ACE006BEF15F06DEF15F07CEF15F002D87AEF85
:102ADE0015F00500FA6E05019751FD6E9851FE6EC8
:102AEE00FF6AFA50120001011D9D1DAB81EF15F01A
:102AFE0083EF15F092EF15F002D890EF15F0050068
:102B0E00FA6E05019551FD6E9651FE6EFF6AFA50F2
:102B1E00120001011D9B1CA797EF15F099EF15F000
:102B2E00A8EF15F002D8A6EF15F00500FA6E050114
:102B3E009351FD6E9451FE6EFF6AFA501200010120
:102B4E001C971DA9ADEF15F0AFEF15F0BEEF15F008
:102B5E0002D8BCEF15F00500FA6E05019151FD6E1D
:102B6E009251FE6EFF6AFA50120001011D991DA5C9
:102B7E00C3EF15F0C5EF15F0DBEF15F002D8D2EF6D
:102B8E0015F00500FA6E05018F51FD6E9051FE6E27
:102B9E00FF6AFA501200010154A9D8EF15F0DAEFCE
:102BAE0015F0DBEF15F054991DA7E0EF15F0E2EFED
:102BBE0015F0F8EF15F002D8EFEF15F00500FA6EEC
:102BCE0005018D51FD6E8E51FE6EFF6AFA50120098
:102BDE00010160A7F5EF15F0F7EF15F0F8EF15F01E
:102BEE006097AE9C120056EF16F0500E7D6F030EDE
:102BFE007E6F000E7F6F000E806F080E816F000ECD
:102C0E00826F000E836F000E846F000E856F000EB4
:102C1E00866F000E876F000E886F000E896F5BEC5B
:102C2E0017F070EF16F0510E7D6F030E7E6F000ED3
:102C3E007F6F000E806F080E816F000E826F000E88
:102C4E00836F000E846F000E856F000E866F000E70
:102C5E00876F000E886F000E896F5BEC17F070EFB8
:102C6E0016F0520E7D6F030E7E6F000E7F6F000EFC
:102C7E00806F080E816F000E826F000E836F000E44
:102C8E00846F000E856F000E866F000E876F000E2C
:102C9E00886F000E896F5BEC17F070EF16F0050170
:102CAE009B518B6F8C6B8C51000AD8B461EF16F070
:102CBE0070EF16F08B51000AD8B4FCEF15F0010A34
:102CCE00D8B41AEF16F0030AD8B438EF16F070EF36
:102CDE0016F01200216E000E1D6E18509BEC1DF0AA
:102CEE00206E20A07DEF16F07FEF16F0E5EF16F0C8
:102CFE0018500C0D580EF324D96E010EF420DA6E16
:102D0E00610078F31EF5610074F31FF51E501F105D
:102D1E00D8B494EF16F096EF16F0E5EF16F01EC548
:102D2E000CF51FC50DF519C50EF51AC50FF52FECCF
:102D3E0014F018500C0D510EF324D96E010EF42020
:102D4E00DA6E000EDB802150020DB00EF324D96E28
:102D5E00050EF420DA6EDF2A185058EC1DF01B6EAB
:102D6E002150020DB00EF324D96E050EF420DA6E4A
:102D7E001B50DE5CD8A0C6EF16F0C8EF16F0D2EFEF
:102D8E0016F02150020DB00EF324D96E050EF4206C
:102D9E00DA6E000EDF6E20A6D7EF16F0D9EF16F022
:102DAE00E3EF16F018500C0D540EF324D96E010EED
:102DBE00F420DA6EF70EDF16010E1D6E1D50120096
:102DCE000501666F000E0501686F20EE04F061517B
:102DDE00D9266251DA22DF50696F69AFF9EF16F02A
:102DEE00FBEF16F007EF17F00EEC1EF0060AD8A454
:102DFE0003EF17F005EF17F007EF17F005016883E3
:102E0E0005016931E8320F0B636F080E636512EF2F
:102E1E0017F014EF17F027EF17F069AD19EF17F051
:102E2E001BEF17F025EF17F00EEC1EF0060AD8A4D4
:102E3E0023EF17F025EF17F027EF17F00501688144
:102E4E00090EF66E260EF76EF86A08006100D4F3CE
:102E5E0063F505016931E8320F0B646F656B010E86
:102E6E006425F66E260E6521F76EF86A000EF822BE
:102E7E000800F550635DD8B047EF17F049EF17F033
:102E8E004AEF17F06881665167EC1DF00009D8A46F
:102E9E0053EF17F055EF17F058EF17F0030E05012B
:102EAE00681305016851120082C59CF583C59DF516
:102EBE0084C59EF585C59FF586C5A0F587C5A1F588
:102ECE0088C5A2F589C5A3F57DC5A4F57EC5A5F572
:102EDE007FC5A6F580C5A7F50501A89DA89FA89357
:102EEE00A88181C58AF50F0E8A178A478A47A8518D
:102EFE008A19C30B8A19A86F9C0EA96F050EAA6FAB
:102F0E00BDEC1DF0E806D8A48FEF17F091EF17F087
:102F1E0092EF17F000F0B2EC1DF0E806D8A49AEF8D
:102F2E0017F09CEF17F09DEF17F000F0A7EC1DF0D7
:102F3E00E806D8A4A5EF17F0A7EF17F0A8EF17F043
:102F4E0000F082EC1DF0E806D8A4B0EF17F0B2EF57
:102F5E0017F0B3EF17F000F0000E7DEC1CF005013A
:102F6E008A6F8AA1BDEF17F0BFEF17F0C7EF17F00A
:102F7E00A40E776F050E786F000EB7EC19F000F007
:102F8E00120094EC18F00009D8B4D0EF17F0D2EF7D
:102F9E0017F02EEF18F0560E226E050E236E73EC00
:102FAE001BF0E806D8A4DEEF17F0E0EF17F02EEFD7
:102FBE0018F000F056C533F557C534F558C535F53C
:102FCE0059C536F561006CF5D9F4610070F5DAF487
:102FDE00DF50376E0AEF18F04BC54AF53750030B2A
:102FEE004B6E4B504A18D8B4FFEF17F001EF18F0A4
:102FFE002EEF18F05AEC19F046EC1CF02EEF18F0EC
:10300E0000F02EEF18F033C526F534C527F535C57B
:10301E0028F536C529F52950000AD8B427EF18F03F
:10302E0007EF18F02750050AD8B420EF18F007EF75
:10303E0018F02650000AD8B4F3EF17F007EF18F087
:10304E002850000AD8B419EF18F007EF18F0120044
:10305E004450016E4550026E444A452A090E015CE9
:10306E00070E0258D8A03EEF18F040EF18F048EFC8
:10307E0018F01EEC1EF0000E456E000E446E93EF1F
:10308E0018F04250016E4350026E424A432A850E9A
:10309E00015C030E0258D8A057EF18F059EF18F044
:1030AE0061EF18F020EC1EF0000E436E000E426E23
:1030BE0093EF18F04050016E4150026E404A412A83
:1030CE00025009E13D0E015CD8A070EF18F072EFCE
:1030DE0018F07AEF18F01FEC1EF0000E416E000E85
:1030EE00406E93EF18F03E50016E3F50026E3E4A16
:1030FE003F2A025009E1020E015CD8A089EF18F0B8
:10310E008BEF18F093EF18F01DEC1EF0000E3F6ED3
:10311E00000E3E6E93EF18F01200000E036E000EBE
:10312E000A6E0A50020DAF0EF324D96E050EF4206E
:10313E00DA6EDF50066E06509BEC1DF0056E05A094
:10314E00ABEF18F0ADEF18F0EEEF18F0065058ECAC
:10315E001DF0076E05A6B6EF18F0B8EF18F0BCEF2D
:10316E0018F007C504F5ECEF18F006500C0D550ECF
:10317E00F324D96E010EF420DA6EDF501F0B086EA9
:10318E000A50020DB00EF324D96E050EF420DA6E3D
:10319E00DF50096E0950085CD8B0D8EF18F0DAEF9E
:1031AE0018F0E0EF18F00950085C0724046EECEFFD
:1031BE0018F00850095CD8B0E7EF18F0E9EF18F0F6
:1031CE00B8EF18F00950085C046E045003260A2A62
:1031DE000A50D8B4F5EF18F0F7EF18F098EF18F092
:1031EE00035012006100D8F338F56100DCF339F5B5
:1031FE006100E0F33AF56100D4F33BF59EAC0AEFC3
:10320E0019F00CEF19F017EF19F0AEAC11EF19F031
:10321E0013EF19F017EF19F04FEC15F04DEF19F001
:10322E00A2A81CEF19F01EEF19F029EF19F0B2A8A1
:10323E0023EF19F025EF19F029EF19F096EC1CF099
:10324E004DEF19F0A1AE2EEF19F030EF19F03BEF64
:10325E0019F0B1AE35EF19F037EF19F03BEF19F069
:10326E008FEC1AF04DEF19F0A1A840EF19F042EFD4
:10327E0019F04DEF19F0B1A847EF19F049EF19F019
:10328E004DEF19F029EC1CF04DEF19F06100ECF444
:10329E00F5F46100E8F4F8F46100E4F4F7F4610089
:1032AE00E0F4F6F4110095EF19F0BF92BF94B6EF6B
:1032BE0019F0BF94BF82B6EF19F0BF94BFB26AEF98
:1032CE0019F06DEF19F0010E6EEF19F0000EFF0AF6
:1032DE00016E0146BF500118FD0B0118BF6EB6EF0F
:1032EE0019F0BF92BFB47EEF19F081EF19F0010E05
:1032FE0082EF19F0000EFF0A016E01460146BF5023
:10330E000118FB0B0118BF6EB6EF19F0BF92BF8408
:10331E00B6EF19F0BF92BF94B6EF19F04B50016E95
:10332E00026A0250000AD8B49FEF19F091EF19F01B
:10333E000150000AD8B45CEF19F0010AD8B460EF5E
:10334E0019F0030AD8B464EF19F0010AD8B478EF73
:10335E0019F0070AD8B48DEF19F091EF19F0120099
:10336E0005017C6F05017C51E4EC1BF00009D8B41B
:10337E00C3EF19F0C5EF19F005EF1AF077C561F537
:10338E0078C562F505017C51E7EC16F00501796F01
:10339E007951D8A4D5EF19F0D7EF19F005EF1AF03F
:1033AE007C510C0D580EF324D96E010EF420DA6EFA
:1033BE00610078F37AF5610074F37BF57A517B1135
:1033CE00D8B4ECEF19F0EEEF19F005EF1AF07AC55C
:1033DE006BF57BC56CF577C56DF578C56EF507ECAD
:1033EE0013F005017C510C0D510EF324D96E010E14
:1033FE00F420DA6E030EDF1205EF1AF0120005014B
:10340E00626F000E0501616F0EEC1EF00501606F1C
:10341E00040E6019D8B416EF1AF018EF1AF029EF4F
:10342E001AF06205D8B41EEF1AF020EF1AF029EF49
:10343E001AF0040E6219D8A427EF1AF029EF1AF029
:10344E004EEF1AF00101035105016219F80B6219D2
:10345E000101036F40EF1AF001011DA939EF1AF0B7
:10346E003BEF1AF040EF1AF0020E0501616F50EFBC
:10347E001AF00239E832070B05016219D8A44AEF97
:10348E001AF04CEF1AF033EF1AF050EF1AF0010E5B
:10349E00616F615112004C0E0501606F3C0E616F41
:1034AE00FFEC1DF04E0E0501606F3C0E616F04ECDB
:1034BE001EF0500E0501606F3C0E616F09EC1EF0A0
:1034CE004A0E0501606F3C0E616FFAEC1DF0460E60
:1034DE000501606F3C0E616FF0EC1DF0440E0501AE
:1034EE00606F3C0E616FEBEC1DF0480E0501606FD6
:1034FE003C0E616FF5EC1DF0AE9C000E01011C6FD1
:10350E00000E1D6F0A0E1E6FFC0E1F6F9E8C12009A
:10351E00B19E3C4A3D2A3D5009E1240E3C5CD8A0A8
:10352E009BEF1AF09DEF1AF0A5EF1AF02FEC18F0A2
:10353E00F4EC1CF0000E3D6E000E3C6E4D04D8A453
:10354E00ABEF1AF0ADEF1AF0BDEF1AF04C2A230EC6
:10355E004C64B4EF1AF0B6EF1AF0BBEF1AF0000E8F
:10356E004D6E000E4C6EC09646EC1CF01200000E16
:10357E00BE6E000EBF6E000EC06E080ECA6EC6681E
:10358E00E90EC76EE70EC86E04011069F10E086FE2
:10359E000069000E216F000E096F000E016F000E04
:1035AE00116F000E026F000E0A6F000E126F03698C
:1035BE000B69136904690C691469080E246F0B0EEC
:1035CE0002013D6F460E0D6F120062C568F563C5B0
:1035DE0069F560C566F561C567F50BEF1BF0610017
:1035EE00A0F5D9F46100A4F5DAF4DF506A6F684BE8
:1035FE00692B610098F5D9F461009CF5DAF461004D
:10360E00A8F5DFF4664B672B05016407D8A06507A4
:10361E00642906E16529D8A417EF1BF019EF1BF0FA
:10362E00F6EF1AF0120003C509F504C50AF501C537
:10363E0007F502C508F539EF1BF0610024F4D9F443
:10364E00610028F4DAF4DF500B6E094A0A2A610091
:10365E001CF4D9F4610020F4DAF461002CF4DFF4E8
:10366E00074A082A0506D8A00606052806E10628F8
:10367E00D8A444EF1BF046EF1BF024EF1BF0120012
:10368E000101018F040E06EC1AF00009D8A452EFC6
:10369E001BF054EF1BF072EF1BF0000E01014C6F8C
:1036AE00260E4D6F000E4E6F000E4F6F600E006FA8
:1036BE00970E016F100E026FD2EC1DF0C8EC1DF0CC
:1036CE000BEC1DF01AEC1EF0AFEC1CF052EC1AF0E5
:1036DE00060E06EC1AF01200000E256E2550020D95
:1036EE00AF0EF324D96E050EF420DA6EDF50186E8D
:1036FE0022C519F523C51AF5255071EC16F0246E66
:10370E002450D8B48DEF1BF08FEF1BF091EF1BF010
:10371E009AEF1BF0252A2550D8B498EF1BF09AEF9C
:10372E001BF075EF1BF024501200320EF66E3C0E9D
:10373E00F76E000EF86E09006100D4F3AFF50900C4
:10374E006100D4F3B0F501EE8DF11E0EEE6AE806BF
:10375E00FDE101EE3CF1210EEE6AE806FDE1040109
:10376E00080E5D6F000E5E6F000E5F6F000175EF4D
:10377E001DF0000E03011F6F000E206F010E216F52
:10378E000B0E1D6FDC0E1C6FB1981C51600074FC8B
:10379E0062F50501636B62C563F5626B62115D6E66
:1037AE0063515E6EA188360E606F3C0E616FDCEC6D
:1037BE001DF0210E03011E6F12000501616F000E38
:1037CE000501606F040E6161EFEF1BF0F1EF1BF06E
:1037DE0004EF1CF061510C0D500EF324D96E010E46
:1037EE00F420DA6E0101DFAEFFEF1BF001EF1CF0EB
:1037FE0004EF1CF0010E0501606F0501605112000F
:10380E00BF92BF84C086000E0501616FC80E606F47
:10381E0063EC1CF0BF92BF94C096000E0501616F61
:10382E00C80E606F63EC1CF0BF82BF94C086000EA2
:10383E000501616FC80E606F63EC1CF0BF92BF9400
:10384E00C0961200B1985DC501F55EC502F5C6ECD5
:10385E001CF0464A472A475009E1050E465CD8A09F
:10386E003BEF1CF03DEF1CF045EF1CF05AEC19F04D
:10387E00DDEC1CF0000E476E000E466E1200030EBD
:10388E004B18D8A44DEF1CF04FEF1CF062EF1CF05C
:10389E00C0B654EF1CF057EF1CF0010E58EF1CF0A1
:1038AE00000EFF0A016E014601460146C050011886
:1038BE00F70B0118C06E12006EEF1CF0040E05011E
:1038CE00626F3D0EE82EFED7622FFCD700D00501A9
:1038DE006007D8A06107602906E16129D8A47AEFB4
:1038EE001CF07CEF1CF065EF1CF012000501636FFD
:1038FE00000E0501626F6351E4EC1BF00009D8B4B1
:10390E008BEF1CF08DEF1CF093EF1CF00501635153
:10391E0067EC1DF00501626F050162511200010195
:10392E0060A19CEF1CF09EEF1CF0AEEF1CF002D8D5
:10393E00AAEF1CF00500FA6E4850FD6E4950FE6E5F
:10394E00FF6AFA501200C8EC17F0010160911200E4
:10395E00000E0501606F6051020DB00EF324D96E9A
:10396E00050EF420DA6E000EDF6E602B6051D8B4B7
:10397E00C3EF1CF0C5EF1CF0B2EF1CF012000301F8
:10398E001EA5CCEF1CF0CEEF1CF0D7EF1CF01E9155
:10399E0002501D6F610004F41CF31E81DCEF1CF05D
:1039AE0002501D6F610004F41CF312000501AD51AD
:1039BE00AE11D8B4E5EF1CF0E7EF1CF0F3EF1CF0FE
:1039CE0002D8F3EF1CF00500FA6EAD51FD6EAE514C
:1039DE00FE6EFF6AFA50120012000501AB51AC11D7
:1039EE00D8B4FCEF1CF0FEEF1CF00AEF1DF002D86D
:1039FE000AEF1DF00500FA6EAB51FD6EAC51FE6E76
:103A0E00FF6AFA5012001200190E01015C6F040ECB
:103A1E005D6F600E5E6F050E5F6F420E0501606F8B
:103A2E003C0E616FE6EC1DF001011E83B298A28878
:103A3E0012004C0E03011B6F980E196F000E186FBB
:103A4E00B19EA18E380E0501606F3C0E616FE1ECE8
:103A5E001DF0800E03011A6F1200000E0001606F40
:103A6E00000E616F000E626F000E636F000E646FCA
:103A7E00000E656F000E666F000E676F000E686FAA
:103A8E00120017EC1EF0C08634EC1DF0BEEC1AF0DE
:103A9E008FEC1DF0C0EC1BF020EC1DF047EC1BF082
:103AAE001200026E02500C0D530EF324D96E010E4D
:103ABE00F420DA6EDF50016E1F0E0116012812007F
:103ACE000501606F050160510C0D540EF324D96E83
:103ADE00010EF420DA6EDF50010B120048EC1DF0DF
:103AEE0013EC1EF0D68E07EC1CF0FAEC15F07CEF02
:103AFE001DF00DEF00F0B2EC1DF00009D8B48AEF06
:103B0E001DF08DEF1DF0010E8EEF1DF0000E120058
:103B1E00700E0001AD6F000EAF6F000EB36F020E90
:103B2E00B16F000EB06F1200016E01500C0D540EED
:103B3E00F324D96E010EF420DA6EDF50090B120059
:103B4E00010136B5ADEF1DF0B0EF1DF0010EB1EF76
:103B5E001DF0000E1200010136B9B8EF1DF0BBEFDB
:103B6E001DF0010EBCEF1DF0000E1200010136BB60
:103B7E00C3EF1DF0C6EF1DF0010EC7EF1DF0000ED6
:103B8E001200100E0101506F040E516F600E526F35
:103B9E00050E536F1200010E0101046F010E056F29
:103BAE00060E066F000E076F120060C5ADF561C5FB
:103BBE00AEF5120060C5ABF561C5ACF5120060C57F
:103BCE0048F561C549F5120060C58FF561C590F5E0
:103BDE00120060C591F561C592F5120060C58DF5B4
:103BEE0061C58EF5120060C593F561C594F512009E
:103BFE0060C599F561C59AF5120060C597F561C566
:103C0E0098F5120060C595F561C596F51200010193
:103C1E000239E832070B1200000E05019B6F1200ED
:103C2E00D69A1200010012001200120012001200A9
:103C3E0012001200120012001200120012001200E6
:043C4E00120012004E
:020000040020DA
:10000000FF0FFF0FFF0FFF0FFF0FFF0FFF0FFF0F80
:10001000FF0FFF0FFF0FFF0FFF0FFF0FFF0FFF0F70
:020000040030CA
:10000000FAEFF7DF9FFFFFFFFFFFFFFFFFFFFFFF9D
:10001000FFFFFFFFFFFFFFFFFFFFFFFFFFFFFFFFF0
:04002000FFFFFFFFE0
:00000001FF
