:040000000DEF00F010
:0400080050EF14F0B1
:06001800FF0067EF15F088
:0D2600000000010203040506070850010058
:10260E0001011DAF0DEF13F00FEF13F01DEF13F0DF
:10261E0002D81BEF13F00500FA6E1150FD6E12502A
:10262E00FE6EFF6AFA50120001011D9F1DAD22EFD2
:10263E0013F024EF13F032EF13F002D830EF13F053
:10264E000500FA6E0F50FD6E1050FE6EFF6AFA50C6
:10265E00120001011D9D1DAB37EF13F039EF13F082
:10266E0047EF13F002D845EF13F00500FA6E0D5048
:10267E00FD6E0E50FE6EFF6AFA50120001011D9B98
:10268E001CA74CEF13F04EEF13F05CEF13F002D8D3
:10269E005AEF13F00500FA6E0B50FD6E0C50FE6EE5
:1026AE00FF6AFA50120001011C971DA961EF13F089
:1026BE0063EF13F071EF13F002D86FEF13F0050014
:1026CE00FA6E0950FD6E0A50FE6EFF6AFA50120045
:1026DE0001011D991DA576EF13F078EF13F095EF1C
:1026EE0013F002D884EF13F00500FA6E0750FD6E5A
:1026FE000850FE6EFF6AFA501200010154A98AEFCB
:10270E0013F08CEF13F08DEF13F0549960A992EF44
:10271E0013F094EF13F095EF13F060991DA79AEF55
:10272E0013F09CEF13F0B1EF13F002D8A8EF13F0F3
:10273E000500FA6E0550FD6E0650FE6EFF6AFA50E9
:10274E00120001016CA7AEEF13F0B0EF13F0B1EF72
:10275E0013F06C97AE9C1200EAEF13F0BF92BF9489
:10276E000BEF14F0BF94BF820BEF14F0BF94BFB207
:10277E00C3EF13F0C6EF13F0010EC7EF13F0000E08
:10278E00FF0A4D6E4D46BF504D18FD0B4D18BF6ED6
:10279E000BEF14F0BF92BFB4D7EF13F0DAEF13F0D4
:1027AE00010EDBEF13F0000EFF0A4D6E4D464D4647
:1027BE00BF504D18FB0B4D18BF6E0BEF14F0BF92B0
:1027CE00BF840BEF14F013504D6E4E6A4E50000A3C
:1027DE00D8B4F4EF13F00BEF14F04D50000AD8B448
:1027EE00B5EF13F0010AD8B4B9EF13F0030AD8B459
:1027FE00BDEF13F0010AD8B4D1EF13F0070AD8B425
:10280E00E6EF13F00BEF14F01200516E000E506E47
:10281E00D8EC16F04F6E040E4F18D8B419EF14F012
:10282E001BEF14F02CEF14F05104D8B421EF14F078
:10283E0023EF14F02CEF14F0040E5118D8A42AEF45
:10284E0014F02CEF14F04CEF14F001010351511859
:10285E00F80B5118036F3FEF14F01DA939EF14F068
:10286E003BEF14F03FEF14F0020E506E4EEF14F0EB
:10287E000239E832070B5118D8A448EF14F04AEF8A
:10288E0014F034EF14F04EEF14F0010E506E505061
:10289E0012009EAC55EF14F057EF14F062EF14F0E7
:1028AE00AEAC5CEF14F05EEF14F062EF14F007ECD8
:1028BE0013F086EF14F0A1AE67EF14F069EF14F089
:1028CE0074EF14F0B1AE6EEF14F070EF14F074EF0D
:1028DE0014F0EBEC14F086EF14F0A1A879EF14F0DD
:1028EE007BEF14F086EF14F0B1A880EF14F082EFB6
:1028FE0014F086EF14F087EC15F086EF14F011004B
:10290E00120E4F6E2E0E506EF1EC16F0140E4F6E20
:10291E002E0E506EF6EC16F0160E4F6E2E0E506EEC
:10292E00FBEC16F0100E4F6E2E0E506EECEC16F0F9
:10293E000C0E4F6E2E0E506EE2EC16F00A0E4F6E0F
:10294E002E0E506EDDEC16F00E0E4F6E2E0E506EDD
:10295E00E7EC16F0AE9C000E01011C6F000E1D6F11
:10296E00080E1E6FFC0E1F6F9E8C1200000EBE6EA8
:10297E00000EBF6E000EC06E080ECA6EC668E90E5F
:10298E00C76EE70EC86E04011069F70E086F006976
:10299E00000E216F000E096F000E016F000E116FF9
:1029AE00000E026F000E0A6F000E126F03690B69A4
:1029BE00136904690C691469080E246F0B0E020169
:1029CE003D6F460E0D6F1200B19E014A022A025053
:1029DE0009E1240E015CD8A0F7EF14F0F9EF14F022
:1029EE00FFEF14F01BEC16F0000E026E000E016EDF
:1029FE001504D8A405EF15F007EF15F017EF15F035
:102A0E00142A230E14640EEF15F010EF15F015EFC7
:102A1E0015F0000E156E000E146EC096A4EC15F097
:102A2E0012000101018F040E0CEC14F00009D8A461
:102A3E0023EF15F025EF15F043EF15F0000E010111
:102A4E004C6F380E4D6F000E4E6F000E4F6FE00E36
:102A5E00006F970E016F100E026FC4EC16F06DEC46
:102A6E0016F0BAEC16F002EC17F0EFEC15F087EC5E
:102A7E0014F0060E0CEC14F01200000E03011F6F82
:102A8E00000E206F010E216F0B0E1D6FDC0E1C6FE2
:102A9E00B1981C51600074FC51F5526A51C552F543
:102AAE00516A51104B6E52504C6EA188060E4F6EED
:102ABE002E0E506ECEEC16F0210E03011E6F12007C
:102ACE00FE0EF66E2C0EF76E000EF86E01EE25F170
:102ADE0010EE22F00900F5C4EEF4E550E150FAE1F3
:102AEE0001EE01F1240EEE6AE806FDE10401080E86
:102AFE005D6F000E5E6F000E5F6F000190EF16F0BF
:102B0E00B1984BC54DF54CC54EF5D8EC15F0034AB2
:102B1E00042A045009E1050E035CD8A099EF15F0C4
:102B2E009BEF15F0A3EF15F031EC16F005EC16F057
:102B3E00000E046E000E036E1200030E1318D8A4BE
:102B4E00ABEF15F0ADEF15F0C0EF15F0C0B6B2EF6C
:102B5E0015F0B5EF15F0010EB6EF15F0000EFF0AE9
:102B6E004D6E4D464D464D46C0504D18F70B4D1807
:102B7E00C06E1200CAEF15F0040E516E3E0EE82E16
:102B8E00FED7512EFCD74F06D8A050064F2806E18F
:102B9E005028D8A4D5EF15F0D7EF15F0C3EF15F0E8
:102BAE00120003011EA5DEEF15F0E0EF15F0E9EFC0
:102BBE0015F01E914E501D6F610034F51CF31E81F1
:102BCE00EEEF15F04E501D6F610034F51CF3120040
:102BDE00000E4F6E4F50020D260EF324D96E050EC9
:102BEE00F420DA6E000EDF6E4F2A4F50D8B402EF8B
:102BFE0016F004EF16F0F1EF15F0120049504A10DE
:102C0E00D8B40CEF16F00EEF16F01AEF16F002D83D
:102C1E001AEF16F00500FA6E4950FD6E4A50FE6E20
:102C2E00FF6AFA501200120047504810D8B422EF33
:102C3E0016F024EF16F030EF16F002D830EF16F043
:102C4E000500FA6E4750FD6E4850FE6EFF6AFA5050
:102C5E0012001200020E1318D8B438EF16F03AEF25
:102C6E0016F043EF16F0030E1318D8A441EF16F02A
:102C7E0043EF16F045EF16F0B3EC13F01200000E12
:102C8E000001606F000E616F000E626F000E636FC9
:102C9E00000E646F000E656F000E666F000E676F9C
:102CAE00000E686F12004C0E03011B6F980E196F09
:102CBE00000E186FB19EA18E080E4F6E2E0E506E26
:102CCE00D3EC16F0800E03011A6F1200100E0101E4
:102CDE00506F040E516F600E526F050E536F900EB3
:102CEE005C6F040E5D6F600E5E6F050E5F6F1200FF
:102CFE00020042554646455243414E000000000038
:102D0E0000000000000000000000000000000000B5
:102D1E0000009FEC16F0D68E010E136E000E506E54
:102D2E00640E4F6EC1EC15F093EF16F00DEF00F040
:102D3E0000EC17F046EC16F0BDEC14F0AEEC16F00D
:102D4E0044EC15F05AEC16F018EC15F01200700E5B
:102D5E000001AD6F000EAF6F000EB36F020EB16FBC
:102D6E00000EB06F1200080E0101686F040E696F3D
:102D7E00600E6A6F050E6B6F1200010E0101046F7B
:102D8E00010E056F060E066F000E076F12004FC57F
:102D9E0049F550C54AF512004FC547F550C548F5DF
:102DAE00120001010239E832070B12004FC507F578
:102DBE0050C508F512004FC509F550C50AF51200A9
:102DCE004FC505F550C506F512004FC50BF550C59C
:102DDE000CF512004FC511F550C512F512004FC576
:102DEE000FF550C510F512004FC50DF550C50EF577
:102DFE001200D69A120012001200120012001200D7
:0A2E0E001200120012001200120060
:020000040020DA
:10000000FF0FFF0FFF0FFF0FFF0FFF0FFF0FFF0F80
:10001000FF0FFF0FFF0FFF0FFF0FFF0FFF0FFF0F70
:020000040030CA
:10000000FAFFF7DF9FFFFFFFFFFFFFFFFFFFFFFF8D
:10001000FFFFFFFFFFFFFFFFFFFFFFFFFFFFFFFFF0
:04002000FFFFFFFFE0
:00000001FF
