:020000040000FA
:040000000DEF00F010
:0400080089EF17F075
:06001800FF00ACEF18F040
:0D2600000000010203040506070850010058
:10260E0020EE04F00E50D9260F50DA22DF50196E4C
:10261E0019C512F520EE04F01050D9261150DA2209
:10262E0012461246DF501218C30B1218DF6E19B87D
:10263E0023EF13F027EF13F0126A122A28EF13F08C
:10264E00126A20EE04F01050D9261150DA22DF5013
:10265E001218FE0B1218DF6E19BA38EF13F03CEF9A
:10266E0013F0126A122A3DEF13F0126A20EE04F0F4
:10267E001050D9261150DA221246DF501218FD0BD7
:10268E001218DF6E19BC4EEF13F052EF13F0126AF0
:10269E00122A53EF13F0126A20EE04F01050D926CE
:1026AE001150DA2212321232DF5012187F0B12182A
:1026BE00DF6E19BE65EF13F069EF13F0126A122A7E
:1026CE006AEF13F0126A20EE04F01050D926115062
:1026DE00DA22123A12461246DF501218BF0B1218A7
:1026EE00DF6E20EE01F00E50D9260F50DA22DF50A9
:1026FE00126E070E12161250156E166A176A186AA7
:10270E0017C518F516C517F515C516F5156A610026
:10271E0038F4D9F461003CF4DAF4DF50126E125042
:10272E00151220EE04F01050D9261150DA22DFA037
:10273E00A3EF13F0A5EF13F0E6EF13F0050ED8900C
:10274E001536163617361836E82EA6EF13F020EE8D
:10275E0003F00E50D9260F50DA22DF50126E1F0EE4
:10276E0012161250151217C518F516C517F515C500
:10277E0016F5156A20EE02F00E50D9260F50DA2209
:10278E00DF50126E12501512050ED89015361636F1
:10279E0017361836E82ECCEF13F020EE01F00E505F
:1027AE00D9260F50DA22DF50126ED8901232D890FE
:1027BE001232D89012321F0E1216125015126100DC
:1027CE0040F4D9F4610044F4DAF4610054F4DEF418
:1027DE00610058F4DEF461005CF4DEF4610060F434
:1027EE00DEF46A0E036E050E046E080E0E24056EE0
:1027FE00000E0F20066E20EE04F01050D926115058
:10280E00DA22DF30E8320F0B126E136A010E122439
:10281E00F66E260E1320F76EF86A000EF8220800E8
:10282E00F550076E086A53EC18F020EE05F01050C4
:10283E00D9261150DA226A0EDE6E050EDD6E1200FA
:10284E0001011DAF2DEF14F02FEF14F03DEF14F03A
:10285E0002D83BEF14F00500FA6E4C50FD6E4D5051
:10286E00FE6EFF6AFA50120001011D9F1DAD42EF70
:10287E0014F044EF14F052EF14F002D850EF14F0AD
:10288E000500FA6E4A50FD6E4B50FE6EFF6AFA500E
:10289E00120001011D9D1DAB57EF14F059EF14F0FE
:1028AE0067EF14F002D865EF14F00500FA6E485089
:1028BE00FD6E4950FE6EFF6AFA50120001011D9B1B
:1028CE001CA76CEF14F06EEF14F07CEF14F002D82E
:1028DE007AEF14F00500FA6E4650FD6E4750FE6E0C
:1028EE00FF6AFA50120001011C971DA981EF14F026
:1028FE0083EF14F091EF14F002D88FEF14F005006F
:10290E00FA6E4450FD6E4550FE6EFF6AFA5012008C
:10291E0001011D991DA596EF14F098EF14F0ADEF7F
:10292E0014F002D8A4EF14F00500FA6E4250FD6EBA
:10293E004350FE6EFF6AFA501200010154A9AAEF2D
:10294E0014F0ACEF14F0ADEF14F054991DA7B2EFE4
:10295E0014F0B4EF14F0C9EF14F002D8C0EF14F075
:10296E000500FA6E4050FD6E4150FE6EFF6AFA5041
:10297E001200010160A7C6EF14F0C8EF14F0C9EF02
:10298E0014F06097AE9C1200000E1E6E000E236EA9
:10299E002350020D5C0EF324D96E050EF420DA6E70
:1029AE00DF50226E22504DEC1AF0216E21A0E2EF84
:1029BE0014F0E4EF14F04CEF15F022500C0D580EFD
:1029CE00F324D96E010EF420DA6E610078F31FF550
:1029DE00610074F320F51F502010D8B4F9EF14F0F5
:1029EE00FBEF14F055EF15F01FC50EF520C50FF5D2
:1029FE001AC510F51BC511F507EC13F022500C0D7E
:102A0E00510EF324D96E010EF420DA6E000EDB8027
:102A1E002350020D5D0EF324D96E050EF420DA6EEE
:102A2E00DF2A225025EC1AF01C6E2350020D5D0E8B
:102A3E00F324D96E050EF420DA6E1C50DE5CD8A09D
:102A4E002BEF15F02DEF15F037EF15F02350020D8B
:102A5E005D0EF324D96E050EF420DA6E000EDF6ED5
:102A6E0021A63CEF15F03EEF15F048EF15F0225081
:102A7E000C0D540EF324D96E010EF420DA6EF70EFF
:102A8E00DF16010E1E6E55EF15F0232A2350D8B413
:102A9E0053EF15F055EF15F0CFEF14F01E50120056
:102AAE0000F026EC16F00009D8B460EF15F062EFD6
:102ABE0015F0BEEF15F0530E1A6E050E1B6ECBEC15
:102ACE0014F0E806D8A46EEF15F070EF15F0BEEF17
:102ADE0015F000F053C531F554C532F555C533F533
:102AEE0056C534F5610060F5D9F4610064F5DAF489
:102AFE00DF50356E9AEF15F050C54FF53550030B7C
:102B0E00506E50504F18D8B48FEF15F091EF15F05E
:102B1E00BEEF15F08BEC16F012EC19F0BEEF15F0BF
:102B2E0000F0BEEF15F031C524F532C525F533C5DD
:102B3E0026F534C527F52750000AD8B4B7EF15F09F
:102B4E0097EF15F02550050AD8B4B0EF15F097EFB2
:102B5E0015F02450020AD8B483EF15F097EF15F054
:102B6E002650000AD8B4A9EF15F097EF15F0120011
:102B7E003C50016E3D50026E3C4A3D2A090E015CEE
:102B8E00070E0258D8A0CEEF15F0D0EF15F0D8EF03
:102B9E0015F0B2EC1AF0000E3D6E000E3C6E25EFF5
:102BAE0016F03A50016E3B50026E3A4A3B2A850EA1
:102BBE00015C030E0258D8A0E7EF15F0E9EF15F00F
:102BCE00F1EF15F0B4EC1AF0000E3B6E000E3A6EFB
:102BDE0025EF16F03850016E3950026E384A392AF8
:102BEE00025009E13D0E015CD8A000EF16F002EF95
:102BFE0016F00AEF16F0B3EC1AF0000E396E000E56
:102C0E00386E25EF16F005016051016E6151026EAE
:102C1E00604B612B025009E1020E015CD8A01AEF45
:102C2E0016F01CEF16F025EF16F0B1EC1AF0000EB0
:102C3E000501616F000E606F25EF16F01200000E99
:102C4E00056E000E0C6E0C50020D5C0EF324D96E48
:102C5E00050EF420DA6EDF50086E08504DEC1AF0B7
:102C6E00076E07A03DEF16F03FEF16F080EF16F05F
:102C7E00085025EC1AF0096E07A648EF16F04AEF39
:102C8E0016F04EEF16F009C506F57EEF16F0085059
:102C9E000C0D550EF324D96E010EF420DA6EDF50B2
:102CAE001F0B0A6E0C50020D5D0EF324D96E050E2D
:102CBE00F420DA6EDF500B6E0B500A5CD8B06AEF60
:102CCE0016F06CEF16F072EF16F00B500A5C09243A
:102CDE00066E7EEF16F00A500B5CD8B079EF16F048
:102CEE007BEF16F04AEF16F00B500A5C066E06509C
:102CFE0005260C2A0C50D8B487EF16F089EF16F083
:102D0E002AEF16F005501200C6EF16F0BF92BF94D0
:102D1E00E7EF16F0BF94BF82E7EF16F0BF94BFB295
:102D2E009BEF16F09EEF16F0010E9FEF16F0000EC1
:102D3E00FF0A036E0346BF500318FD0B0318BF6E48
:102D4E00E7EF16F0BF92BFB4AFEF16F0B2EF16F08A
:102D5E00010EB3EF16F0000EFF0A036E0346034694
:102D6E00BF500318FB0B0318BF6EE7EF16F0BF92B0
:102D7E00BF84E7EF16F0BF92BF94E7EF16F0505006
:102D8E00036E046A0450000AD8B4D0EF16F0C2EFF6
:102D9E0016F00350000AD8B48DEF16F0010AD8B41D
:102DAE0091EF16F0030AD8B495EF16F0010AD8B4D5
:102DBE00A9EF16F0070AD8B4BEEF16F0C2EF16F060
:102DCE00120023EF17F0BF92BF9444EF17F0BF9499
:102DDE00BF8244EF17F0BF94BFB2F8EF16F0FBEFCF
:102DEE0016F0010EFCEF16F0000EFF0A016E014602
:102DFE00BF500118FD0B0118BF6E44EF17F0BF92C4
:102E0E00BFB40CEF17F00FEF17F0010E10EF17F025
:102E1E00000EFF0A016E01460146BF500118FB0B62
:102E2E000118BF6E44EF17F0BF92BF8444EF17F046
:102E3E00BF92BF9444EF17F05050016E026A0250D9
:102E4E00000AD8B42DEF17F01FEF17F00150000A4B
:102E5E00D8B4EAEF16F0010AD8B4EEEF16F0030A72
:102E6E00D8B4F2EF16F0010AD8B406EF17F0070A3D
:102E7E00D8B41BEF17F01FEF17F01200056E000EFF
:102E8E00046E81EC1AF0036E040E0318D8B452EFE0
:102E9E0017F054EF17F065EF17F00504D8B45AEF9A
:102EAE0017F05CEF17F065EF17F0040E0518D8A4B5
:102EBE0063EF17F065EF17F085EF17F0010103517F
:102ECE000518F80B0518036F78EF17F01DA972EFB0
:102EDE0017F074EF17F078EF17F0020E046E87EF0D
:102EEE0017F00239E832070B0518D8A481EF17F056
:102EFE0083EF17F06DEF17F087EF17F0010E046EEA
:102F0E00045012009EAC8EEF17F090EF17F09BEF6F
:102F1E0017F0AEAC95EF17F097EF17F09BEF17F099
:102F2E0027EC14F0BFEF17F0A1AEA0EF17F0A2EF51
:102F3E0017F0ADEF17F0B1AEA7EF17F0A9EF17F03E
:102F4E00ADEF17F0F6EC17F0BFEF17F0A1A8B2EF48
:102F5E0017F0B4EF17F0BFEF17F0B1A8B9EF17F0F5
:102F6E00BBEF17F0BFEF17F02FEC19F0BFEF17F014
:102F7E001100720E036E350E046E9AEC1AF0740E7A
:102F8E00036E350E046E9FEC1AF0760E036E350E40
:102F9E00046EA4EC1AF0700E036E350E046E95ECF2
:102FAE001AF06C0E036E350E046E8BEC1AF06A0E70
:102FBE00036E350E046E86EC1AF06E0E036E350E31
:102FCE00046E90EC1AF0AE9C000E01011C6F000E08
:102FDE001D6F080E1E6FFC0E1F6F9E8C1200B19E91
:102FEE00364A372A375009E1240E365CD8A002EF54
:102FFE0018F004EF18F00CEF18F0BFEC15F0AEEC73
:10300E0019F0000E376E000E366E5204D8A412EF71
:10301E0018F014EF18F024EF18F0512A230E516413
:10302E001BEF18F01DEF18F022EF18F0000E526E85
:10303E00000E516EC0964CEC19F01200000EBE6ED2
:10304E00000EBF6E000EC06E080ECA6EC668E90E88
:10305E00C76EE70EC86E04011069F10E086F0069A5
:10306E00000E216F000E096F000E016F000E116F22
:10307E00000E026F000E0A6F000E126F03690B69CD
:10308E00136904690C691469080E246F0B0E020192
:10309E003D6F460E0D6F120005C50BF506C50CF5FE
:1030AE0003C509F504C50AF572EF18F061002CF49A
:1030BE00D9F4610030F4DAF4DF500D6E0B4A0C2AAD
:1030CE00610024F4D9F4610028F4DAF4610034F4D8
:1030DE00DFF4094A0A2A0706D8A00806072806E1DF
:1030EE000828D8A47DEF18F07FEF18F05DEF18F0E8
:1030FE0012000101018F040E45EC17F00009D8A44F
:10310E008BEF18F08DEF18F0ABEF18F0000E0101F9
:10311E004C6F260E4D6F000E4E6F000E4F6F600EF1
:10312E00006F970E016F100E026F6DEC1AF059ECD6
:10313E001AF063EC1AF002EC1AF0C5EC19F0C0ECC0
:10314E0017F0060E45EC17F012005C0EF66E350EFB
:10315E00F76E000EF86E09006100D4F35CF50900FD
:10316E006100D4F35DF501EE60F1190EEE6AE8062A
:10317E00FDE101EE36F1240EEE6AE806FDE10401F2
:10318E00080E5D6F000E5E6F000E5F6F000134EF74
:10319E001AF0000E03011F6F000E206F010E216F3B
:1031AE000B0E1D6FDC0E1C6FB1981C51600074FC71
:1031BE0005F5066A05C506F5056A05105A6E065030
:1031CE005B6EA1885E0E036E350E046E77EC1AF000
:1031DE00210E03011E6F1200BF92BF84C086000E27
:1031EE00046EC80E036E69EC19F0BF92BF94C096C0
:1031FE00000E046EC80E036E69EC19F0BF82BF9408
:10320E00C086000E046EC80E036E69EC19F0BF92F4
:10321E00BF94C0961200030E5018D8A419EF19F0DF
:10322E001BEF19F02EEF19F0C0B620EF19F023EFB7
:10323E0019F0010E24EF19F0000EFF0A036E03467B
:10324E0003460346C0500318F70B0318C06E120056
:10325E00B1985AC501F55BC502F580EC19F03E4AEE
:10326E003F2A3F5009E1050E3E5CD8A041EF19F010
:10327E0043EF19F04BEF19F0E8EC16F097EC19F05C
:10328E00000E3F6E000E3E6E1200030E5018D8A4B4
:10329E0053EF19F055EF19F068EF19F0C0B65AEF69
:1032AE0019F05DEF19F0010E5EEF19F0000EFF0A36
:1032BE00016E014601460146C0500118F70B011878
:1032CE00C06E120072EF19F0040E056E3E0EE82E5F
:1032DE00FED7052EFCD70306D8A00406032806E168
:1032EE000428D8A47DEF19F07FEF19F06BEF19F0D9
:1032FE00120003011EA586EF19F088EF19F091EF69
:10330E0019F01E9102501D6F610004F41CF31E8112
:10331E0096EF19F002501D6F610004F41CF31200B9
:10332E0005017B517C11D8B49FEF19F0A1EF19F074
:10333E00ADEF19F002D8ADEF19F00500FA6E7B5122
:10334E00FD6E7C51FE6EFF6AFA50120012000501EE
:10335E0079517A11D8B4B6EF19F0B8EF19F0C4EF6D
:10336E0019F002D8C4EF19F00500FA6E7951FD6E0E
:10337E007A51FE6EFF6AFA5012001200000E036EB2
:10338E000350020D5D0EF324D96E050EF420DA6E95
:10339E00000EDF6E032A0350D8B4D8EF19F0DAEF1F
:1033AE0019F0C7EF19F01200000E0001606F000E49
:1033BE00616F000E626F000E636F000E646F000E81
:1033CE00656F000E666F000E676F000E686F12005D
:1033DE004C0E03011B6F980E196F000E186FB19EE5
:1033EE00A18E600E036E350E046E7CEC1AF0800E0C
:1033FE0003011A6F1200010E0101946F000E956FFA
:10340E00000E966F000E976F9869070E996F000E5B
:10341E009A6F400E9B6F810E816F1200ACEC1AF00A
:10342E00C086DBEC19F025EC18F041EC1AF0D0EC6C
:10343E0018F0EFEC19F080EC18F01200046E045046
:10344E000C0D530EF324D96E010EF420DA6EDF50FC
:10345E00036E1F0E03160328120015EC1AF0A9ECCA
:10346E001AF0D68EF3EC18F057EC15F03BEF1AF07D
:10347E000DEF00F0700E0001AD6F000EAF6F000E7D
:10348E00B36F020EB16F000EB06F1200036E0350D9
:10349E000C0D540EF324D96E010EF420DA6EDF50AB
:1034AE00090B1200100E0101506F040E516F610EC8
:1034BE00526F050E536F1200180E01015C6F040E51
:1034CE005D6F600E5E6F050E5F6F1200010E0101E3
:1034DE00046F010E056F060E066F000E076F1200C9
:1034EE0003C57BF504C57CF5120003C579F504C54B
:1034FE007AF5120001010239E832070B120003C5FA
:10350E0042F504C543F5120003C544F504C545F55F
:10351E00120003C540F504C541F5120003C546F57A
:10352E0004C547F5120003C54CF504C54DF5120050
:10353E0003C54AF504C54BF5120003C548F504C58D
:10354E0049F51200000E4E6E1200D69A12000100BE
:10355E0012001200120012001200120012001200CD
:0A356E0012001200120012001200F9
:020000040020DA
:10000000FF0FFF0FFF0FFF0FFF0FFF0FFF0FFF0F80
:10001000FF0FFF0FFF0FFF0FFF0FFF0FFF0FFF0F70
:020000040030CA
:10000000FAEFF7DF9FFFFFFFFFFFFFFFFFFFFFFF9D
:10001000FFFFFFFFFFFFFFFFFFFFFFFFFFFFFFFFF0
:04002000FFFFFFFFE0
:00000001FF
