:020000040000FA
:040000000DEF00F010
:0400080043EF14F0BE
:06001800FF0086EF15F069
:0D2600000000010203040506070850010058
:10260E0001011DAF0DEF13F00FEF13F01DEF13F0DF
:10261E0002D81BEF13F00500FA6E1150FD6E12502A
:10262E00FE6EFF6AFA50120001011D9F1DAD22EFD2
:10263E0013F024EF13F032EF13F002D830EF13F053
:10264E000500FA6E0F50FD6E1050FE6EFF6AFA50C6
:10265E00120001011D9D1DAB37EF13F039EF13F082
:10266E0047EF13F002D845EF13F00500FA6E0D5048
:10267E00FD6E0E50FE6EFF6AFA50120001011D9B98
:10268E001CA74CEF13F04EEF13F05CEF13F002D8D3
:10269E005AEF13F00500FA6E0B50FD6E0C50FE6EE5
:1026AE00FF6AFA50120001011C971DA961EF13F089
:1026BE0063EF13F071EF13F002D86FEF13F0050014
:1026CE00FA6E0950FD6E0A50FE6EFF6AFA50120045
:1026DE0001011D991DA576EF13F078EF13F08DEF24
:1026EE0013F002D884EF13F00500FA6E0750FD6E5A
:1026FE000850FE6EFF6AFA501200010154A98AEFCB
:10270E0013F08CEF13F08DEF13F054991DA792EF89
:10271E0013F094EF13F0A9EF13F002D8A0EF13F01B
:10272E000500FA6E0550FD6E0650FE6EFF6AFA50F9
:10273E001200010160A7A6EF13F0A8EF13F0A9EFA6
:10274E0013F06097AE9C120086EC16F0D68EC096F3
:10275E00000E4A6E640E496EDEEC15F0C086000E59
:10276E004A6E640E496EDEEC15F0BF82BF94000E09
:10277E004A6E640E496EDEEC15F0BFB2C9EF13F06F
:10278E00CCEF13F0010ECDEF13F0000EFF0A4D6EDD
:10279E004D46BF504D18FD0B4D18BF6EBFB4DAEF4E
:1027AE0013F0DDEF13F0010EDEEF13F0000EFF0A53
:1027BE004D6E4D464D46BF504D18FB0B4D18BF6E1E
:1027CE00000E4A6E640E496EDEEC15F0BFB2F2EFEB
:1027DE0013F0F5EF13F0010EF6EF13F0000EFF0AF3
:1027EE004D6E4D46BF504D18FD0B4D18BF6EBFB40C
:1027FE0003EF14F006EF14F0010E07EF14F0000EC5
:10280E00FF0A4D6E4D464D46BF504D18FB0B4D18F1
:10281E00BF6E000E4A6E640E496EDEEC15F0BFB24E
:10282E001BEF14F01EEF14F0010E1FEF14F0000E4C
:10283E00FF0A4D6E4D46BF504D18FD0B4D18BF6E25
:10284E00BFB42CEF14F02FEF14F0010E30EF14F094
:10285E00000EFF0A4D6E4D464D46BF504D18FB0BF8
:10286E004D18BF6E000E4A6E640E496EDEEC15F00A
:10287E00AEEF13F00DEF00F09EAC48EF14F04AEF00
:10288E0014F055EF14F0AEAC4FEF14F051EF14F00E
:10289E0055EF14F007EC13F079EF14F0A1AE5AEFE8
:1028AE0014F05CEF14F067EF14F0B1AE61EF14F0BA
:1028BE0063EF14F067EF14F0DEEC14F079EF14F020
:1028CE00A1A86CEF14F06EEF14F079EF14F0B1A82C
:1028DE0073EF14F075EF14F079EF14F0C3EC15F0FC
:1028EE0079EF14F01100F60E496E2D0E4A6EE3ECE0
:1028FE0016F0F80E496E2D0E4A6EE8EC16F0FA0E32
:10290E00496E2D0E4A6EEDEC16F0F40E496E2D0E3C
:10291E004A6EDEEC16F0F00E496E2D0E4A6ED4ECB9
:10292E0016F0EE0E496E2D0E4A6ECFEC16F0F20E2C
:10293E00496E2D0E4A6ED9EC16F0AE9C000E0101BA
:10294E001C6F000E1D6F080E1E6FFC0E1F6F9E8CEF
:10295E001200000EBE6E000EBF6E000EC06E080E90
:10296E00CA6EC668E90EC76EE70EC86E040110691E
:10297E00F10E086F0069000E216F000E096F000E38
:10298E00016F000E116F000E026F000E0A6F000E27
:10299E00126F03690B69136904690C691469080ED7
:1029AE00246F0B0E02013D6F460E0D6F1200B19E8D
:1029BE00014A022A025009E1240E015CD8A0EAEF76
:1029CE0014F0ECEF14F0F2EF14F038EC16F0000EF9
:1029DE00026E000E016E1504D8A4F8EF14F0FAEF93
:1029EE0014F00AEF15F0142A230E146401EF15F0FB
:1029FE0003EF15F008EF15F0000E156E000E146EB5
:102A0E00C096A6EC15F012000101018F040E37ECF2
:102A1E0015F00009D8A416EF15F018EF15F036EFE3
:102A2E0015F0000E01014C6F260E4D6F000E4E6F0D
:102A3E00000E4F6FE00E006F970E016F100E026FBB
:102A4E00B6EC16F0A2EC16F0ACEC16F0F4EC16F0B8
:102A5E000CEC16F07AEC14F0060E37EC15F01200B2
:102A6E004B6E000E4A6ECAEC16F0496E040E4918F3
:102A7E00D8B444EF15F046EF15F057EF15F04B04B0
:102A8E00D8B44CEF15F04EEF15F057EF15F0040ECD
:102A9E004B18D8A455EF15F057EF15F05FEF15F062
:102AAE00010103514B18F80B4B18036F61EF15F032
:102ABE00010E4A6E4A501200000E03011F6F000EE7
:102ACE00206F010E216F0B0E1D6FDC0E1C6FB19867
:102ADE001C51600074FC4BF54C6A4BC54CF54B6AAF
:102AEE004B10526E4C50536EA188EA0E496E2D0E4D
:102AFE004A6EC0EC16F0210E03011E6F1200EA0E94
:102B0E00F66E2C0EF76E000EF86E01EE25F110EE3D
:102B1E0022F00900F5C4EEF4E550E150FAE101EEC1
:102B2E0001F1240EEE6AE806FDE10401080E5D6F68
:102B3E00000E5E6F000E5F6F0001ABEF13F0030E21
:102B4E001318D8A4ADEF15F0AFEF15F0C2EF15F0D6
:102B5E00C0B6B4EF15F0B7EF15F0010EB8EF15F0E3
:102B6E00000EFF0A476E474647464746C050471875
:102B7E00F70B4718C06E1200B19852C547F553C5F2
:102B8E0048F5F5EC15F0034A042A045009E1050E48
:102B9E00035CD8A0D5EF15F0D7EF15F0DDEF15F0EB
:102BAE0022EC16F0000E046E000E036E1200E7EF1C
:102BBE0015F0040E4B6E3E0EE82EFED74B2EFCD7B4
:102BCE004906D8A04A06492806E14A28D8A4F2EFB9
:102BDE0015F0F4EF15F0E0EF15F0120003011EA54D
:102BEE00FBEF15F0FDEF15F006EF16F01E914850B5
:102BFE001D6F61001CF51CF31E810BEF16F0485083
:102C0E001D6F61001CF51CF31200000E496E495039
:102C1E00020D260EF324D96E050EF420DA6E000E88
:102C2E00DF6E492A4950D8B41FEF16F021EF16F087
:102C3E000EEF16F0120050505110D8B429EF16F0C6
:102C4E002BEF16F037EF16F002D837EF16F005001F
:102C5E00FA6E5050FD6E5150FE6EFF6AFA50120021
:102C6E0012004E504F10D8B43FEF16F041EF16F051
:102C7E004DEF16F002D84DEF16F00500FA6E4E50DD
:102C8E00FD6E4F50FE6EFF6AFA5012001200000EDB
:102C9E000001606F000E616F000E626F000E636FB9
:102CAE00000E646F000E656F000E666F000E676F8C
:102CBE00000E686F12004C0E03011B6F980E196FF9
:102CCE00000E186FB19EA18EEC0E496E2D0E4A6E3F
:102CDE00C5EC16F0800E03011A6F1200010042556A
:102CEE004646455243414E000000000000000000E1
:102CFE000000000000000000000000000000F2ECE8
:102D0E0016F0C0864EEC16F0B0EC14F096EC16F001
:102D1E0063EC15F062EC16F00BEC15F01200700E71
:102D2E000001AD6F000EAF6F000EB36F020EB16FEC
:102D3E00000EB06F1200100E0101506F040E516F95
:102D4E00600E526F050E536F1200180E01015C6F6C
:102D5E00040E5D6F600E5E6F050E5F6F1200010E4A
:102D6E000101046F010E056F060E066F000E076F50
:102D7E00120049C550F54AC551F5120049C54EF528
:102D8E004AC54FF5120001010239E832070B120055
:102D9E0049C507F54AC508F5120049C509F54AC5E2
:102DAE000AF5120049C505F54AC506F5120049C5D2
:102DBE000BF54AC50CF5120049C511F54AC512F5B9
:102DCE00120049C50FF54AC510F5120049C50DF59B
:102DDE004AC50EF51200D69A120012001200120009
:0E2DEE00120012001200120012001200120059
:020000040020DA
:10000000FF0FFF0FFF0FFF0FFF0FFF0FFF0FFF0F80
:10001000FF0FFF0FFF0FFF0FFF0FFF0FFF0FFF0F70
:020000040030CA
:10000000FAEFF7DF9FFFFFFFFFFFFFFFFFFFFFFF9D
:10001000FFFFFFFFFFFFFFFFFFFFFFFFFFFFFFFFF0
:04002000FFFFFFFFE0
:00000001FF
