:040000000DEF00F010
:0400080079EF16F086
:06001800FF009FEF18F04D
:0D2600000000010203040506070850010058
:10260E0020EE04F00C50D9260D50DA22DF50166E53
:10261E0016C510F520EE04F00E50D9260F50DA2212
:10262E0010461046DF501018C30B1018DF6E16B888
:10263E0023EF13F027EF13F0106A102A28EF13F090
:10264E00106A20EE04F00E50D9260F50DA22DF5019
:10265E001018FE0B1018DF6E16BA38EF13F03CEFA1
:10266E0013F0106A102A3DEF13F0106A20EE04F0FA
:10267E000E50D9260F50DA221046DF501018FD0BDF
:10268E001018DF6E16BC4EEF13F052EF13F0106AF7
:10269E00102A53EF13F0106A20EE04F00E50D926D4
:1026AE000F50DA2210321032DF5010187F0B101834
:1026BE00DF6E16BE65EF13F069EF13F0106A102A85
:1026CE006AEF13F0106A20EE04F00E50D9260F5068
:1026DE00DA22103A10461046DF501018BF0B1018B1
:1026EE00DF6E20EE01F00C50D9260D50DA22DF50AD
:1026FE00106E070E10161050126E136A146A156AB9
:10270E0014C515F513C514F512C513F5126A61003B
:10271E0030F4D9F4610034F4DAF4DF50106E105056
:10272E00121220EE04F00E50D9260F50DA22DFA03E
:10273E00A3EF13F0A5EF13F0E6EF13F0050ED8900C
:10274E001236133614361536E82EA6EF13F020EE99
:10275E0003F00C50D9260D50DA22DF50106E1F0EEA
:10276E0010161050121214C515F513C514F512C516
:10277E0013F5126A20EE02F00C50D9260D50DA2213
:10278E00DF50106E10501212050ED89012361336FE
:10279E0014361536E82ECCEF13F020EE01F00C5067
:1027AE00D9260D50DA22DF50106ED8901032D89004
:1027BE001032D89010321F0E1016105012126100E7
:1027CE0038F4D9F461003CF4DAF4610048F4DEF434
:1027DE0061004CF4DEF4610050F4DEF4610054F458
:1027EE00DEF46E0E016E050E026E080E0C24036EE4
:1027FE00000E0D20046E20EE04F00E50D9260F5060
:10280E00DA22DF30E8320F0B106E116A010E10243F
:10281E00F66E260E1120F76EF86A000EF8220800EA
:10282E00F550056E066A1DEC18F020EE05F00E5000
:10283E00D9260F50DA226E0EDE6E050EDD6E1200F8
:10284E0001011DAF2DEF14F02FEF14F03EEF14F039
:10285E0002D83CEF14F00500FA6E05016C51FD6EC6
:10286E006D51FE6EFF6AFA50120001011D9F1DADE3
:10287E0043EF14F045EF14F054EF14F002D852EF7A
:10288E0014F00500FA6E05016A51FD6E6B51FE6E75
:10289E00FF6AFA50120001011D9D1DAB59EF14F095
:1028AE005BEF14F06AEF14F002D868EF14F0050035
:1028BE00FA6E05016851FD6E6951FE6EFF6AFA509F
:1028CE00120001011D9B1CA76FEF14F071EF14F0A5
:1028DE0080EF14F002D87EEF14F00500FA6E0501B9
:1028EE006651FD6E6751FE6EFF6AFA5012000101CD
:1028FE001C971DA985EF14F087EF14F096EF14F0D6
:10290E0002D894EF14F00500FA6E05016451FD6EC5
:10291E006551FE6EFF6AFA50120001011D991DA548
:10292E009BEF14F09DEF14F0B3EF14F002D8AAEF62
:10293E0014F00500FA6E05016251FD6E6351FE6ED4
:10294E00FF6AFA501200010154A9B0EF14F0B2EF71
:10295E0014F0B3EF14F054991DA7B8EF14F0BAEFBA
:10296E0014F0D0EF14F002D8C7EF14F00500FA6E91
:10297E0005016051FD6E6151FE6EFF6AFA50120044
:10298E00010160A7CDEF14F0CFEF14F0D0EF14F0EB
:10299E006097AE9C1200206E000E1C6E17503AEC23
:1029AE001AF01F6E1FA0DEEF14F0E0EF14F046EFEA
:1029BE0015F017500C0D580EF324D96E010EF4209D
:1029CE00DA6E610078F31DF5610074F31EF51D508B
:1029DE001E10D8B4F5EF14F0F7EF14F046EF15F023
:1029EE001DC50CF51EC50DF518C50EF519C50FF54F
:1029FE0007EC13F017500C0D510EF324D96E010E87
:102A0E00F420DA6E000EDB802050020D7F0EF324D0
:102A1E00D96E050EF420DA6EDF2A17501FEC1AF06D
:102A2E001A6E2050020D7F0EF324D96E050EF4207F
:102A3E00DA6E1A50DE5CD8A027EF15F029EF15F0EC
:102A4E0033EF15F02050020D7F0EF324D96E050ED4
:102A5E00F420DA6E000EDF6E1FA638EF15F03AEF97
:102A6E0015F044EF15F017500C0D540EF324D96EDB
:102A7E00010EF420DA6EF70EDF16010E1C6E1C50DE
:102A8E00120014EC16F00009D8B450EF15F052EF06
:102A9E0015F0AEEF15F04D0E216E050E226E76EC92
:102AAE0018F0E806D8A45EEF15F060EF15F0AEEF63
:102ABE0015F000F04DC529F54EC52AF54FC52BF57D
:102ACE0050C52CF5610048F5D9F461004CF5DAF4E7
:102ADE00DF502D6E8AEF15F042C541F52D50030BD8
:102AEE00426E42504118D8B47FEF15F081EF15F0C9
:102AFE00AEEF15F0DAEC16F026EC19F0AEEF15F09D
:102B0E0000F0AEEF15F029C525F52AC526F52BC523
:102B1E0027F52CC528F52850000AD8B4A7EF15F0D4
:102B2E0087EF15F02650050AD8B4A0EF15F087EF01
:102B3E0015F02550000AD8B473EF15F087EF15F095
:102B4E002750000AD8B499EF15F087EF15F0120050
:102B5E003A50016E3B50026E3A4A3B2A090E015C16
:102B6E00070E0258D8A0BEEF15F0C0EF15F0C8EF53
:102B7E0015F0A6EC1AF0000E3B6E000E3A6E13EF37
:102B8E0016F03850016E3950026E384A392A850EC9
:102B9E00015C030E0258D8A0D7EF15F0D9EF15F04F
:102BAE00E1EF15F0A8EC1AF0000E396E000E386E3B
:102BBE0013EF16F03650016E3750026E364A372A32
:102BCE00025009E13D0E015CD8A0F0EF15F0F2EFD6
:102BDE0015F0FAEF15F0A7EC1AF0000E376E000E96
:102BEE00366E13EF16F03450016E3550026E344AC5
:102BFE00352A025009E1020E015CD8A009EF16F049
:102C0E000BEF16F013EF16F0A5EC1AF0000E356E62
:102C1E00000E346E13EF16F01200000E036E000E4F
:102C2E000A6E0A50020D7E0EF324D96E050EF420A4
:102C3E00DA6EDF50066E06503AEC1AF0056E05A0FD
:102C4E002BEF16F02DEF16F06EEF16F006501FEC70
:102C5E001AF0076E05A636EF16F038EF16F03CEFB9
:102C6E0016F007C504F56CEF16F006500C0D550E58
:102C7E00F324D96E010EF420DA6EDF501F0B086EAE
:102C8E000A50020D7F0EF324D96E050EF420DA6E73
:102C9E00DF50096E0950085CD8B058EF16F05AEFA5
:102CAE0016F060EF16F00950085C0724046E6CEF06
:102CBE0016F00850095CD8B067EF16F069EF16F001
:102CCE0038EF16F00950085C046E045003260A2AE9
:102CDE000A50D8B475EF16F077EF16F018EF16F01D
:102CEE00035012006100D8F32EF56100DCF32FF5CE
:102CFE006100E0F330F56100D4F331F59EAC8AEF5C
:102D0E0016F08CEF16F097EF16F0AEAC91EF16F0C2
:102D1E0093EF16F097EF16F027EC14F0CDEF16F0B8
:102D2E00A2A89CEF16F09EEF16F0A9EF16F0B2A82F
:102D3E00A3EF16F0A5EF16F0A9EF16F05DEC19F063
:102D4E00CDEF16F0A1AEAEEF16F0B0EF16F0BBEF72
:102D5E0016F0B1AEB5EF16F0B7EF16F0BBEF16F0FA
:102D6E00C0EC17F0CDEF16F0A1A8C0EF16F0C2EF31
:102D7E0016F0CDEF16F0B1A8C7EF16F0C9EF16F0AA
:102D8E00CDEF16F009EC19F0CDEF16F06100C4F49A
:102D9E00F5F46100C0F4F8F46100BCF4F7F46100DE
:102DAE00B8F4F6F4110015EF17F0BF92BF9436EF9A
:102DBE0017F0BF94BF8236EF17F0BF94BFB2EAEFA1
:102DCE0016F0EDEF16F0010EEEEF16F0000EFF0A04
:102DDE00016E0146BF500118FD0B0118BF6E36EF94
:102DEE0017F0BF92BFB4FEEF16F001EF17F0010E11
:102DFE0002EF17F0000EFF0A016E01460146BF50AA
:102E0E000118FB0B0118BF6E36EF17F0BF92BF848F
:102E1E0036EF17F0BF92BF9436EF17F04250016EA7
:102E2E00026A0250000AD8B41FEF17F011EF17F024
:102E3E000150000AD8B4DCEF16F0010AD8B4E0EF66
:102E4E0016F0030AD8B4E4EF16F0010AD8B4F8EF7E
:102E5E0016F0070AD8B40DEF17F011EF17F01200A5
:102E6E0005017C6F000E05017B6F74EC1AF00501F5
:102E7E007A6F040E7A19D8B447EF17F049EF17F0AE
:102E8E005AEF17F07C05D8B44FEF17F051EF17F04B
:102E9E005AEF17F0040E7C19D8A458EF17F05AEF1A
:102EAE0017F07FEF17F00101035105017C19F80BA4
:102EBE007C190101036F71EF17F001011DA96AEF73
:102ECE0017F06CEF17F071EF17F0020E05017B6F24
:102EDE0081EF17F00239E832070B05017C19D8A4EF
:102EEE007BEF17F07DEF17F064EF17F081EF17F01F
:102EFE00010E7B6F7B5112005C0E05017A6F350E51
:102F0E007B6F8DEC1AF05E0E05017A6F350E7B6FBE
:102F1E0092EC1AF0600E05017A6F350E7B6F97EC0E
:102F2E001AF05A0E05017A6F350E7B6F88EC1AF087
:102F3E00560E05017A6F350E7B6F7EEC1AF0540E2D
:102F4E0005017A6F350E7B6F79EC1AF0580E05017C
:102F5E007A6F350E7B6F83EC1AF0AE9C000E01017A
:102F6E001C6F000E1D6F0A0E1E6FFC0E1F6F9E8CC7
:102F7E001200B19E324A332A335009E1240E325CDC
:102F8E00D8A0CCEF17F0CEEF17F0D6EF17F0AFECCE
:102F9E0015F0BBEC19F0000E336E000E326E4404C9
:102FAE00D8A4DCEF17F0DEEF17F0EEEF17F0432AA0
:102FBE00230E4364E5EF17F0E7EF17F0ECEF17F091
:102FCE00000E446E000E436EC09626EC19F01200F1
:102FDE00000EBE6E000EBF6E000EC06E080ECA6EE4
:102FEE00C668E90EC76EE70EC86E04011069F10ED1
:102FFE00086F0069000E216F000E096F000E016F41
:10300E00000E116F000E026F000E0A6F000E126F8F
:10301E0003690B69136904690C691469080E246F3E
:10302E000B0E02013D6F460E0D6F120003C509F522
:10303E0004C50AF501C507F502C508F53CEF18F001
:10304E00610024F4D9F4610028F4DAF4DF500B6E39
:10305E00094A0A2A61001CF4D9F4610020F4DAF45A
:10306E0061002CF4DFF4074A082A0506D8A00606EC
:10307E00052806E10628D8A447EF18F049EF18F006
:10308E0027EF18F012000101018F040E37EC17F034
:10309E000009D8A455EF18F057EF18F075EF18F097
:1030AE00000E01014C6F260E4D6F000E4E6F000E7E
:1030BE004F6F600E006F970E016F100E026F5BEC7C
:1030CE001AF051EC1AF0D2EC19F0A2EC1AF076ECE0
:1030DE0019F083EC17F0060E37EC17F01200000E05
:1030EE00246E2450020D7E0EF324D96E050EF420AC
:1030FE00DA6EDF50176E21C518F522C519F524506A
:10310E00D2EC14F0236E2350D8B490EF18F092EF57
:10311E0018F094EF18F09DEF18F0242A2450D8B42C
:10312E009BEF18F09DEF18F078EF18F02350120077
:10313E00420EF66E350EF76E000EF86E0900610047
:10314E00D4F37EF509006100D4F37FF501EE60F152
:10315E00160EEE6AE806FDE101EE32F1290EEE6A78
:10316E00E806FDE10401080E5D6F000E5E6F000EB5
:10317E005F6F000146EF1AF0000E03011F6F000E85
:10318E00206F010E216F0B0E1D6FDC0E1C6FB198A0
:10319E001C51600074FC7CF505017D6B7CC57DF5D2
:1031AE007C6B7C115B6E7D515C6EA188460E7A6FD6
:1031BE00350E7B6F65EC1AF0210E03011E6F1200A7
:1031CE00BF92BF84C086010E05017B6FF40E7A6F2D
:1031DE0043EC19F0BF92BF94C096010E05017B6FB0
:1031EE00F40E7A6F43EC19F0BF82BF94C086010EC5
:1031FE0005017B6FF40E7A6F43EC19F0BF92BF940A
:10320E00C0961200B1985BC501F55CC502F58DEC58
:10321E0019F03C4A3D2A3D5009E1050E3C5CD8A010
:10322E001BEF19F01DEF19F025EF19F0DAEC16F07F
:10323E00A4EC19F0000E3D6E000E3C6E1200030E53
:10324E004218D8A42DEF19F02FEF19F042EF19F014
:10325E00C0B634EF19F037EF19F0010E38EF19F050
:10326E00000EFF0A016E014601460146C0500118CC
:10327E00F70B0118C06E12004EEF19F0040E050187
:10328E007C6F3D0EE82EFED77C2FFCD700D00501BB
:10329E007A07D8A07B077A2906E17B29D8A45AEFB2
:1032AE0019F05CEF19F045EF19F01200010160A161
:1032BE0063EF19F065EF19F075EF19F002D871EFA1
:1032CE0019F00500FA6E3E50FD6E3F50FE6EFF6A1D
:1032DE00FA50120048EC15F0010160911200000E38
:1032EE0005017A6F7A51020D7F0EF324D96E050E09
:1032FE00F420DA6E000EDF6E7A2B7A51D8B48AEF94
:10330E0019F08CEF19F079EF19F0120003011EA5D8
:10331E0093EF19F095EF19F09EEF19F01E910250F0
:10332E001D6F610004F41CF31E81A3EF19F002500F
:10333E001D6F610004F41CF3120005017851791120
:10334E00D8B4ACEF19F0AEEF19F0BAEF19F002D80D
:10335E00BAEF19F00500FA6E7851FD6E7951FE6ED6
:10336E00FF6AFA5012001200050176517711D8B497
:10337E00C3EF19F0C5EF19F0D1EF19F002D8D1EF64
:10338E0019F00500FA6E7651FD6E7751FE6EFF6AEA
:10339E00FA5012001200190E01015C6F040E5D6FDF
:1033AE00600E5E6F050E5F6F520E05017A6F350E61
:1033BE007B6F6FEC1AF001011E83B298A288120087
:1033CE004C0E03011B6F980E196F000E186FB19EF5
:1033DE00A18E480E05017A6F350E7B6F6AEC1AF0DE
:1033EE00800E03011A6F1200000E0001606F000EB6
:1033FE00616F000E626F000E636F000E646F000E41
:10340E00656F000E666F000E676F000E686F12001C
:10341E009FEC1AF0C086FBEC19F0EFEC17F02EECD7
:10342E001AF0C3EC18F0E7EC19F04AEC18F01200A1
:10343E00026E02500C0D530EF324D96E010EF420C1
:10344E00DA6EDF50016E1F0E011601281200700E8B
:10345E000001AD6F000EAF6F000EB36F020EB16FB5
:10346E00000EB06F1200016E01500C0D540EF324BD
:10347E00D96E010EF420DA6EDF50090B12000FEC3C
:10348E001AF09CEC1AF0D68EE7EC18F04DEF1AF00D
:10349E000DEF00F0100E0101506F040E516F600E13
:1034AE00526F050E536F1200010E0101046F010ED3
:1034BE00056F060E066F000E076F12007AC578F5BF
:1034CE007BC579F512007AC576F57BC577F51200C6
:1034DE007AC53EF57BC53FF5120001010239E8328F
:1034EE00070B12007AC562F57BC563F512007AC52B
:1034FE0064F57BC565F512007AC560F57BC561F58F
:10350E0012007AC566F57BC567F512007AC56CF5B3
:10351E007BC56DF512007AC56AF57BC56BF5120099
:10352E007AC568F57BC569F51200000E406E120073
:10353E00D69A1200010012001200120012001200A0
:10354E0012001200120012001200120012001200DD
:04355E001200120045
:020000040020DA
:10000000FF0FFF0FFF0FFF0FFF0FFF0FFF0FFF0F80
:10001000FF0FFF0FFF0FFF0FFF0FFF0FFF0FFF0F70
:020000040030CA
:10000000FAEFF7DF9FFFFFFFFFFFFFFFFFFFFFFF9D
:10001000FFFFFFFFFFFFFFFFFFFFFFFFFFFFFFFFF0
:04002000FFFFFFFFE0
:00000001FF
