:040000000DEF00F010
:040008003EEF14F0C3
:06001800FF0055EF15F09A
:0D2600000000010203040506070850010058
:10260E0001011DAF0DEF13F00FEF13F01DEF13F0DF
:10261E0002D81BEF13F00500FA6E1150FD6E12502A
:10262E00FE6EFF6AFA50120001011D9F1DAD22EFD2
:10263E0013F024EF13F032EF13F002D830EF13F053
:10264E000500FA6E0F50FD6E1050FE6EFF6AFA50C6
:10265E00120001011D9D1DAB37EF13F039EF13F082
:10266E0047EF13F002D845EF13F00500FA6E0D5048
:10267E00FD6E0E50FE6EFF6AFA50120001011D9B98
:10268E001CA74CEF13F04EEF13F05CEF13F002D8D3
:10269E005AEF13F00500FA6E0B50FD6E0C50FE6EE5
:1026AE00FF6AFA50120001011C971DA961EF13F089
:1026BE0063EF13F071EF13F002D86FEF13F0050014
:1026CE00FA6E0950FD6E0A50FE6EFF6AFA50120045
:1026DE0001011D991DA576EF13F078EF13F095EF1C
:1026EE0013F002D884EF13F00500FA6E0750FD6E5A
:1026FE000850FE6EFF6AFA501200010154A98AEFCB
:10270E0013F08CEF13F08DEF13F0549960A992EF44
:10271E0013F094EF13F095EF13F060991DA79AEF55
:10272E0013F09CEF13F0B1EF13F002D8A8EF13F0F3
:10273E000500FA6E0550FD6E0650FE6EFF6AFA50E9
:10274E00120001016CA7AEEF13F0B0EF13F0B1EF72
:10275E0013F06C97AE9C120067EC16F0D68E000E3E
:10276E00136E130E506E880E4F6EADEC15F0010EFB
:10277E00136E130E506E880E4F6EADEC15F0020EEA
:10278E00136E270E506E100E4F6EADEC15F0040E3C
:10279E00136E130E506E880E4F6EADEC15F0010ECB
:1027AE00136E0B0E506EB80E4F6EADEC15F0020E92
:1027BE00136E130E506E880E4F6EADEC15F0030EA9
:1027CE00136E010E156E000E146E2E0E506EE00E70
:1027DE004F6EADEC15F0000E136E000E156EB6EFCB
:1027EE0013F00DEF00F0516E000E506EA0EC16F0CF
:1027FE004F6E040E4F18D8B407EF14F009EF14F013
:10280E001AEF14F05104D8B40FEF14F011EF14F0C6
:10281E001AEF14F0040E5118D8A418EF14F01AEF92
:10282E0014F03AEF14F0010103515118F80B51183E
:10283E00036F2DEF14F01DA927EF14F029EF14F0FC
:10284E002DEF14F0020E506E3CEF14F00239E83208
:10285E00070B5118D8A436EF14F038EF14F022EF0E
:10286E0014F03CEF14F0010E506E505012009EAC5E
:10287E0043EF14F045EF14F050EF14F0AEAC4AEF06
:10288E0014F04CEF14F050EF14F007EC13F074EF5B
:10289E0014F0A1AE55EF14F057EF14F062EF14F0F0
:1028AE00B1AE5CEF14F05EEF14F062EF14F0D9EC01
:1028BE0014F074EF14F0A1A867EF14F069EF14F0A0
:1028CE0074EF14F0B1A86EEF14F070EF14F074EF13
:1028DE0014F092EC15F074EF14F01100A20E4F6E7E
:1028EE002D0E506EB9EC16F0A40E4F6E2D0E506ECE
:1028FE00BEEC16F0A60E4F6E2D0E506EC3EC16F0FB
:10290E00A00E4F6E2D0E506EB4EC16F09C0E4F6E48
:10291E002D0E506EAAEC16F09A0E4F6E2D0E506EB6
:10292E00A5EC16F09E0E4F6E2D0E506EAFEC16F0FF
:10293E00AE9C000E01011C6F000E1D6F080E1E6F67
:10294E00FC0E1F6F9E8C1200000EBE6E000EBF6E30
:10295E00000EC06E080ECA6EC668E90EC76EE70E90
:10296E00C86E04011069F70E086F0069000E216F22
:10297E00000E096F000E016F000E116F000E026F38
:10298E00000E0A6F000E126F03690B69136904695A
:10299E000C691469080E246F0B0E02013D6F460E72
:1029AE000D6F1200B19E014A022A025009E1240E57
:1029BE00015CD8A0E5EF14F0E7EF14F0EDEF14F0A2
:1029CE0007EC16F0000E026E000E016E1504D8A470
:1029DE00F3EF14F0F5EF14F005EF15F0142A230EB3
:1029EE001464FCEF14F0FEEF14F003EF15F0000E7C
:1029FE00156E000E146EC09675EC15F012000101E6
:102A0E00018F040EFAEC13F00009D8A411EF15F0A3
:102A1E0013EF15F031EF15F0000E01014C6F380E6B
:102A2E004D6F000E4E6F000E4F6FE00E006F970E43
:102A3E00016F100E026F8CEC16F044EC16F082EC67
:102A4E0016F0CAEC16F0DBEC15F075EC14F0060E71
:102A5E00FAEC13F01200000E03011F6F000E206F30
:102A6E00010E216F0B0E1D6FDC0E1C6FB1981C51E9
:102A7E00600074FC51F5526A51C552F5516A5110FD
:102A8E004B6E52504C6EA188960E4F6E2D0E506EA0
:102A9E0096EC16F0210E03011E6F1200AC0EF66EB0
:102AAE002C0EF76E000EF86E01EE25F110EE22F0F0
:102ABE000900F5C4EEF4E550E150FAE101EE01F142
:102ACE00240EEE6AE806FDE10401080E5D6F000EAD
:102ADE005E6F000E5F6F0001B3EF13F0030E13185D
:102AEE00D8A47CEF15F07EEF15F091EF15F0C0B67F
:102AFE0083EF15F086EF15F0010E87EF15F0000E3F
:102B0E00FF0A4D6E4D464D464D46C0504D18F70BC3
:102B1E004D18C06E1200B1984BC54DF54CC54EF513
:102B2E00C4EC15F0034A042A045009E1050E035CB7
:102B3E00D8A0A4EF15F0A6EF15F0ACEF15F0F1EC60
:102B4E0015F0000E046E000E036E1200B6EF15F0B7
:102B5E00040E516E3E0EE82EFED7512EFCD74F06B8
:102B6E00D8A050064F2806E15028D8A4C1EF15F082
:102B7E00C3EF15F0AFEF15F0120003011EA5CAEF5B
:102B8E0015F0CCEF15F0D5EF15F01E914E501D6FD0
:102B9E00610034F51CF31E81DAEF15F04E501D6FF7
:102BAE00610034F51CF31200000E4F6E4F50020DF3
:102BBE00260EF324D96E050EF420DA6E000EDF6EAB
:102BCE004F2A4F50D8B4EEEF15F0F0EF15F0DDEFC1
:102BDE0015F0120049504A10D8B4F8EF15F0FAEF7C
:102BEE0015F006EF16F002D806EF16F00500FA6E95
:102BFE004950FD6E4A50FE6EFF6AFA5012001200E6
:102C0E0047504810D8B40EEF16F010EF16F01CEF28
:102C1E0016F002D81CEF16F00500FA6E4750FD6E46
:102C2E004850FE6EFF6AFA5012001200000E0001AC
:102C3E00606F000E616F000E626F000E636F000E0C
:102C4E00646F000E656F000E666F000E676F000EEC
:102C5E00686F12004C0E03011B6F980E196F000E59
:102C6E00186FB19EA18E980E4F6E2D0E506E9BEC6E
:102C7E0016F0800E03011A6F1200100E0101506F34
:102C8E00040E516F600E526F050E536F900E5C6FF7
:102C9E00040E5D6F600E5E6F050E5F6F1200020018
:102CAE0042554646455243414E000000000000008A
:102CBE000000000000000000000000000000000006
:102CCE00C8EC16F01DEC16F0ABEC14F076EC16F02A
:102CDE0032EC15F031EC16F006EC15F01200700E19
:102CEE000001AD6F000EAF6F000EB36F020EB16F2D
:102CFE00000EB06F1200080E0101686F040E696FAE
:102D0E00600E6A6F050E6B6F1200010E0101046FEB
:102D1E00010E056F060E066F000E076F12004FC5EF
:102D2E0049F550C54AF512004FC547F550C548F54F
:102D3E00120001010239E832070B12004FC507F5E8
:102D4E0050C508F512004FC509F550C50AF5120019
:102D5E004FC505F550C506F512004FC50BF550C50C
:102D6E000CF512004FC511F550C512F512004FC5E6
:102D7E000FF550C510F512004FC50DF550C50EF5E7
:102D8E001200D69A12001200120012001200120047
:0A2D9E0012001200120012001200D1
:020000040020DA
:10000000FF0FFF0FFF0FFF0FFF0FFF0FFF0FFF0F80
:10001000FF0FFF0FFF0FFF0FFF0FFF0FFF0FFF0F70
:020000040030CA
:10000000FAFFF7DF9FFFFFFFFFFFFFFFFFFFFFFF8D
:10001000FFFFFFFFFFFFFFFFFFFFFFFFFFFFFFFFF0
:04002000FFFFFFFFE0
:00000001FF
