:020000040000FA
:040000000DEF00F010
:04000800B3EF13F04F
:06001800FF00F6EF14F0FA
:0D2600000000010203040506070850010058
:10260E0001011DAF0DEF13F00FEF13F01DEF13F0DF
:10261E0002D81BEF13F00500FA6E1150FD6E12502A
:10262E00FE6EFF6AFA50120001011D9F1DAD22EFD2
:10263E0013F024EF13F032EF13F002D830EF13F053
:10264E000500FA6E0F50FD6E1050FE6EFF6AFA50C6
:10265E00120001011D9D1DAB37EF13F039EF13F082
:10266E0047EF13F002D845EF13F00500FA6E0D5048
:10267E00FD6E0E50FE6EFF6AFA50120001011D9B98
:10268E001CA74CEF13F04EEF13F05CEF13F002D8D3
:10269E005AEF13F00500FA6E0B50FD6E0C50FE6EE5
:1026AE00FF6AFA50120001011C971DA961EF13F089
:1026BE0063EF13F071EF13F002D86FEF13F0050014
:1026CE00FA6E0950FD6E0A50FE6EFF6AFA50120045
:1026DE0001011D991DA576EF13F078EF13F095EF1C
:1026EE0013F002D884EF13F00500FA6E0750FD6E5A
:1026FE000850FE6EFF6AFA501200010154A98AEFCB
:10270E0013F08CEF13F08DEF13F0549960A992EF44
:10271E0013F094EF13F095EF13F060991DA79AEF55
:10272E0013F09CEF13F0B1EF13F002D8A8EF13F0F3
:10273E000500FA6E0550FD6E0650FE6EFF6AFA50E9
:10274E00120001016CA7AEEF13F0B0EF13F0B1EF72
:10275E0013F06C97AE9C12009EACB8EF13F0BAEF6C
:10276E0013F0C5EF13F0AEACBFEF13F0C1EF13F0E3
:10277E00C5EF13F007EC13F0E9EF13F0A1AECAEFBB
:10278E0013F0CCEF13F0D7EF13F0B1AED1EF13F08F
:10279E00D3EF13F0D7EF13F04EEC14F0E9EF13F084
:1027AE00A1A8DCEF13F0DEEF13F0E9EF13F0B1A800
:1027BE00E3EF13F0E5EF13F0E9EF13F033EC15F060
:1027CE00E9EF13F01100020E4F6E2D0E506E69ECF4
:1027DE0016F0040E4F6E2D0E506E6EEC16F0060EA9
:1027EE004F6E2D0E506E73EC16F0000E4F6E2D0EBA
:1027FE00506E64EC16F0FC0E4F6E2C0E506E5AECB2
:10280E0016F0FA0E4F6E2C0E506E55EC16F0FE0EA4
:10281E004F6E2C0E506E5FEC16F0AE9C000E01014A
:10282E001C6F000E1D6F080E1E6FFC0E1F6F9E8C10
:10283E001200000EBE6E000EBF6E000EC06E080EB1
:10284E00CA6EC668E90EC76EE70EC86E040110693F
:10285E00F10E086F0069000E216F000E096F000E59
:10286E00016F000E116F000E026F000E0A6F000E48
:10287E00126F03690B69136904690C691469080EF8
:10288E00246F0B0E02013D6F460E0D6F1200B19EAE
:10289E00014A022A025009E1240E015CD8A05AEF27
:1028AE0014F05CEF14F062EF14F0A8EC15F0000ECB
:1028BE00026E000E016E1504D8A468EF14F06AEFD4
:1028CE0014F07AEF14F0142A230E146471EF14F03E
:1028DE0073EF14F078EF14F0000E156E000E146EF8
:1028EE00C09616EC15F012000101018F040EA7EC34
:1028FE0014F00009D8A486EF14F088EF14F0A6EFB8
:10290E0014F0000E01014C6F380E4D6F000E4E6F1D
:10291E00000E4F6FE00E006F970E016F100E026FDC
:10292E003CEC16F0E5EC15F032EC16F07AEC16F005
:10293E007CEC15F0EAEC13F0060EA7EC14F0120086
:10294E00516E000E506E50EC16F04F6E040E4F1876
:10295E00D8B4B4EF14F0B6EF14F0C7EF14F051047E
:10296E00D8B4BCEF14F0BEEF14F0C7EF14F0040EA1
:10297E005118D8A4C5EF14F0C7EF14F0CFEF14F030
:10298E00010103515118F80B5118036FD1EF14F0D8
:10299E00010E506E50501200000E03011F6F000EFC
:1029AE00206F010E216F0B0E1D6FDC0E1C6FB19888
:1029BE001C51600074FC51F5526A51C552F5516AB2
:1029CE0051104B6E52504C6EA188F60E4F6E2C0E5F
:1029DE00506E46EC16F0210E03011E6F1200EE0E25
:1029EE00F66E2B0EF76E000EF86E01EE25F110EE60
:1029FE0022F00900F5C4EEF4E550E150FAE101EEE3
:102A0E0001F1240EEE6AE806FDE10401080E5D6F89
:102A1E00000E5E6F000E5F6F000108EF16F0030EE2
:102A2E001318D8A41DEF15F01FEF15F032EF15F0A7
:102A3E00C0B624EF15F027EF15F0010E28EF15F0B4
:102A4E00000EFF0A4D6E4D464D464D46C0504D1878
:102A5E00F70B4D18C06E1200B1984BC54DF54CC515
:102A6E004EF565EC15F0034A042A045009E1050EF3
:102A7E00035CD8A045EF15F047EF15F04DEF15F0BC
:102A8E0092EC15F0000E046E000E036E120057EF5E
:102A9E0015F0040E516E3E0EE82EFED7512EFCD7C9
:102AAE004F06D8A050064F2806E15028D8A462EF52
:102ABE0015F064EF15F050EF15F0120003011EA58E
:102ACE006BEF15F06DEF15F076EF15F01E914E5081
:102ADE001D6F610034F51CF31E817BEF15F04E5017
:102AEE001D6F610034F51CF31200000E4F6E4F5037
:102AFE00020D260EF324D96E050EF420DA6E000EAA
:102B0E00DF6E4F2A4F50D8B48FEF15F091EF15F0BE
:102B1E007EEF15F0120049504A10D8B499EF15F017
:102B2E009BEF15F0A7EF15F002D8A7EF15F00500F3
:102B3E00FA6E4950FD6E4A50FE6EFF6AFA50120050
:102B4E00120047504810D8B4AFEF15F0B1EF15F0A2
:102B5E00BDEF15F002D8BDEF15F00500FA6E475027
:102B6E00FD6E4850FE6EFF6AFA5012001200000E03
:102B7E000001606F000E616F000E626F000E636FDA
:102B8E00000E646F000E656F000E666F000E676FAD
:102B9E00000E686F12004C0E03011B6F980E196F1A
:102BAE00000E186FB19EA18EF80E4F6E2C0E506E49
:102BBE004BEC16F0800E03011A6F1200100E01017D
:102BCE00506F040E516F600E526F050E536F900EC4
:102BDE005C6F040E5D6F600E5E6F050E5F6F120010
:102BEE00020042554646455243414E000000000049
:102BFE0000000000000000000000000000000000C7
:102C0E00000017EC16F0D68EC086030E506EE80E3E
:102C1E004F6E4EEC15F0C0960BEF16F00DEF00F068
:102C2E0078EC16F0BEEC15F020EC14F026EC16F055
:102C3E00D3EC14F0D2EC15F07BEC14F01200700E05
:102C4E000001AD6F000EAF6F000EB36F020EB16FCD
:102C5E00000EB06F1200080E0101686F040E696F4E
:102C6E00600E6A6F050E6B6F1200010E0101046F8C
:102C7E00010E056F060E066F000E076F12004FC590
:102C8E0049F550C54AF512004FC547F550C548F5F0
:102C9E00120001010239E832070B12004FC507F589
:102CAE0050C508F512004FC509F550C50AF51200BA
:102CBE004FC505F550C506F512004FC50BF550C5AD
:102CCE000CF512004FC511F550C512F512004FC587
:102CDE000FF550C510F512004FC50DF550C50EF588
:102CEE001200D69A120012001200120012001200E8
:0A2CFE001200120012001200120072
:020000040020DA
:10000000FF0FFF0FFF0FFF0FFF0FFF0FFF0FFF0F80
:10001000FF0FFF0FFF0FFF0FFF0FFF0FFF0FFF0F70
:020000040030CA
:10000000FAEFF7DF9FFFFFFFFFFFFFFFFFFFFFFF9D
:10001000FFFFFFFFFFFFFFFFFFFFFFFFFFFFFFFFF0
:04002000FFFFFFFFE0
:00000001FF
