:020000040000FA
:040000000DEF00F010
:04000800EDEF18F010
:06001800FF0070EF1BF079
:0D2600000000010203040506070850010058
:10260E00610038F4D9F461003CF4DAF4610078F337
:10261E0014F5610078F315F5610078F316F5610095
:10262E0078F317F520EE04F00E50D9260F50DA226B
:10263E00DFA024EF13F026EF13F060EF13F020EE7F
:10264E0001F00C50D9260D50DA221438E842F80B5E
:10265E00F80BDF6E050E106ED8901732163215324B
:10266E001432102E33EF13F020EE02F00C50D92658
:10267E000D50DA22610050F4DFF415C514F516C5BD
:10268E0015F517C516F5176A20EE03F00C50D9266E
:10269E000D50DA2214501F0BDF6E050E106ED890FF
:1026AE001732163215321432102E56EF13F078EF11
:1026BE0013F020EE03F00C50D9260D50DA22000E46
:1026CE00DF6E10EE02F00C50E1260D50E222DFC458
:1026DE00E7F420EE01F00C50D9260D50DA22E7C4B3
:1026EE00DFF4610030F4D9F4610034F4DAF46100FF
:1026FE0050F4DFF415C514F516C515F517C516F506
:10270E00176A14C510F5070E101620EE01F00C50C6
:10271E00D9260D50DA221050DF1220EE04F00E50A2
:10272E00D9260F50DA22DF30E8320F0B136E20EE6F
:10273E0004F00E50D9260F50DA22DFB0A9EF13F0B5
:10274E00ADEF13F0106A102AAEEF13F0106A1038C6
:10275E00F00B131220EE04F00E50D9260F50DA2291
:10276E00DFB2BCEF13F0C0EF13F0200E106EC1EF0E
:10277E0013F0106A1050131220EE04F00E50D926EA
:10278E000F50DA22DFBECEEF13F0D2EF13F0400E71
:10279E00106ED3EF13F0106A1050131220EE04F0E7
:1027AE000E50D9260F50DA22DFBCE0EF13F0E4EF23
:1027BE0013F0800E106EE5EF13F0106A1050131226
:1027CE0020EE04F00C50D9260D50DA2261004CF4A4
:1027DE00DFF420EE04F00E50D9260F50DA22DFB2CD
:1027EE00FBEF13F0FDEF13F029EF14F0080E0C249D
:1027FE00016E000E0D20026E20EE05F00E50D92651
:10280E000F50DA22610078F303F5610074F304F5DA
:10281E0020EE04F00E50D9260F50DA22DF30E832C7
:10282E000F0B106E116A010E1024F66E260E11207B
:10283E00F76EF86A000EF8220800F550056E066A6B
:10284E00EEEC1AF0120020EE04F00C50D9260D50CA
:10285E00DA22DF50176E17C510F520EE04F00E5079
:10286E00D9260F50DA2210461046DF501018C30B2F
:10287E001018DF6E17B846EF14F04AEF14F0106A16
:10288E00102A4BEF14F0106A20EE04F00E50D926E9
:10289E000F50DA22DF501018FE0B1018DF6E17BA29
:1028AE005BEF14F05FEF14F0106A102A60EF14F073
:1028BE00106A20EE04F00E50D9260F50DA22104680
:1028CE00DF501018FD0B1018DF6E17BC71EF14F0EF
:1028DE0075EF14F0106A102A76EF14F0106A20EEDD
:1028EE0004F00E50D9260F50DA2210321032DF507B
:1028FE0010187F0B1018DF6E17BE88EF14F08CEFD8
:10290E0014F0106A102A8DEF14F0106A20EE04F005
:10291E000E50D9260F50DA22103A10461046DF50CC
:10292E001018BF0B1018DF6E20EE01F00C50D926D8
:10293E000D50DA22DF50106E070E10161050136E67
:10294E00146A156A166A15C516F514C515F513C55C
:10295E0014F5136A610030F4D9F4610034F4DAF43A
:10296E00DF50106E1050131220EE04F00E50D926C8
:10297E000F50DA22DFA0C6EF14F0C8EF14F009EF03
:10298E0015F0050ED8901336143615361636E82E79
:10299E00C9EF14F020EE03F00C50D9260D50DA22B8
:1029AE00DF50106E1F0E10161050131215C516F5AF
:1029BE0014C515F513C514F5136A20EE02F00C506C
:1029CE00D9260D50DA22DF50106E10501312050E5C
:1029DE00D8901336143615361636E82EEFEF14F05F
:1029EE0020EE01F00C50D9260D50DA22DF50106E79
:1029FE00D8901032D8901032D89010321F0E101678
:102A0E0010501312610038F4D9F461003CF4DAF47A
:102A1E0061004CF4DEF4610050F4DEF4610054F415
:102A2E00DEF4610058F4DEF46E0E016E050E026ED9
:102A3E00080E0C24036E000E0D20046E20EE04F022
:102A4E000E50D9260F50DA22DF30E8320F0B106EFF
:102A5E00116A010E1024F66E260E1120F76EF86A1A
:102A6E00000EF8220800F550056E066AEEEC1AF01C
:102A7E0020EE05F00E50D9260F50DA226E0EDE6EC5
:102A8E00050EDD6E120001011DAF50EF15F052EF75
:102A9E0015F061EF15F002D85FEF15F00500FA6E34
:102AAE0005016C51FD6E6D51FE6EFF6AFA501200FB
:102ABE0001011D9F1DAD66EF15F068EF15F077EF64
:102ACE0015F002D875EF15F00500FA6E05016A5182
:102ADE00FD6E6B51FE6EFF6AFA50120001011D9DD4
:102AEE001DAB7CEF15F07EEF15F08DEF15F002D8D3
:102AFE008BEF15F00500FA6E05016851FD6E6951F8
:102B0E00FE6EFF6AFA50120001011D9B1CA792EF88
:102B1E0015F094EF15F0A3EF15F002D8A1EF15F014
:102B2E000500FA6E05016651FD6E6751FE6EFF6A75
:102B3E00FA50120001011C971DA9A8EF15F0AAEF7B
:102B4E0015F0B9EF15F002D8B7EF15F00500FA6ED3
:102B5E0005016451FD6E6551FE6EFF6AFA5012005A
:102B6E0001011D991DA5BEEF15F0C0EF15F0D6EFB2
:102B7E0015F002D8CDEF15F00500FA6E0501625181
:102B8E00FD6E6351FE6EFF6AFA501200010154A9E8
:102B9E00D3EF15F0D5EF15F0D6EF15F054991DA71C
:102BAE00DBEF15F0DDEF15F0F3EF15F002D8EAEFDD
:102BBE0015F00500FA6E05016051FD6E6151FE6E55
:102BCE00FF6AFA501200010160A7F0EF15F0F2EF64
:102BDE0015F0F3EF15F06097AE9C120051EF16F062
:102BEE00500E1E6E030E1F6E000E206E000E216E16
:102BFE00080E226E54C523F553C524F5000E256E1E
:102C0E00000E266E000E276E000E286E000E296E28
:102C1E00000E2A6EE1EC16F06AEF16F0510E1E6EE3
:102C2E00030E1F6E000E206E000E216E080E226E19
:102C3E0054C523F553C524F5000E256E000E266EE1
:102C4E00000E276E000E286E000E296E000E2A6EE4
:102C5E00E1EC16F06AEF16F0520E1E6E030E1F6EAA
:102C6E00000E206E000E216E080E226E54C523F546
:102C7E0053C524F5000E256E000E266E000E276E2F
:102C8E00000E286E000E296E000E2A6EE1EC16F074
:102C9E006AEF16F052502C6E2D6A2D50000AD8B4E1
:102CAE005BEF16F06AEF16F02C50000AD8B4F7EF6F
:102CBE0015F0010AD8B415EF16F0030AD8B433EFA5
:102CCE0016F06AEF16F01200216E000E1D6E1850EF
:102CDE0059EC1DF0206E20A077EF16F079EF16F06C
:102CEE00DFEF16F018500C0D580EF324D96E010EAE
:102CFE00F420DA6E610078F31EF5610074F31FF5AF
:102D0E001E501F10D8B48EEF16F090EF16F0DFEFB6
:102D1E0016F01EC50CF51FC50DF519C50EF51AC515
:102D2E000FF52AEC14F018500C0D510EF324D96E39
:102D3E00010EF420DA6E000EDB802150020D8E0E95
:102D4E00F324D96E050EF420DA6EDF2A185025EC26
:102D5E001DF01B6E2150020D8E0EF324D96E050E42
:102D6E00F420DA6E1B50DE5CD8A0C0EF16F0C2EF76
:102D7E0016F0CCEF16F02150020D8E0EF324D96E04
:102D8E00050EF420DA6E000EDF6E20A6D1EF16F0DF
:102D9E00D3EF16F0DDEF16F018500C0D540EF32491
:102DAE00D96E010EF420DA6EF70EDF16010E1D6ECF
:102DBE001D50120023C576F524C577F525C578F587
:102DCE0026C579F527C57AF528C57BF529C57CF585
:102DDE002AC57DF51EC57EF51FC57FF520C580F57C
:102DEE0021C581F50501829D829F8293829122C524
:102DFE002BF50F0E2B162B462B4682512B18C30B81
:102E0E002B18826F760E836F050E846F86EC1DF085
:102E1E00E806D8A415EF17F017EF17F018EF17F014
:102E2E0000F07BEC1DF0E806D8A420EF17F022EF9F
:102E3E0017F023EF17F000F070EC1DF0E806D8A4A1
:102E4E002BEF17F02DEF17F02EEF17F000F034ECFC
:102E5E001DF0E806D8A436EF17F038EF17F039EF6B
:102E6E0017F000F0000EDEEC1CF02B6E2BA042EFE4
:102E7E0017F044EF17F04CEF17F07E0E186E050E9C
:102E8E00196E000EF9EC19F000F01200076E000E2C
:102E9E00096E20EE04F00250D9260350DA22DF50DC
:102EAE000A6E0AAE5DEF17F05FEF17F06AEF17F0DC
:102EBE00DCEC1DF0060AD8A467EF17F069EF17F0E7
:102ECE006AEF17F009820A30E8320F0B046E080E13
:102EDE00046474EF17F076EF17F088EF17F00AAC72
:102EEE007BEF17F07DEF17F087EF17F0DCEC1DF09E
:102EFE00060AD8A485EF17F087EF17F088EF17F0C2
:102F0E000980090EF66E260EF76EF86A080061004B
:102F1E00D4F304F50A30E8320F0B056E066A010E83
:102F2E000524F66E260E0620F76EF86A000EF822BD
:102F3E000800F550045CD8B0A7EF17F0A9EF17F012
:102F4E00AAEF17F0098007504DEC1DF00009D8A428
:102F5E00B3EF17F0B5EF17F0B7EF17F0030E091236
:102F6E000950120000F088EC18F00009D8B4C2EF36
:102F7E0017F0C4EF17F022EF18F0570E226E050E61
:102F8E00236E47EC1BF0E806D8A4D0EF17F0D2EF73
:102F9E0017F022EF18F000F057C53BF558C53CF579
:102FAE0059C53DF55AC53EF5610070F5D9F461007D
:102FBE0074F5DAF4DF503F6EFEEF17F054C553F59B
:102FCE003F50070B546E54505318D8B4F1EF17F00E
:102FDE00F3EF17F022EF18F050EC19F0F2EC1CF0B2
:102FEE00F5EC15F022EF18F000F022EF18F03BC5CB
:102FFE002EF53CC52FF53DC530F53EC531F53150AA
:10300E00000AD8B41BEF18F0FBEF17F02F50050A8B
:10301E00D8B414EF18F0FBEF17F02E50020AD8B404
:10302E00E5EF17F0FBEF17F03050000AD8B40DEFB4
:10303E0018F0FBEF17F012004C502E6E4D502F6E05
:10304E004C4A4D2A090E2E5C070E2F58D8A032EF8F
:10305E0018F034EF18F03CEF18F0EFEC1DF0000E06
:10306E004D6E000E4C6E87EF18F04A502E6E4B5080
:10307E002F6E4A4A4B2A850E2E5C030E2F58D8A06F
:10308E004BEF18F04DEF18F055EF18F0F1EC1DF076
:10309E00000E4B6E000E4A6E87EF18F048502E6EE3
:1030AE0049502F6E484A492A2F5009E13D0E2E5C99
:1030BE00D8A064EF18F066EF18F06EEF18F0F0EC91
:1030CE001DF0000E496E000E486E87EF18F0465048
:1030DE002E6E47502F6E464A472A2F5009E1060E94
:1030EE002E5CD8A07DEF18F07FEF18F087EF18F068
:1030FE00E4EC1DF0000E476E000E466E87EF18F0E2
:10310E001200000E036E000E0A6E0A50020D8D0E96
:10311E00F324D96E050EF420DA6EDF50066E0650DB
:10312E0059EC1DF0056E05A09FEF18F0A1EF18F0F9
:10313E00E2EF18F0065025EC1DF0076E05A6AAEF7B
:10314E0018F0ACEF18F0B0EF18F007C504F5E0EF8B
:10315E0018F006500C0D550EF324D96E010EF42006
:10316E00DA6EDF501F0B086E0A50020D8E0EF3241E
:10317E00D96E050EF420DA6EDF50096E0950085C28
:10318E00D8B0CCEF18F0CEEF18F0D4EF18F00950FD
:10319E00085C0724046EE0EF18F00850095CD8B004
:1031AE00DBEF18F0DDEF18F0ACEF18F00950085C0B
:1031BE00046E045003260A2A0A50D8B4E9EF18F018
:1031CE00EBEF18F08CEF18F0035012006100D8F3FB
:1031DE0040F56100DCF341F56100E0F342F561007A
:1031EE00D4F343F500F000F09EAC00EF19F002EFBF
:1031FE0019F00DEF19F0AEAC07EF19F009EF19F059
:10320E000DEF19F04AEC15F043EF19F0A2A812EFEA
:10321E0019F014EF19F01FEF19F0B2A819EF19F009
:10322E001BEF19F01FEF19F0A1EC1CF043EF19F092
:10323E00A1AE24EF19F026EF19F031EF19F0B1AE6F
:10324E002BEF19F02DEF19F031EF19F043EC1AF0C6
:10325E0043EF19F0A1A836EF19F038EF19F043EF4C
:10326E0019F0B1A83DEF19F03FEF19F043EF19F047
:10327E00F9EC1BF043EF19F061000CF5F5F4610069
:10328E0008F5F8F4610004F5F7F4610000F5F6F4C2
:10329E0011008BEF19F0BF92BF94ACEF19F0BF94F1
:1032AE00BF82ACEF19F0BF94BFB260EF19F063EFBD
:1032BE0019F0010E64EF19F0000EFF0A016E0146BF
:1032CE00BF500118FD0B0118BF6EACEF19F0BF9285
:1032DE00BFB474EF19F077EF19F0010E78EF19F013
:1032EE00000EFF0A016E01460146BF500118FB0B8E
:1032FE000118BF6EACEF19F0BF92BF84ACEF19F09E
:10330E00BF92BF94ACEF19F05450016E026A025096
:10331E00000AD8B495EF19F087EF19F00150010AA1
:10332E00D8B452EF19F0030AD8B456EF19F0010AC7
:10333E00D8B45AEF19F0070AD8B46EEF19F0010A93
:10334E00D8B483EF19F087EF19F0120005018B6FD7
:10335E00000E05018A6FB4EC1DF00501896F040E95
:10336E008919D8B4BDEF19F0BFEF19F0D0EF19F0ED
:10337E008B05D8B4C5EF19F0C7EF19F0D0EF19F0DF
:10338E00040E8B19D8A4CEEF19F0D0EF19F0F5EF8B
:10339E0019F00101035105018B19F80B8B1901016D
:1033AE00036FE7EF19F001011DA9E0EF19F0E2EF4D
:1033BE0019F0E7EF19F0020E05018A6FF7EF19F019
:1033CE000239E832070B05018B19D8A4F1EF19F079
:1033DE00F3EF19F0DAEF19F0F7EF19F0010E8A6F2B
:1033EE008A5112001D6E1D50DAEC1BF00009D8B484
:1033FE0003EF1AF005EF1AF042EF1AF018C502F5B6
:10340E0019C503F51D504DEC17F01A6E1A50D8A4BD
:10341E0013EF1AF015EF1AF042EF1AF01D500C0DC3
:10342E00580EF324D96E010EF420DA6E610078F393
:10343E001BF5610074F31CF51B501C10D8B42AEF59
:10344E001AF02CEF1AF042EF1AF01BC50CF51CC542
:10345E000DF518C50EF519C50FF507EC13F01D5037
:10346E000C0D510EF324D96E010EF420DA6E030EFC
:10347E00DF1242EF1AF01200B19E444A452A45501F
:10348E0009E1040E445CD8A04FEF1AF051EF1AF088
:10349E0059EF1AF023EC18F075EC1CF0000E456E87
:1034AE00000E446E5604D8A45FEF1AF061EF1AF0C6
:1034BE0082EF1AF0552A230E556468EF1AF06AEF60
:1034CE001AF06FEF1AF0000E566E000E556EC09683
:1034DE00C0B674EF1AF077EF1AF0010E78EF1AF00B
:1034EE00000EFF0A306E304630463046C05030185F
:1034FE00F70B3018C06E1200EC0E0501896F3B0EF3
:10350E008A6FCDEC1DF0EE0E0501896F3B0E8A6FB2
:10351E00D2EC1DF0F00E0501896F3B0E8A6FD7ECD1
:10352E001DF0EA0E0501896F3B0E8A6FC8EC1DF087
:10353E00E60E0501896F3B0E8A6FBEEC1DF0E40EA0
:10354E000501896F3B0E8A6FB9EC1DF0E80E05017F
:10355E00896F3B0E8A6FC3EC1DF0AE9C000E01010D
:10356E001C6F000E1D6F0A0E1E6FFC0E1F6F9E8CC1
:10357E001200000EBE6E000EBF6E000EC06E080E64
:10358E00CA6EC668E90EC76EE70EC86E04011069F2
:10359E00F10E086F0069000E216F000E096F000E0C
:1035AE00016F000E116F000E026F000E0A6F000EFB
:1035BE00126F03690B69136904690C691469080EAB
:1035CE00246F0B0E02013D6F460E0D6F120003C5E8
:1035DE0009F504C50AF501C507F502C508F50DEF95
:1035EE001BF0610024F4D9F4610028F4DAF4DF5002
:1035FE000B6E094A0A2A61001CF4D9F4610020F40A
:10360E00DAF461002CF4DFF4074A082A0506D8A084
:10361E000606052806E10628D8A418EF1BF01AEFB7
:10362E001BF0F8EF1AF012000101018F040EADEC41
:10363E0019F00009D8A426EF1BF028EF1BF046EF77
:10364E001BF0000E01014C6F260E4D6F000E4E6FDB
:10365E00000E4F6F600E006F970E016F100E026F0F
:10366E009BEC1DF091EC1DF08CEC1CF004EC1DF0AD
:10367E0030EC1CF083EC1AF0060EADEC19F01200D3
:10368E00000E256E2550020D8D0EF324D96E050EFB
:10369E00F420DA6EDF50186E22C519F523C51AF51F
:1036AE0025506BEC16F0246E2450D8B461EF1BF04D
:1036BE0063EF1BF065EF1BF06EEF1BF0252A255014
:1036CE00D8B46CEF1BF06EEF1BF049EF1BF02450DB
:1036DE001200D80EF66E3B0EF76E000EF86E090055
:1036EE006100D4F38DF509006100D4F38EF501EE7F
:1036FE0060F1250EEE6AE806FDE101EE44F11A0EC8
:10370E00EE6AE806FDE10401080E5D6F000E5E6FC5
:10371E00000E5F6F000165EF1DF0000E03011F6FBD
:10372E00000E206F010E216F0B0E1D6FDC0E1C6F35
:10373E00B1981C51600074FC8BF505018C6B8BC528
:10374E008CF58B6B8B115E6E8C515F6EA188DA0ED1
:10375E00896F3B0E8A6FA5EC1DF0210E03011E6FC3
:10376E001200BF92BF84C086000E05018A6FC80E7C
:10377E00896F16EC1CF0BF92BF94C096000E050127
:10378E008A6FC80E896F16EC1CF0BF82BF94C0867C
:10379E00000E05018A6FC80E896F16EC1CF0BF92E1
:1037AE00BF94C0961200026E000E016E040E0260EF
:1037BE00E3EF1BF0E5EF1BF0F7EF1BF002500C0DE3
:1037CE00500EF324D96E010EF420DA6E0101DFAE35
:1037DE00F3EF1BF0F5EF1BF0F7EF1BF0010E016E90
:1037EE0001501200B1985EC501F55FC502F547ECB8
:1037FE001CF04E4A4F2A4F5009E1050E4E5CD8A0E0
:10380E000BEF1CF00DEF1CF015EF1CF050EC19F047
:10381E005EEC1CF0000E4F6E000E4E6E120021EF8D
:10382E001CF0040E05018B6F3D0EE82EFED78B2F7C
:10383E00FCD700D005018907D8A08A07892906E19F
:10384E008A29D8A42DEF1CF02FEF1CF018EF1CF0D6
:10385E001200000E0501896F8951020D8E0EF324A0
:10386E00D96E050EF420DA6E000EDF6E892B8951AB
:10387E00D8B444EF1CF046EF1CF033EF1CF01200EE
:10388E0003011EA54DEF1CF04FEF1CF058EF1CF07E
:10389E001E9102501D6F610004F41CF31E815DEF3A
:1038AE001CF002501D6F610004F41CF312000501A0
:1038BE0087518811D8B466EF1CF068EF1CF074EFD6
:1038CE001CF002D874EF1CF00500FA6E8751FD6EE5
:1038DE008851FE6EFF6AFA501200120005018551E2
:1038EE008611D8B47DEF1CF07FEF1CF08BEF1CF02F
:1038FE0002D88BEF1CF00500FA6E8551FD6E8651D5
:10390E00FE6EFF6AFA5012001200190E01015C6F72
:10391E00040E5D6F600E5E6F050E5F6FCE0E0501BD
:10392E00896F3B0E8A6FAFEC1DF001011E83B298BA
:10393E00A2881200010160A1A7EF1CF0A9EF1CF0F4
:10394E00B5EF1CF002D8B5EF1CF00500FA6E505022
:10395E00FD6E5150FE6EFF6AFA50120012004C0EB0
:10396E0003011B6F980E196F000E186FB19EA18E7A
:10397E00DC0E0501896F3B0E8A6FAAEC1DF0800EDE
:10398E0003011A6F1200000E0001606F000E616FCE
:10399E00000E626F000E636F000E646F000E656F97
:1039AE00000E666F000E676F000E686F1200046ED9
:1039BE00000E036E0450DAEC1BF00009D8B4EAEFE7
:1039CE001CF0ECEF1CF0F0EF1CF004504DEC1DF071
:1039DE00036E03501200040E5418D8A4F9EF1CF015
:1039EE00FBEF1CF000EF1DF0C086010E566E03EFCC
:1039FE001DF0C096000E566E12005F0E0101946F00
:103A0E00956996699769000E986F000E996F000E72
:103A1E009A6F000E9B6F810E816F1200EAEC1DF003
:103A2E00C086CAEC1CF0C0EC1AF041EC1DF094EC10
:103A3E001BF0B6EC1CF01BEC1BF01200026E0250D9
:103A4E000C0D530EF324D96E010EF420DA6EDF50F6
:103A5E00016E1F0E0116012812007BEC1DF00009ED
:103A6E00D8B43CEF1DF03FEF1DF0010E40EF1DF0FE
:103A7E00000E1200700E0001AD6F000EAF6F000E43
:103A8E00B36F020EB16F000EB06F1200016E0150D7
:103A9E000C0D540EF324D96E010EF420DA6EDF50A5
:103AAE00010B1200016E01500C0D540EF324D96E51
:103ABE00010EF420DA6EDF50090B120015EC1DF02A
:103ACE00E1EC1DF0D68EB8EC1BF06CEF1DF00DEF97
:103ADE0000F0010136B576EF1DF079EF1DF0010E05
:103AEE007AEF1DF0000E1200010136B981EF1DF0C4
:103AFE0084EF1DF0010E85EF1DF0000E1200010186
:103B0E0036BB8CEF1DF08FEF1DF0010E90EF1DF008
:103B1E00000E1200100E0101506F040E516F610E57
:103B2E00526F050E536F1200010E0101046F010E4C
:103B3E00056F060E066F000E076F120089C587F51A
:103B4E008AC588F5120089C585F58AC586F51200E5
:103B5E0089C550F58AC551F5120001010239E832C6
:103B6E00070B120089C562F58AC563F5120089C577
:103B7E0064F58AC565F5120089C560F58AC561F5DB
:103B8E00120089C566F58AC567F5120089C56CF500
:103B9E008AC56DF5120089C56AF58AC56BF51200E6
:103BAE0089C568F58AC569F5120001010239E83246
:103BBE00070B1200000E526E1200F5EC15F01200FB
:103BCE00B9EC17F01200D69A120001001200120082
:103BDE001200120012001200120012001200120047
:043BEE0012001200AF
:020000040020DA
:10000000FF0FFF0FFF0FFF0FFF0FFF0FFF0FFF0F80
:10001000FF0FFF0FFF0FFF0FFF0FFF0FFF0FFF0F70
:020000040030CA
:10000000FAEFF7DF9FFFFFFFFFFFFFFFFFFFFFFF9D
:10001000FFFFFFFFFFFFFFFFFFFFFFFFFFFFFFFFF0
:04002000FFFFFFFFE0
:00000001FF
