:020000040000FA
:040000000DEF00F010
:040008007AEF16F085
:06001800FF00A2EF18F04A
:0D2600000000010203040506070850010058
:10260E0020EE04F00C50D9260D50DA22DF50176E52
:10261E0017C510F520EE04F00E50D9260F50DA2211
:10262E0010461046DF501018C30B1018DF6E17B887
:10263E0023EF13F027EF13F0106A102A28EF13F090
:10264E00106A20EE04F00E50D9260F50DA22DF5019
:10265E001018FE0B1018DF6E17BA38EF13F03CEFA0
:10266E0013F0106A102A3DEF13F0106A20EE04F0FA
:10267E000E50D9260F50DA221046DF501018FD0BDF
:10268E001018DF6E17BC4EEF13F052EF13F0106AF6
:10269E00102A53EF13F0106A20EE04F00E50D926D4
:1026AE000F50DA2210321032DF5010187F0B101834
:1026BE00DF6E17BE65EF13F069EF13F0106A102A84
:1026CE006AEF13F0106A20EE04F00E50D9260F5068
:1026DE00DA22103A10461046DF501018BF0B1018B1
:1026EE00DF6E20EE01F00C50D9260D50DA22DF50AD
:1026FE00106E070E10161050136E146A156A166AB5
:10270E0015C516F514C515F513C514F5136A610034
:10271E0030F4D9F4610034F4DAF4DF50106E105056
:10272E00131220EE04F00E50D9260F50DA22DFA03D
:10273E00A3EF13F0A5EF13F0E6EF13F0050ED8900C
:10274E001336143615361636E82EA6EF13F020EE95
:10275E0003F00C50D9260D50DA22DF50106E1F0EEA
:10276E0010161050131215C516F514C515F513C510
:10277E0014F5136A20EE02F00C50D9260D50DA2211
:10278E00DF50106E10501312050ED89013361436FB
:10279E0015361636E82ECCEF13F020EE01F00C5065
:1027AE00D9260D50DA22DF50106ED8901032D89004
:1027BE001032D89010321F0E1016105013126100E6
:1027CE0038F4D9F461003CF4DAF461004CF4DEF430
:1027DE00610050F4DEF4610054F4DEF4610058F44C
:1027EE00DEF46E0E016E050E026E080E0C24036EE4
:1027FE00000E0D20046E20EE04F00E50D9260F5060
:10280E00DA22DF30E8320F0B106E116A010E10243F
:10281E00F66E260E1120F76EF86A000EF8220800EA
:10282E00F550056E066A20EC18F020EE05F00E50FD
:10283E00D9260F50DA226E0EDE6E050EDD6E1200F8
:10284E0001011DAF2DEF14F02FEF14F03EEF14F039
:10285E0002D83CEF14F00500FA6E05016C51FD6EC6
:10286E006D51FE6EFF6AFA50120001011D9F1DADE3
:10287E0043EF14F045EF14F054EF14F002D852EF7A
:10288E0014F00500FA6E05016A51FD6E6B51FE6E75
:10289E00FF6AFA50120001011D9D1DAB59EF14F095
:1028AE005BEF14F06AEF14F002D868EF14F0050035
:1028BE00FA6E05016851FD6E6951FE6EFF6AFA509F
:1028CE00120001011D9B1CA76FEF14F071EF14F0A5
:1028DE0080EF14F002D87EEF14F00500FA6E0501B9
:1028EE006651FD6E6751FE6EFF6AFA5012000101CD
:1028FE001C971DA985EF14F087EF14F096EF14F0D6
:10290E0002D894EF14F00500FA6E05016451FD6EC5
:10291E006551FE6EFF6AFA50120001011D991DA548
:10292E009BEF14F09DEF14F0B3EF14F002D8AAEF62
:10293E0014F00500FA6E05016251FD6E6351FE6ED4
:10294E00FF6AFA501200010154A9B0EF14F0B2EF71
:10295E0014F0B3EF14F054991DA7B8EF14F0BAEFBA
:10296E0014F0D0EF14F002D8C7EF14F00500FA6E91
:10297E0005016051FD6E6151FE6EFF6AFA50120044
:10298E00010160A7CDEF14F0CFEF14F0D0EF14F0EB
:10299E006097AE9C1200216E000E1D6E18504AEC10
:1029AE001AF0206E20A0DEEF14F0E0EF14F046EFE8
:1029BE0015F018500C0D580EF324D96E010EF4209C
:1029CE00DA6E610078F31EF5610074F31FF51E5088
:1029DE001F10D8B4F5EF14F0F7EF14F046EF15F022
:1029EE001EC50CF51FC50DF519C50EF51AC50FF54B
:1029FE0007EC13F018500C0D510EF324D96E010E86
:102A0E00F420DA6E000EDB802150020D870EF324C7
:102A1E00D96E050EF420DA6EDF2A18502FEC1AF05C
:102A2E001B6E2150020D870EF324D96E050EF42075
:102A3E00DA6E1B50DE5CD8A027EF15F029EF15F0EB
:102A4E0033EF15F02150020D870EF324D96E050ECB
:102A5E00F420DA6E000EDF6E20A638EF15F03AEF96
:102A6E0015F044EF15F018500C0D540EF324D96EDA
:102A7E00010EF420DA6EF70EDF16010E1D6E1D50DC
:102A8E00120000F015EC16F00009D8B451EF15F055
:102A9E0053EF15F0AFEF15F04F0E226E050E236EAD
:102AAE0079EC18F0E806D8A45FEF15F061EF15F099
:102ABE00AFEF15F000F04FC533F550C534F551C5E5
:102ACE0035F552C536F5610050F5D9F4610054F56F
:102ADE00DAF4DF50376E8BEF15F04CC54BF53750EF
:102AEE00070B4C6E4C504B18D8B480EF15F082EF9C
:102AFE0015F0AFEF15F0DDEC16F029EC19F0AFEF95
:102B0E0015F000F0AFEF15F033C526F534C527F5F7
:102B1E0035C528F536C529F52950000AD8B4A8EFD1
:102B2E0015F088EF15F02750050AD8B4A1EF15F06F
:102B3E0088EF15F02650020AD8B474EF15F088EF1E
:102B4E0015F02850000AD8B49AEF15F088EF15F05A
:102B5E0012004450016E4550026E444A452A090E39
:102B6E00015C070E0258D8A0BFEF15F0C1EF15F0AB
:102B7E00C9EF15F0B8EC1AF0000E456E000E446E5B
:102B8E0014EF16F04250016E4350026E424A432A31
:102B9E00850E015C030E0258D8A0D8EF15F0DAEFBF
:102BAE0015F0E2EF15F0BAEC1AF0000E436E000EBF
:102BBE00426E14EF16F04050016E4150026E404AC4
:102BCE00412A025009E13D0E015CD8A0F1EF15F04B
:102BDE00F3EF15F0FBEF15F0B9EC1AF0000E416EA5
:102BEE00000E406E14EF16F03E50016E3F50026E16
:102BFE003E4A3F2A025009E1020E015CD8A00AEFBC
:102C0E0016F00CEF16F014EF16F0B7EC1AF0000EEB
:102C1E003F6E000E3E6E14EF16F01200000E036EA5
:102C2E00000E0A6E0A50020D860EF324D96E050EA2
:102C3E00F420DA6EDF50066E06504AEC1AF0056E7E
:102C4E0005A02CEF16F02EEF16F06FEF16F00650D3
:102C5E002FEC1AF0076E05A637EF16F039EF16F0C7
:102C6E003DEF16F007C504F56DEF16F006500C0D8E
:102C7E00550EF324D96E010EF420DA6EDF501F0BC1
:102C8E00086E0A50020D870EF324D96E050EF4203D
:102C9E00DA6EDF50096E0950085CD8B059EF16F0A5
:102CAE005BEF16F061EF16F00950085C0724046E16
:102CBE006DEF16F00850095CD8B068EF16F06AEFA9
:102CCE0016F039EF16F00950085C046E0450032616
:102CDE000A2A0A50D8B476EF16F078EF16F019EFEC
:102CEE0016F0035012006100D8F338F56100DCF3E2
:102CFE0039F56100E0F33AF56100D4F33BF500F0ED
:102D0E0000F09EAC8DEF16F08FEF16F09AEF16F0E6
:102D1E00AEAC94EF16F096EF16F09AEF16F027EC95
:102D2E0014F0D0EF16F0A2A89FEF16F0A1EF16F058
:102D3E00ACEF16F0B2A8A6EF16F0A8EF16F0ACEFB7
:102D4E0016F0D1EC19F0D0EF16F0A1AEB1EF16F0EF
:102D5E00B3EF16F0BEEF16F0B1AEB8EF16F0BAEF55
:102D6E0016F0BEEF16F0C3EC17F0D0EF16F0A1A8D8
:102D7E00C3EF16F0C5EF16F0D0EF16F0B1A8CAEFFC
:102D8E0016F0CCEF16F0D0EF16F00CEC19F0D0EFE9
:102D9E0016F06100ECF4F5F46100E8F4F8F461006B
:102DAE00E4F4F7F46100E0F4F6F4110018EF17F014
:102DBE00BF92BF9439EF17F0BF94BF8239EF17F06F
:102DCE00BF94BFB2EDEF16F0F0EF16F0010EF1EF7B
:102DDE0016F0000EFF0A016E0146BF500118FD0BE2
:102DEE000118BF6E39EF17F0BF92BFB401EF17F0A5
:102DFE0004EF17F0010E05EF17F0000EFF0A016E3B
:102E0E0001460146BF500118FB0B0118BF6E39EF8A
:102E1E0017F0BF92BF8439EF17F0BF92BF9439EF0E
:102E2E0017F04C50016E026A0250000AD8B422EF1D
:102E3E0017F014EF17F00150010AD8B4DFEF16F0B7
:102E4E00030AD8B4E3EF16F0010AD8B4E7EF16F090
:102E5E00070AD8B4FBEF16F0010AD8B410EF17F03A
:102E6E0014EF17F012000501846F000E0501836F39
:102E7E0084EC1AF00501826F040E8219D8B44AEF61
:102E8E0017F04CEF17F05DEF17F08405D8B452EF42
:102E9E0017F054EF17F05DEF17F0040E8419D8A455
:102EAE005BEF17F05DEF17F082EF17F001010351A2
:102EBE0005018419F80B84190101036F74EF17F0E3
:102ECE0001011DA96DEF17F06FEF17F074EF17F0FA
:102EDE00020E0501836F84EF17F00239E832070BFB
:102EEE0005018419D8A47EEF17F080EF17F067EF75
:102EFE0017F084EF17F0010E836F835112007E0ED0
:102F0E000501826F350E836F9DEC1AF0800E050160
:102F1E00826F350E836FA2EC1AF0820E0501826F5E
:102F2E00350E836FA7EC1AF07C0E0501826F350EFD
:102F3E00836F98EC1AF0780E0501826F350E836F51
:102F4E008EEC1AF0760E0501826F350E836F89ECCA
:102F5E001AF07A0E0501826F350E836F93EC1AF01C
:102F6E00AE9C000E01011C6F000E1D6F0A0E1E6F2F
:102F7E00FC0E1F6F9E8C1200B19E3C4A3D2A3D50A6
:102F8E0009E1240E3C5CD8A0CFEF17F0D1EF17F07B
:102F9E00D9EF17F0B0EC15F0A5EC19F0000E3D6E60
:102FAE00000E3C6E4E04D8A4DFEF17F0E1EF17F0E1
:102FBE00F1EF17F04D2A230E4D64E8EF17F0EAEF0C
:102FCE0017F0EFEF17F0000E4E6E000E4D6EC0961E
:102FDE0029EC19F01200000EBE6E000EBF6E000E30
:102FEE00C06E080ECA6EC668E90EC76EE70EC86ED2
:102FFE0004011069F10E086F0069000E216F000EBA
:10300E00096F000E016F000E116F000E026F000EA1
:10301E000A6F000E126F03690B69136904690C695C
:10302E001469080E246F0B0E02013D6F460E0D6FD4
:10303E00120003C509F504C50AF501C507F502C559
:10304E0008F53FEF18F0610024F4D9F4610028F47C
:10305E00DAF4DF500B6E094A0A2A61001CF4D9F427
:10306E00610020F4DAF461002CF4DFF4074A082A38
:10307E000506D8A00606052806E10628D8A44AEFBC
:10308E0018F04CEF18F02AEF18F012000101018F22
:10309E00040E3AEC17F00009D8A458EF18F05AEFC6
:1030AE0018F078EF18F0000E01014C6F260E4D6FE0
:1030BE00000E4E6F000E4F6F600E006F970E016F79
:1030CE00100E026F6BEC1AF061EC1AF0BCEC19F0FA
:1030DE000EEC1AF060EC19F086EC17F0060E3AECD6
:1030EE0017F01200000E256E2550020D860EF324E9
:1030FE00D96E050EF420DA6EDF50186E22C519F562
:10310E0023C51AF52550D2EC14F0246E2450D8B4F1
:10311E0093EF18F095EF18F097EF18F0A0EF18F066
:10312E00252A2550D8B49EEF18F0A0EF18F07BEFAB
:10313E0018F024501200680EF66E350EF76E000E63
:10314E00F86E09006100D4F386F509006100D4F32E
:10315E0087F501EE60F11E0EEE6AE806FDE101EE66
:10316E003CF1210EEE6AE806FDE10401080E5D6FEA
:10317E00000E5E6F000E5F6F000156EF1AF0000E2C
:10318E0003011F6F000E206F010E216F0B0E1D6FBE
:10319E00DC0E1C6FB1981C51600074FC84F50501A7
:1031AE00856B84C585F5846B84115D6E85515E6E6D
:1031BE00A1886A0E826F350E836F75EC1AF0210EA0
:1031CE0003011E6F1200BF92BF84C086000E050160
:1031DE00836FC80E826F46EC19F0BF92BF94C096F3
:1031EE00000E0501836FC80E826F46EC19F0BF8288
:1031FE00BF94C086000E0501836FC80E826F46EC29
:10320E0019F0BF92BF94C0961200B1985DC501F53A
:10321E005EC502F577EC19F0464A472A475009E198
:10322E00050E465CD8A01EEF19F020EF19F028EF1E
:10323E0019F0DDEC16F08EEC19F0000E476E000E54
:10324E00466E1200040E4C18D8A430EF19F032EF6F
:10325E0019F045EF19F0C0B637EF19F03AEF19F043
:10326E00010E3BEF19F0000EFF0A016E01460146FA
:10327E000146C0500118F70B0118C06E120051EF35
:10328E0019F0040E0501846F3D0EE82EFED7842F33
:10329E00FCD700D005018207D8A08307822906E15A
:1032AE008329D8A45DEF19F05FEF19F048EF19F0FC
:1032BE001200000E0501826F8251020D870EF3245B
:1032CE00D96E050EF420DA6E000EDF6E822B82515F
:1032DE00D8B474EF19F076EF19F063EF19F012000D
:1032EE0003011EA57DEF19F07FEF19F088EF19F09D
:1032FE001E9102501D6F610004F41CF31E818DEFB0
:10330E0019F002501D6F610004F41CF31200050148
:10331E0080518111D8B496EF19F098EF19F0A4EFFF
:10332E0019F002D8A4EF19F00500FA6E8051FD6E67
:10333E008151FE6EFF6AFA501200120005017E5195
:10334E007F11D8B4ADEF19F0AFEF19F0BBEF19F054
:10335E0002D8BBEF19F00500FA6E7E51FD6E7F515B
:10336E00FE6EFF6AFA5012001200190E01015C6F18
:10337E00040E5D6F600E5E6F050E5F6F5E0E0501D3
:10338E00826F350E836F7FEC1AF001011E83B298A7
:10339E00A2881200010160A1D7EF19F0D9EF19F040
:1033AE00E5EF19F002D8E5EF19F00500FA6E485076
:1033BE00FD6E4950FE6EFF6AFA50120012004C0E5E
:1033CE0003011B6F980E196F000E186FB19EA18E20
:1033DE006C0E0501826F350E836F7AEC1AF0800E3B
:1033EE0003011A6F1200000E0001606F000E616F74
:1033FE00000E626F000E636F000E646F000E656F3D
:10340E00000E666F000E676F000E686F12005F0E83
:10341E000101946F956996699769000E986F000E79
:10342E00996F000E9A6F000E9B6F810E816F1200C6
:10343E00B2EC1AF0C086FAEC19F0F2EC17F03EEC92
:10344E001AF0C6EC18F0E6EC19F04DEC18F012007C
:10345E00026E02500C0D530EF324D96E010EF420A1
:10346E00DA6EDF50016E1F0E011601281200700E6B
:10347E000001AD6F000EAF6F000EB36F020EB16F95
:10348E00000EB06F1200016E01500C0D540EF3249D
:10349E00D96E010EF420DA6EDF50090B12001FEC0C
:1034AE001AF0ACEC1AF0D68EEAEC18F05DEF1AF0CA
:1034BE000DEF00F0100E0101506F040E516F610EF2
:1034CE00526F050E536F1200010E0101046F010EB3
:1034DE00056F060E066F000E076F120082C580F58F
:1034EE0083C581F5120082C57EF583C57FF5120076
:1034FE0082C548F583C549F5120001010239E8324B
:10350E00070B120082C562F583C563F5120082C5F2
:10351E0064F583C565F5120082C560F583C561F556
:10352E00120082C566F583C567F5120082C56CF57B
:10353E0083C56DF5120082C56AF583C56BF5120061
:10354E0082C568F583C569F51200000E4A6E120039
:10355E0048EC15F01200D69A12000100120012006B
:10356E0012001200120012001200120012001200BD
:06357E0012001200120011
:020000040020DA
:10000000FF0FFF0FFF0FFF0FFF0FFF0FFF0FFF0F80
:10001000FF0FFF0FFF0FFF0FFF0FFF0FFF0FFF0F70
:020000040030CA
:10000000FAEFF7DF9FFFFFFFFFFFFFFFFFFFFFFF9D
:10001000FFFFFFFFFFFFFFFFFFFFFFFFFFFFFFFFF0
:04002000FFFFFFFFE0
:00000001FF
