:040000000DEF00F010
:04000800A9EF14F058
:06001800FF00C0EF15F02F
:0D2600000000010203040506070850010058
:10260E0001011DAF0DEF13F00FEF13F01DEF13F0DF
:10261E0002D81BEF13F00500FA6E1150FD6E12502A
:10262E00FE6EFF6AFA50120001011D9F1DAD22EFD2
:10263E0013F024EF13F032EF13F002D830EF13F053
:10264E000500FA6E0F50FD6E1050FE6EFF6AFA50C6
:10265E00120001011D9D1DAB37EF13F039EF13F082
:10266E0047EF13F002D845EF13F00500FA6E0D5048
:10267E00FD6E0E50FE6EFF6AFA50120001011D9B98
:10268E001CA74CEF13F04EEF13F05CEF13F002D8D3
:10269E005AEF13F00500FA6E0B50FD6E0C50FE6EE5
:1026AE00FF6AFA50120001011C971DA961EF13F089
:1026BE0063EF13F071EF13F002D86FEF13F0050014
:1026CE00FA6E0950FD6E0A50FE6EFF6AFA50120045
:1026DE0001011D991DA576EF13F078EF13F095EF1C
:1026EE0013F002D884EF13F00500FA6E0750FD6E5A
:1026FE000850FE6EFF6AFA501200010154A98AEFCB
:10270E0013F08CEF13F08DEF13F0549960A992EF44
:10271E0013F094EF13F095EF13F060991DA79AEF55
:10272E0013F09CEF13F0B1EF13F002D8A8EF13F0F3
:10273E000500FA6E0550FD6E0650FE6EFF6AFA50E9
:10274E00120001016CA7AEEF13F0B0EF13F0B1EF72
:10275E0013F06C97AE9C1200EAEF13F0BF92BF9489
:10276E000BEF14F0BF94BF820BEF14F0BF94BFB207
:10277E00C3EF13F0C6EF13F0010EC7EF13F0000E08
:10278E00FF0A4F6E4F46BF504F18FD0B4F18BF6ECE
:10279E000BEF14F0BF92BFB4D7EF13F0DAEF13F0D4
:1027AE00010EDBEF13F0000EFF0A4F6E4F464F4641
:1027BE00BF504F18FB0B4F18BF6E0BEF14F0BF92AC
:1027CE00BF840BEF14F013504F6E506A5050000A36
:1027DE00D8B4F4EF13F00BEF14F04F50000AD8B446
:1027EE00B5EF13F0010AD8B4B9EF13F0030AD8B459
:1027FE00BDEF13F0010AD8B4D1EF13F0070AD8B425
:10280E00E6EF13F00BEF14F0120043EF14F0BF924B
:10281E00BF9464EF14F0BF94BF8264EF14F0BF94C2
:10282E00BFB21CEF14F01FEF14F0010E20EF14F0E6
:10283E00000EFF0A4D6E4D46BF504D18FD0B4D1844
:10284E00BF6E64EF14F0BF92BFB430EF14F033EFED
:10285E0014F0010E34EF14F0000EFF0A4D6E4D46CB
:10286E004D46BF504D18FB0B4D18BF6E64EF14F064
:10287E00BF92BF8464EF14F013504D6E4E6A4E50EB
:10288E00000AD8B44DEF14F064EF14F04D50000A66
:10289E00D8B40EEF14F0010AD8B412EF14F0030AF4
:1028AE00D8B416EF14F0010AD8B42AEF14F0070AC0
:1028BE00D8B43FEF14F064EF14F01200516E000E16
:1028CE00506E14EC17F04F6E040E4F18D8B472EF12
:1028DE0014F074EF14F085EF14F05104D8B47AEFBD
:1028EE0014F07CEF14F085EF14F0040E5118D8A4F8
:1028FE0083EF14F085EF14F0A5EF14F001010351EE
:10290E005118F80B5118036F98EF14F01DA992EFA0
:10291E0014F094EF14F098EF14F0020E506EA7EF2F
:10292E0014F00239E832070B5118D8A4A1EF14F0B5
:10293E00A3EF14F08DEF14F0A7EF14F0010E506E0C
:10294E00505012009EACAEEF14F0B0EF14F0BBEF8F
:10295E0014F0AEACB5EF14F0B7EF14F0BBEF14F00B
:10296E0007EC13F0DFEF14F0A1AEC0EF14F0C2EFDE
:10297E0014F0CDEF14F0B1AEC7EF14F0C9EF14F0B0
:10298E00CDEF14F044EC15F0DFEF14F0A1A8D2EF68
:10299E0014F0D4EF14F0DFEF14F0B1A8D9EF14F067
:1029AE00DBEF14F0DFEF14F0E0EC15F0DFEF14F0D6
:1029BE0011008A0E4F6E2E0E506E2DEC17F08C0EEF
:1029CE004F6E2E0E506E32EC17F08E0E4F6E2E0E88
:1029DE00506E37EC17F0880E4F6E2E0E506E28ECA0
:1029EE0017F0840E4F6E2E0E506E1EEC17F0820EE8
:1029FE004F6E2E0E506E19EC17F0860E4F6E2E0E79
:102A0E00506E23EC17F0AE9C000E01011C6F000EF1
:102A1E001D6F080E1E6FFC0E1F6F9E8C1200000E97
:102A2E00BE6E000EBF6E000EC06E080ECA6EC66879
:102A3E00E90EC76EE70EC86E04011069F70E086F37
:102A4E000069000E216F000E096F000E016F000E5F
:102A5E00116F000E026F000E0A6F000E126F0369E7
:102A6E000B69136904690C691469080E246F0B0E47
:102A7E0002013D6F460E0D6F1200B19E014A022AF1
:102A8E00025009E1240E015CD8A050EF15F052EF70
:102A9E0015F058EF15F05DEC16F0000E026E000EFC
:102AAE00016E1504D8A45EEF15F060EF15F070EF0F
:102ABE0015F0142A230E146467EF15F069EF15F064
:102ACE006EEF15F0000E156E000E146EC096FDEC36
:102ADE0015F012000101018F040E65EC14F00009CF
:102AEE00D8A47CEF15F07EEF15F09CEF15F0000EDC
:102AFE0001014C6F380E4D6F000E4E6F000E4F6F72
:102B0E00E00E006F970E016F100E026FF7EC16F0CD
:102B1E00AFEC16F0EDEC16F03EEC17F031EC16F0D3
:102B2E00E0EC14F0060E65EC14F01200000E03013A
:102B3E001F6F000E206F010E216F0B0E1D6FDC0E2E
:102B4E001C6FB1981C51600074FC51F5526A51C54E
:102B5E0052F5516A51104B6E52504C6EA1887E0E3A
:102B6E004F6E2E0E506E0AEC17F0210E03011E6FE3
:102B7E001200820EF66E2D0EF76E000EF86E01EE3E
:102B8E0025F110EE22F00900F5C4EEF4E550E15007
:102B9E00FAE101EE01F1240EEE6AE806FDE1040110
:102BAE00080E5D6F000E5E6F000E5F6F000101EF8D
:102BBE0017F0B1984BC54DF54CC54EF51AEC16F005
:102BCE00034A042A045009E1050E035CD8A0F2EF73
:102BDE0015F0F4EF15F0FCEF15F073EC16F047EC72
:102BEE0016F0000E046E000E036E1200030E131884
:102BFE00D8A404EF16F006EF16F019EF16F0C0B6D3
:102C0E000BEF16F00EEF16F0010E0FEF16F0000E92
:102C1E00FF0A4D6E4D464D464D46C0504D18F70BB2
:102C2E004D18C06E120003011EA520EF16F022EF04
:102C3E0016F02BEF16F01E914E501D6F610034F5FD
:102C4E001CF31E8130EF16F04E501D6F610034F5EF
:102C5E001CF31200000E4F6E4F50020D260EF32481
:102C6E00D96E050EF420DA6E000EDF6E4F2A4F502D
:102C7E00D8B444EF16F046EF16F033EF16F012000C
:102C8E0049504A10D8B44EEF16F050EF16F05CEFE4
:102C9E0016F002D85CEF16F00500FA6E4950FD6E84
:102CAE004A50FE6EFF6AFA5012001200475048104A
:102CBE00D8B464EF16F066EF16F072EF16F002D885
:102CCE0072EF16F00500FA6E4750FD6E4850FE6E1C
:102CDE00FF6AFA5012001200020E1318D8B47AEFDF
:102CEE0016F07CEF16F085EF16F0030E1318D8A42D
:102CFE0083EF16F085EF16F087EF16F00CEC14F05C
:102D0E001200000E0001606F000E616F000E626F08
:102D1E00000E636F000E646F000E656F000E666F1F
:102D2E00000E676F000E686F12004C0E03011B6FD2
:102D3E00980E196F000E186FB19EA18E800E4F6EF9
:102D4E002E0E506E0FEC17F0800E03011A6F12004C
:102D5E00100E0101506F040E516F600E526F050E72
:102D6E00536F900E5C6F040E5D6F600E5E6F050EFE
:102D7E005F6F1200020042554646455243414E00D7
:102D8E000000000000000000000000000000000035
:102D9E000000000000003CEC17F088EC16F016EC7A
:102DAE0015F0E1EC16F09DEC15F09CEC16F071ECC4
:102DBE0015F01200700E0001AD6F000EAF6F000E19
:102DCE00B36F020EB16F000EB06F1200080E01014C
:102DDE00686F040E696F600E6A6F050E6B6F1200DE
:102DEE00010E0101046F010E056F060E066F000E37
:102DFE00076F1200D2EC16F0D68EB3EC13F004EF80
:102E0E0017F00DEF00F04FC549F550C54AF5120009
:102E1E004FC547F550C548F5120001010239E83299
:102E2E00070B12004FC507F550C508F512004FC528
:102E3E0009F550C50AF512004FC505F550C506F542
:102E4E0012004FC50BF550C50CF512004FC511F50C
:102E5E0050C512F512004FC50FF550C510F51200F2
:102E6E004FC50DF550C50EF51200D69A1200120080
:102E7E0012001200120012001200120012001200B4
:022E8E00120030
:020000040020DA
:10000000FF0FFF0FFF0FFF0FFF0FFF0FFF0FFF0F80
:10001000FF0FFF0FFF0FFF0FFF0FFF0FFF0FFF0F70
:020000040030CA
:10000000FAFFF7DF9FFFFFFFFFFFFFFFFFFFFFFF8D
:10001000FFFFFFFFFFFFFFFFFFFFFFFFFFFFFFFFF0
:04002000FFFFFFFFE0
:00000001FF
