:020000040000FA
:040000000DEF00F010
:040008004BEF16F0B4
:06001800FF0072EF18F07A
:0D2600000000010203040506070850010058
:10260E0020EE04F00C50D9260D50DA22DF50176E52
:10261E0017C510F520EE04F00E50D9260F50DA2211
:10262E0010461046DF501018C30B1018DF6E17B887
:10263E0023EF13F027EF13F0106A102A28EF13F090
:10264E00106A20EE04F00E50D9260F50DA22DF5019
:10265E001018FE0B1018DF6E17BA38EF13F03CEFA0
:10266E0013F0106A102A3DEF13F0106A20EE04F0FA
:10267E000E50D9260F50DA221046DF501018FD0BDF
:10268E001018DF6E17BC4EEF13F052EF13F0106AF6
:10269E00102A53EF13F0106A20EE04F00E50D926D4
:1026AE000F50DA2210321032DF5010187F0B101834
:1026BE00DF6E17BE65EF13F069EF13F0106A102A84
:1026CE006AEF13F0106A20EE04F00E50D9260F5068
:1026DE00DA22103A10461046DF501018BF0B1018B1
:1026EE00DF6E20EE01F00C50D9260D50DA22DF50AD
:1026FE00106E070E10161050136E146A156A166AB5
:10270E0015C516F514C515F513C514F5136A610034
:10271E0030F4D9F4610034F4DAF4DF50106E105056
:10272E00131220EE04F00E50D9260F50DA22DFA03D
:10273E00A3EF13F0A5EF13F0E6EF13F0050ED8900C
:10274E001336143615361636E82EA6EF13F020EE95
:10275E0003F00C50D9260D50DA22DF50106E1F0EEA
:10276E0010161050131215C516F514C515F513C510
:10277E0014F5136A20EE02F00C50D9260D50DA2211
:10278E00DF50106E10501312050ED89013361436FB
:10279E0015361636E82ECCEF13F020EE01F00C5065
:1027AE00D9260D50DA22DF50106ED8901032D89004
:1027BE001032D89010321F0E1016105013126100E6
:1027CE0038F4D9F461003CF4DAF461004CF4DEF430
:1027DE00610050F4DEF4610054F4DEF4610058F44C
:1027EE00DEF46E0E016E050E026E080E0C24036EE4
:1027FE00000E0D20046E20EE04F00E50D9260F5060
:10280E00DA22DF30E8320F0B106E116A010E10243F
:10281E00F66E260E1120F76EF86A000EF8220800EA
:10282E00F550056E066AF0EC17F020EE05F00E502E
:10283E00D9260F50DA226E0EDE6E050EDD6E1200F8
:10284E0001011DAF2DEF14F02FEF14F03EEF14F039
:10285E0002D83CEF14F00500FA6E05016C51FD6EC6
:10286E006D51FE6EFF6AFA50120001011D9F1DADE3
:10287E0043EF14F045EF14F054EF14F002D852EF7A
:10288E0014F00500FA6E05016A51FD6E6B51FE6E75
:10289E00FF6AFA50120001011D9D1DAB59EF14F095
:1028AE005BEF14F06AEF14F002D868EF14F0050035
:1028BE00FA6E05016851FD6E6951FE6EFF6AFA509F
:1028CE00120001011D9B1CA76FEF14F071EF14F0A5
:1028DE0080EF14F002D87EEF14F00500FA6E0501B9
:1028EE006651FD6E6751FE6EFF6AFA5012000101CD
:1028FE001C971DA985EF14F087EF14F096EF14F0D6
:10290E0002D894EF14F00500FA6E05016451FD6EC5
:10291E006551FE6EFF6AFA50120001011D991DA548
:10292E009BEF14F09DEF14F0B3EF14F002D8AAEF62
:10293E0014F00500FA6E05016251FD6E6351FE6ED4
:10294E00FF6AFA501200010154A9B0EF14F0B2EF71
:10295E0014F0B3EF14F054991DA7B8EF14F0BAEFBA
:10296E0014F0D0EF14F002D8C7EF14F00500FA6E91
:10297E0005016051FD6E6151FE6EFF6AFA50120044
:10298E00010160A7CDEF14F0CFEF14F0D0EF14F0EB
:10299E006097AE9C1200BCEC19F0D68EC096000E5D
:1029AE000501776F640E766FF2EC18F0C086000E9C
:1029BE000501776F640E766FF2EC18F0BF82BF944C
:1029CE00000E0501776F640E766FF2EC18F0BFB251
:1029DE00F3EF14F0F6EF14F0010EF7EF14F0000E13
:1029EE00FF0A05017A6F7A47BF507A19FD0B7A19E3
:1029FE00BF6EBFB405EF15F008EF15F0010E09EF2D
:102A0E0015F0000EFF0A7A6F7A477A47BF507A198F
:102A1E00FB0B7A19BF6E000E776F640E766FF2ECB9
:102A2E0018F0BFB21DEF15F020EF15F0010E21EFDB
:102A3E0015F0000EFF0A05017A6F7A47BF507A191A
:102A4E00FD0B7A19BF6EBFB42FEF15F032EF15F0F4
:102A5E00010E33EF15F0000EFF0A7A6F7A477A47B0
:102A6E00BF507A19FB0B7A19BF6E000E776F640E8A
:102A7E00766FF2EC18F0BFB247EF15F04AEF15F093
:102A8E00010E4BEF15F0000EFF0A05017A6F7A4723
:102A9E00BF507A19FD0B7A19BF6EBFB459EF15F0FE
:102AAE005CEF15F0010E5DEF15F0000EFF0A7A6F68
:102ABE007A477A47BF507A19FB0B7A19BF6E000E10
:102ACE00776F640E766FF2EC18F0D5EF14F00DEF11
:102ADE0000F0216E000E1D6E1850E7EC19F0206EFE
:102AEE0020A07CEF15F07EEF15F0E4EF15F01850F6
:102AFE000C0D580EF324D96E010EF420DA6E61001F
:102B0E0078F31EF5610074F31FF51E501F10D8B434
:102B1E0093EF15F095EF15F0E4EF15F01EC50CF5DB
:102B2E001FC50DF519C50EF51AC50FF507EC13F0F7
:102B3E0018500C0D510EF324D96E010EF420DA6EDE
:102B4E00000EDB802150020D800EF324D96E050E8F
:102B5E00F420DA6EDF2A1850CCEC19F01B6E2150DF
:102B6E00020D800EF324D96E050EF420DA6E1B5082
:102B7E00DE5CD8A0C5EF15F0C7EF15F0D1EF15F05C
:102B8E002150020D800EF324D96E050EF420DA6E5C
:102B9E00000EDF6E20A6D6EF15F0D8EF15F0E2EF9F
:102BAE0015F018500C0D540EF324D96E010EF420AE
:102BBE00DA6EF70EDF16010E1D6E1D501200000E9E
:102BCE00036E000E0A6E0A50020D7F0EF324D96EAC
:102BDE00050EF420DA6EDF50066E0650E7EC19F0A3
:102BEE00056E05A0FDEF15F0FFEF15F040EF16F0A6
:102BFE000650CCEC19F0076E05A608EF16F00AEF9A
:102C0E0016F00EEF16F007C504F53EEF16F006505F
:102C1E000C0D550EF324D96E010EF420DA6EDF5032
:102C2E001F0B086E0A50020D800EF324D96E050E8E
:102C3E00F420DA6EDF50096E0950085CD8B02AEF26
:102C4E0016F02CEF16F032EF16F00950085C072440
:102C5E00046E3EEF16F00850095CD8B039EF16F04E
:102C6E003BEF16F00AEF16F00950085C046E0450A4
:102C7E0003260A2A0A50D8B447EF16F049EF16F089
:102C8E00EAEF15F0035012006100D8F338F5610039
:102C9E00DCF339F56100E0F33AF56100D4F33BF56E
:102CAE009EAC5CEF16F05EEF16F069EF16F0AEAC70
:102CBE0063EF16F065EF16F069EF16F027EC14F0DF
:102CCE009FEF16F0A2A86EEF16F070EF16F07BEFE6
:102CDE0016F0B2A875EF16F077EF16F07BEF16F040
:102CEE0068EC19F09FEF16F0A1AE80EF16F082EFB0
:102CFE0016F08DEF16F0B1AE87EF16F089EF16F0E5
:102D0E008DEF16F0C3EC17F09FEF16F0A1A892EF1F
:102D1E0016F094EF16F09FEF16F0B1A899EF16F09B
:102D2E009BEF16F09FEF16F0D7EC18F09FEF16F012
:102D3E006100ECF4F5F46100E8F4F8F46100E4F4F9
:102D4E00F7F46100E0F4F6F41100E6EC15F000097A
:102D5E00D8B4B4EF16F0B6EF16F00BEF17F04D0E29
:102D6E00226E050E236E49EC18F0E806D8A4C2EFC9
:102D7E0016F0C4EF16F00BEF17F000F04DC533F55B
:102D8E004EC534F54FC535F550C536F5610048F5DD
:102D9E00D9F461004CF5DAF4DF50376EDFEF16F040
:102DAE003750030B426E0BEF17F000F00BEF17F0DE
:102DBE0033C526F534C527F535C528F536C529F5AD
:102DCE002950000AD8B404EF17F0DCEF16F02750A4
:102DDE00050AD8B4F5EF16F0DCEF16F02650000A0F
:102DEE00D8B4D7EF16F0010AD8B40BEF17F0030AD8
:102DFE00D8B40BEF17F0DCEF16F02850000AD8B459
:102E0E00EEEF16F0DCEF16F012000501786F000EF3
:102E1E000501776F16EC1AF00501766F040E761920
:102E2E00D8B41CEF17F01EEF17F02FEF17F0780540
:102E3E00D8B424EF17F026EF17F02FEF17F0040E8B
:102E4E007819D8A42DEF17F02FEF17F054EF17F0D5
:102E5E000101035105017819F80B78190101036F6F
:102E6E0046EF17F001011DA93FEF17F041EF17F0E4
:102E7E0046EF17F0020E0501776F56EF17F0023985
:102E8E00E832070B05017819D8A450EF17F052EF6E
:102E9E0017F039EF17F056EF17F0010E776F7751E5
:102EAE001200920E0501766F340E776F2FEC1AF02A
:102EBE00940E0501766F340E776F34EC1AF0960E81
:102ECE000501766F340E776F39EC1AF0900E05010E
:102EDE00766F340E776F2AEC1AF08C0E0501766F32
:102EEE00340E776F20EC1AF08A0E0501766F340ED1
:102EFE00776F1BEC1AF08E0E0501766F340E776F1E
:102F0E0025EC1AF0AE9C000E01011C6F000E1D6F19
:102F1E000A0E1E6FFC0E1F6F9E8C1200000EBE6EF0
:102F2E00000EBF6E000EC06E080ECA6EC668E90EA9
:102F3E00C76EE70EC86E04011069F10E086F0069C6
:102F4E00000E216F000E096F000E016F000E116F43
:102F5E00000E026F000E0A6F000E126F03690B69EE
:102F6E00136904690C691469080E246F0B0E0201B3
:102F7E003D6F460E0D6F1200B19E3C4A3D2A3D50EC
:102F8E0009E1240E3C5CD8A0CFEF17F0D1EF17F07B
:102F9E00D7EF17F051EC19F0000E3D6E000E3C6E9F
:102FAE004404D8A4DDEF17F0DFEF17F0EFEF17F0C2
:102FBE00432A230E4364E6EF17F0E8EF17F0EDEF28
:102FCE0017F0000E446E000E436EC096BAEC18F069
:102FDE00120003C509F504C50AF501C507F502C5BA
:102FEE0008F50FEF18F0610024F4D9F4610028F40D
:102FFE00DAF4DF500B6E094A0A2A61001CF4D9F488
:10300E00610020F4DAF461002CF4DFF4074A082A98
:10301E000506D8A00606052806E10628D8A41AEF4C
:10302E0018F01CEF18F0FAEF17F012000101018FE3
:10303E00040E0CEC17F00009D8A428EF18F02AEFB4
:10304E0018F048EF18F0000E01014C6F260E4D6F70
:10305E00000E4E6F000E4F6F600E006F970E016FD9
:10306E00100E026FFDEC19F0F3EC19F07FEC19F075
:10307E0041EC1AF00CEC19F058EC17F0060E0CECB3
:10308E0017F01200000E256E2550020D7F0EF32450
:10309E00D96E050EF420DA6EDF50186E22C519F5C2
:1030AE0023C51AF5255070EC15F0246E2450D8B4B3
:1030BE0063EF18F065EF18F067EF18F070EF18F087
:1030CE00252A2550D8B46EEF18F070EF18F04BEF9C
:1030DE0018F024501200800EF66E340EF76E000EAD
:1030EE00F86E09006100D4F37FF509006100D4F396
:1030FE0080F501EE60F1160EEE6AE806FDE101EED6
:10310E003CF11F0EEE6AE806FDE10401080E5D6F4C
:10311E00000E5E6F000E5F6F0001D2EF14F0000E16
:10312E0003011F6F000E206F010E216F0B0E1D6F1E
:10313E00DC0E1C6FB1981C51600074FC78F5050113
:10314E00796B78C579F5786B78115B6E79515C6E19
:10315E00A188840E766F340E776F07EC1AF0210E6D
:10316E0003011E6F1200030E4218D8A4C1EF18F00F
:10317E00C3EF18F0D6EF18F0C0B6C8EF18F0CBEFCB
:10318E0018F0010ECCEF18F0000EFF0A016E01468A
:10319E0001460146C0500118F70B0118C06E12000F
:1031AE00B1985BC501F55CC502F523EC19F03E4AFA
:1031BE003F2A3F5009E1050E3E5CD8A0E9EF18F01A
:1031CE00EBEF18F0F1EF18F03AEC19F0000E3F6E3D
:1031DE00000E3E6E1200FDEF18F0040E0501786F22
:1031EE003D0EE82EFED7782FFCD700D005017607CE
:1031FE00D8A07707762906E17729D8A409EF19F028
:10320E000BEF19F0F4EF18F01200000E0501766FB7
:10321E007651020D800EF324D96E050EF420DA6E6F
:10322E00000EDF6E762B7651D8B420EF19F022EF18
:10323E0019F00FEF19F0120003011EA529EF19F076
:10324E002BEF19F034EF19F01E9102501D6F610033
:10325E0004F41CF31E8139EF19F002501D6F61004A
:10326E0004F41CF3120005017D517E11D8B442EF17
:10327E0019F044EF19F050EF19F002D850EF19F091
:10328E000500FA6E7D51FD6E7E51FE6EFF6AFA509C
:10329E001200120005017B517C11D8B459EF19F0C0
:1032AE005BEF19F067EF19F002D867EF19F0050020
:1032BE00FA6E7B51FD6E7C51FE6EFF6AFA50120063
:1032CE001200010160A16EEF19F070EF19F07EEFA0
:1032DE0019F002D87CEF19F00500FA6E4050FD6E21
:1032EE004150FE6EFF6AFA501200ACEC16F012005E
:1032FE00190E01015C6F040E5D6F600E5E6F050EA0
:10330E005F6F880E0501766F340E776F11EC1AF031
:10331E0001011E83B298A28812004C0E03011B6F8E
:10332E00980E196F000E186FB19EA18E860E0501B4
:10333E00766F340E776F0CEC1AF0800E03011A6F55
:10334E001200000E0001606F000E616F000E626FC2
:10335E00000E636F000E646F000E656F000E666FD9
:10336E00000E676F000E686F12003EEC1AF0C086FA
:10337E00A8EC19F095EC17F0DBEC19F096EC18F0C0
:10338E0094EC19F01DEC18F01200026E02500C0DA8
:10339E00530EF324D96E010EF420DA6EDF50016E57
:1033AE001F0E011601281200700E0001AD6F000EE7
:1033BE00AF6F000EB36F020EB16F000EB06F120042
:1033CE00016E01500C0D540EF324D96E010EF42033
:1033DE00DA6EDF50090B1200100E0101506F040E51
:1033EE00516F600E526F050E536F1200010E0101E8
:1033FE00046F010E056F060E066F000E076F1200AA
:10340E0076C57DF577C57EF5120076C57BF577C559
:10341E007CF5120076C540F577C541F51200010125
:10342E000239E832070B120076C562F577C563F5EF
:10343E00120076C564F577C565F5120076C560F5A0
:10344E0077C561F5120076C566F577C567F512008A
:10345E0076C56CF577C56DF5120076C56AF577C53C
:10346E006BF5120076C568F577C569F51200D69A28
:10347E0012000100120012001200120012001200BF
:0A348E0012001200120012001200DA
:020000040020DA
:10000000FF0FFF0FFF0FFF0FFF0FFF0FFF0FFF0F80
:10001000FF0FFF0FFF0FFF0FFF0FFF0FFF0FFF0F70
:020000040030CA
:10000000FAEFF7DF9FFFFFFFFFFFFFFFFFFFFFFF9D
:10001000FFFFFFFFFFFFFFFFFFFFFFFFFFFFFFFFF0
:04002000FFFFFFFFE0
:00000001FF
