:020000040000FA
:040000000DEF00F010
:04000800EFEF13F013
:06001800FF0006EF15F0E9
:0D2600000000010203040506070850010058
:10260E0001011DAF0DEF13F00FEF13F01DEF13F0DF
:10261E0002D81BEF13F00500FA6E1150FD6E12502A
:10262E00FE6EFF6AFA50120001011D9F1DAD22EFD2
:10263E0013F024EF13F032EF13F002D830EF13F053
:10264E000500FA6E0F50FD6E1050FE6EFF6AFA50C6
:10265E00120001011D9D1DAB37EF13F039EF13F082
:10266E0047EF13F002D845EF13F00500FA6E0D5048
:10267E00FD6E0E50FE6EFF6AFA50120001011D9B98
:10268E001CA74CEF13F04EEF13F05CEF13F002D8D3
:10269E005AEF13F00500FA6E0B50FD6E0C50FE6EE5
:1026AE00FF6AFA50120001011C971DA961EF13F089
:1026BE0063EF13F071EF13F002D86FEF13F0050014
:1026CE00FA6E0950FD6E0A50FE6EFF6AFA50120045
:1026DE0001011D991DA576EF13F078EF13F08DEF24
:1026EE0013F002D884EF13F00500FA6E0750FD6E5A
:1026FE000850FE6EFF6AFA501200010154A98AEFCB
:10270E0013F08CEF13F08DEF13F054991DA792EF89
:10271E0013F094EF13F0A9EF13F002D8A0EF13F01B
:10272E000500FA6E0550FD6E0650FE6EFF6AFA50F9
:10273E001200010160A7A6EF13F0A8EF13F0A9EFA6
:10274E0013F06097AE9C1200516E000E506E58EC56
:10275E0016F04F6E040E4F18D8B4B8EF13F0BAEF50
:10276E0013F0CBEF13F05104D8B4C0EF13F0C2EF57
:10277E0013F0CBEF13F0040E5118D8A4C9EF13F0D9
:10278E00CBEF13F0EBEF13F0010103515118F80BDF
:10279E005118036FDEEF13F01DA9D8EF13F0DAEF27
:1027AE0013F0DEEF13F0020E506EEDEF13F0023960
:1027BE00E832070B5118D8A4E7EF13F0E9EF13F046
:1027CE00D3EF13F0EDEF13F0010E506E50501200D8
:1027DE009EACF4EF13F0F6EF13F001EF14F0AEAC85
:1027EE00FBEF13F0FDEF13F001EF14F007EC13F015
:1027FE0025EF14F0A1AE06EF14F008EF14F013EF6E
:10280E0014F0B1AE0DEF14F00FEF14F013EF14F04F
:10281E008AEC14F025EF14F0A1A818EF14F01AEFBB
:10282E0014F025EF14F0B1A81FEF14F021EF14F0FF
:10283E0025EF14F043EC15F025EF14F01100120EF5
:10284E004F6E2D0E506E71EC16F0140E4F6E2D0E47
:10285E00506E76EC16F0160E4F6E2D0E506E7BEC03
:10286E0016F0100E4F6E2D0E506E6CEC16F00C0E08
:10287E004F6E2D0E506E62EC16F00A0E4F6E2D0E30
:10288E00506E5DEC16F00E0E4F6E2D0E506E67EC08
:10289E0016F0AE9C000E01011C6F000E1D6F080E8F
:1028AE001E6FFC0E1F6F9E8C1200000EBE6E000E71
:1028BE00BF6E000EC06E080ECA6EC668E90EC76EF9
:1028CE00E70EC86E04011069F10E086F0069000E64
:1028DE00216F000E096F000E016F000E116F000EBA
:1028EE00026F000E0A6F000E126F03690B691369F7
:1028FE0004690C691469080E246F0B0E02013D6FFA
:10290E00460E0D6F1200B19E014A022A025009E1D5
:10291E00240E015CD8A096EF14F098EF14F09EEF01
:10292E0014F0B8EC15F0000E026E000E016E1504D8
:10293E00D8A4A4EF14F0A6EF14F0B6EF14F0142AF6
:10294E00230E1464ADEF14F0AFEF14F0B4EF14F0E7
:10295E00000E156E000E146EC09626EC15F01200C9
:10296E000101018F040EABEC13F00009D8A4C2EFE5
:10297E0014F0C4EF14F0E2EF14F0000E01014C6FEE
:10298E00260E4D6F000E4E6F000E4F6FE00E006F55
:10299E00970E016F100E026F44EC16F030EC16F02D
:1029AE003AEC16F082EC16F08CEC15F026EC14F0E6
:1029BE00060EABEC13F01200000E03011F6F000E9B
:1029CE00206F010E216F0B0E1D6FDC0E1C6FB19868
:1029DE001C51600074FC51F5526A51C552F5516A92
:1029EE0051104B6E52504C6EA188060E4F6E2D0E2E
:1029FE00506E4EEC16F0210E03011E6F1200EA0E01
:102A0E00F66E2B0EF76E000EF86E01EE25F110EE3F
:102A1E0022F00900F5C4EEF4E550E150FAE101EEC2
:102A2E0001F1240EEE6AE806FDE10401080E5D6F69
:102A3E00000E5E6F000E5F6F000106EF16F0030EC4
:102A4E001318D8A42DEF15F02FEF15F042EF15F057
:102A5E00C0B634EF15F037EF15F0010E38EF15F064
:102A6E00000EFF0A4D6E4D464D464D46C0504D1858
:102A7E00F70B4D18C06E1200B1984BC54DF54CC5F5
:102A8E004EF575EC15F0034A042A045009E1050EC3
:102A9E00035CD8A055EF15F057EF15F05DEF15F06C
:102AAE00A2EC15F0000E046E000E036E120067EF1E
:102ABE0015F0040E516E3E0EE82EFED7512EFCD7A9
:102ACE004F06D8A050064F2806E15028D8A472EF22
:102ADE0015F074EF15F060EF15F0120003011EA54E
:102AEE007BEF15F07DEF15F086EF15F01E914E5031
:102AFE001D6F610034F51CF31E818BEF15F04E50E7
:102B0E001D6F610034F51CF31200000E4F6E4F5016
:102B1E00020D260EF324D96E050EF420DA6E000E89
:102B2E00DF6E4F2A4F50D8B49FEF15F0A1EF15F07E
:102B3E008EEF15F0120049504A10D8B4A9EF15F0D7
:102B4E00ABEF15F0B7EF15F002D8B7EF15F00500A3
:102B5E00FA6E4950FD6E4A50FE6EFF6AFA50120030
:102B6E00120047504810D8B4BFEF15F0C1EF15F062
:102B7E00CDEF15F002D8CDEF15F00500FA6E4750E7
:102B8E00FD6E4850FE6EFF6AFA5012001200000EE3
:102B9E000001606F000E616F000E626F000E636FBA
:102BAE00000E646F000E656F000E666F000E676F8D
:102BBE00000E686F12004C0E03011B6F980E196FFA
:102BCE00000E186FB19EA18E080E4F6E2D0E506E18
:102BDE0053EC16F0800E03011A6F120001004255DD
:102BEE004646455243414E000000000000000000E2
:102BFE00000000000000000000000000000015ECC6
:102C0E0016F0D68EC086030E506EE80E4F6E5EEC3A
:102C1E0015F0C09609EF16F00DEF00F080EC16F0EF
:102C2E00CEEC15F05CEC14F024EC16F0E3EC14F0A2
:102C3E00E2EC15F0B7EC14F01200700E0001AD6F5F
:102C4E00000EAF6F000EB36F020EB16F000EB06FBD
:102C5E001200100E0101506F040E516F600E526F74
:102C6E00050E536F1200180E01015C6F040E5D6F9E
:102C7E00600E5E6F050E5F6F1200010E0101046F94
:102C8E00010E056F060E066F000E076F12004FC580
:102C9E0049F550C54AF512004FC547F550C548F5E0
:102CAE00120001010239E832070B12004FC507F579
:102CBE0050C508F512004FC509F550C50AF51200AA
:102CCE004FC505F550C506F512004FC50BF550C59D
:102CDE000CF512004FC511F550C512F512004FC577
:102CEE000FF550C510F512004FC50DF550C50EF578
:102CFE001200D69A120012001200120012001200D8
:0A2D0E001200120012001200120061
:020000040020DA
:10000000FF0FFF0FFF0FFF0FFF0FFF0FFF0FFF0F80
:10001000FF0FFF0FFF0FFF0FFF0FFF0FFF0FFF0F70
:020000040030CA
:10000000FAEFF7DF9FFFFFFFFFFFFFFFFFFFFFFF9D
:10001000FFFFFFFFFFFFFFFFFFFFFFFFFFFFFFFFF0
:04002000FFFFFFFFE0
:00000001FF
