:020000040000FA
:040000000DEF00F010
:04000800EAEF18F013
:06001800FF006DEF1BF07C
:0D2600000000010203040506070850010058
:10260E00610038F4D9F461003CF4DAF4610078F337
:10261E0014F5610078F315F5610078F316F5610095
:10262E0078F317F520EE04F00E50D9260F50DA226B
:10263E00DFA024EF13F026EF13F060EF13F020EE7F
:10264E0001F00C50D9260D50DA221438E842F80B5E
:10265E00F80BDF6E050E106ED8901732163215324B
:10266E001432102E33EF13F020EE02F00C50D92658
:10267E000D50DA22610050F4DFF415C514F516C5BD
:10268E0015F517C516F5176A20EE03F00C50D9266E
:10269E000D50DA2214501F0BDF6E050E106ED890FF
:1026AE001732163215321432102E56EF13F078EF11
:1026BE0013F020EE03F00C50D9260D50DA22000E46
:1026CE00DF6E10EE02F00C50E1260D50E222DFC458
:1026DE00E7F420EE01F00C50D9260D50DA22E7C4B3
:1026EE00DFF4610030F4D9F4610034F4DAF46100FF
:1026FE0050F4DFF415C514F516C515F517C516F506
:10270E00176A14C510F5070E101620EE01F00C50C6
:10271E00D9260D50DA221050DF1220EE04F00E50A2
:10272E00D9260F50DA22DF30E8320F0B136E20EE6F
:10273E0004F00E50D9260F50DA22DFB0A9EF13F0B5
:10274E00ADEF13F0106A102AAEEF13F0106A1038C6
:10275E00F00B131220EE04F00E50D9260F50DA2291
:10276E00DFB2BCEF13F0C0EF13F0200E106EC1EF0E
:10277E0013F0106A1050131220EE04F00E50D926EA
:10278E000F50DA22DFBECEEF13F0D2EF13F0400E71
:10279E00106ED3EF13F0106A1050131220EE04F0E7
:1027AE000E50D9260F50DA22DFBCE0EF13F0E4EF23
:1027BE0013F0800E106EE5EF13F0106A1050131226
:1027CE0020EE04F00C50D9260D50DA2261004CF4A4
:1027DE00DFF420EE04F00E50D9260F50DA22DFB2CD
:1027EE00FBEF13F0FDEF13F029EF14F0080E0C249D
:1027FE00016E000E0D20026E20EE05F00E50D92651
:10280E000F50DA22610078F303F5610074F304F5DA
:10281E0020EE04F00E50D9260F50DA22DF30E832C7
:10282E000F0B106E116A010E1024F66E260E11207B
:10283E00F76EF86A000EF8220800F550056E066A6B
:10284E00EBEC1AF0120020EE04F00C50D9260D50CD
:10285E00DA22DF50176E17C510F520EE04F00E5079
:10286E00D9260F50DA2210461046DF501018C30B2F
:10287E001018DF6E17B846EF14F04AEF14F0106A16
:10288E00102A4BEF14F0106A20EE04F00E50D926E9
:10289E000F50DA22DF501018FE0B1018DF6E17BA29
:1028AE005BEF14F05FEF14F0106A102A60EF14F073
:1028BE00106A20EE04F00E50D9260F50DA22104680
:1028CE00DF501018FD0B1018DF6E17BC71EF14F0EF
:1028DE0075EF14F0106A102A76EF14F0106A20EEDD
:1028EE0004F00E50D9260F50DA2210321032DF507B
:1028FE0010187F0B1018DF6E17BE88EF14F08CEFD8
:10290E0014F0106A102A8DEF14F0106A20EE04F005
:10291E000E50D9260F50DA22103A10461046DF50CC
:10292E001018BF0B1018DF6E20EE01F00C50D926D8
:10293E000D50DA22DF50106E070E10161050136E67
:10294E00146A156A166A15C516F514C515F513C55C
:10295E0014F5136A610030F4D9F4610034F4DAF43A
:10296E00DF50106E1050131220EE04F00E50D926C8
:10297E000F50DA22DFA0C6EF14F0C8EF14F009EF03
:10298E0015F0050ED8901336143615361636E82E79
:10299E00C9EF14F020EE03F00C50D9260D50DA22B8
:1029AE00DF50106E1F0E10161050131215C516F5AF
:1029BE0014C515F513C514F5136A20EE02F00C506C
:1029CE00D9260D50DA22DF50106E10501312050E5C
:1029DE00D8901336143615361636E82EEFEF14F05F
:1029EE0020EE01F00C50D9260D50DA22DF50106E79
:1029FE00D8901032D8901032D89010321F0E101678
:102A0E0010501312610038F4D9F461003CF4DAF47A
:102A1E0061004CF4DEF4610050F4DEF4610054F415
:102A2E00DEF4610058F4DEF46E0E016E050E026ED9
:102A3E00080E0C24036E000E0D20046E20EE04F022
:102A4E000E50D9260F50DA22DF30E8320F0B106EFF
:102A5E00116A010E1024F66E260E1120F76EF86A1A
:102A6E00000EF8220800F550056E066AEBEC1AF01F
:102A7E0020EE05F00E50D9260F50DA226E0EDE6EC5
:102A8E00050EDD6E120001011DAF50EF15F052EF75
:102A9E0015F061EF15F002D85FEF15F00500FA6E34
:102AAE0005016C51FD6E6D51FE6EFF6AFA501200FB
:102ABE0001011D9F1DAD66EF15F068EF15F077EF64
:102ACE0015F002D875EF15F00500FA6E05016A5182
:102ADE00FD6E6B51FE6EFF6AFA50120001011D9DD4
:102AEE001DAB7CEF15F07EEF15F08DEF15F002D8D3
:102AFE008BEF15F00500FA6E05016851FD6E6951F8
:102B0E00FE6EFF6AFA50120001011D9B1CA792EF88
:102B1E0015F094EF15F0A3EF15F002D8A1EF15F014
:102B2E000500FA6E05016651FD6E6751FE6EFF6A75
:102B3E00FA50120001011C971DA9A8EF15F0AAEF7B
:102B4E0015F0B9EF15F002D8B7EF15F00500FA6ED3
:102B5E0005016451FD6E6551FE6EFF6AFA5012005A
:102B6E0001011D991DA5BEEF15F0C0EF15F0D6EFB2
:102B7E0015F002D8CDEF15F00500FA6E0501625181
:102B8E00FD6E6351FE6EFF6AFA501200010154A9E8
:102B9E00D3EF15F0D5EF15F0D6EF15F054991DA71C
:102BAE00DBEF15F0DDEF15F0F3EF15F002D8EAEFDD
:102BBE0015F00500FA6E05016051FD6E6151FE6E55
:102BCE00FF6AFA501200010160A7F0EF15F0F2EF64
:102BDE0015F0F3EF15F06097AE9C120051EF16F062
:102BEE00500E1E6E030E1F6E000E206E000E216E16
:102BFE00080E226E4CC523F54BC524F5000E256E2E
:102C0E00000E266E000E276E000E286E000E296E28
:102C1E00000E2A6E4DEC17F06AEF16F0510E1E6E76
:102C2E00030E1F6E000E206E000E216E080E226E19
:102C3E004CC523F54BC524F5000E256E000E266EF1
:102C4E00000E276E000E286E000E296E000E2A6EE4
:102C5E004DEC17F06AEF16F0520E1E6E030E1F6E3D
:102C6E00000E206E000E216E080E226E4CC523F54E
:102C7E004BC524F5000E256E000E266E000E276E37
:102C8E00000E286E000E296E000E2A6E4DEC17F007
:102C9E006AEF16F04A502C6E2D6A2D50000AD8B4E9
:102CAE005BEF16F06AEF16F02C50000AD8B4F7EF6F
:102CBE0015F0010AD8B415EF16F0030AD8B433EFA5
:102CCE0016F06AEF16F01200216E000E1D6E1850EF
:102CDE0056EC1DF0206E20A077EF16F079EF16F06F
:102CEE00DFEF16F018500C0D580EF324D96E010EAE
:102CFE00F420DA6E610078F31EF5610074F31FF5AF
:102D0E001E501F10D8B48EEF16F090EF16F0DFEFB6
:102D1E0016F01EC50CF51FC50DF519C50EF51AC515
:102D2E000FF52AEC14F018500C0D510EF324D96E39
:102D3E00010EF420DA6E000EDB802150020D870E9C
:102D4E00F324D96E050EF420DA6EDF2A185022EC29
:102D5E001DF01B6E2150020D870EF324D96E050E49
:102D6E00F420DA6E1B50DE5CD8A0C0EF16F0C2EF76
:102D7E0016F0CCEF16F02150020D870EF324D96E0B
:102D8E00050EF420DA6E000EDF6E20A6D1EF16F0DF
:102D9E00D3EF16F0DDEF16F018500C0D540EF32491
:102DAE00D96E010EF420DA6EF70EDF16010E1D6ECF
:102DBE001D501200076E000E096E20EE04F0025038
:102DCE00D9260350DA22DF500A6E0AAEF1EF16F062
:102DDE00F3EF16F0FEEF16F0D9EC1DF0060AD8A4AC
:102DEE00FBEF16F0FDEF16F0FEEF16F009820A303B
:102DFE00E8320F0B046E080E046408EF17F00AEFAA
:102E0E0017F01CEF17F00AAC0FEF17F011EF17F0D9
:102E1E001BEF17F0D9EC1DF0060AD8A419EF17F026
:102E2E001BEF17F01CEF17F00980090EF66E260E39
:102E3E00F76EF86A08006100D4F304F50A30E83240
:102E4E000F0B056E066A010E0524F66E260E062081
:102E5E00F76EF86A000EF8220800F550045CD8B040
:102E6E003BEF17F03DEF17F03EEF17F009800750DC
:102E7E004AEC1DF00009D8A447EF17F049EF17F000
:102E8E004BEF17F0030E09120950120023C576F509
:102E9E0024C577F525C578F526C579F527C57AF5C4
:102EAE0028C57BF529C57CF52AC57DF51EC556F5C9
:102EBE001FC557F520C558F521C559F55A9C5A9E80
:102ECE005A925A9022C52BF50F0E2B162B462B46D7
:102EDE005A502B18C30B2B185A6E760E5B6E050EBE
:102EEE005C6E83EC1DF0E806D8A480EF17F082EF3D
:102EFE0017F083EF17F000F078EC1DF0E806D8A479
:102F0E008BEF17F08DEF17F08EEF17F000F06DECE2
:102F1E001DF0E806D8A496EF17F098EF17F099EF8A
:102F2E0017F000F031EC1DF0E806D8A4A1EF17F071
:102F3E00A3EF17F0A4EF17F000F0000EDBEC1CF07F
:102F4E002B6E2BA0ADEF17F0AFEF17F0B7EF17F01A
:102F5E00560E186E050E196E000EF6EC19F000F0F6
:102F6E00120000F085EC18F00009D8B4C1EF17F08C
:102F7E00C3EF17F01FEF18F04F0E226E050E236EE3
:102F8E0044EC1BF0E806D8A4CFEF17F0D1EF17F002
:102F9E001FEF18F000F04FC533F550C534F551C58D
:102FAE0035F552C536F5610050F5D9F4610054F58A
:102FBE00DAF4DF50376EFBEF17F04CC54BF5375098
:102FCE00070B4C6E4C504B18D8B4F0EF17F0F2EFD5
:102FDE0017F01FEF18F04DEC19F0EFEC1CF01FEF8F
:102FEE0018F000F01FEF18F033C526F534C527F59D
:102FFE0035C528F536C529F52950000AD8B418EF7D
:10300E0018F0F8EF17F02750050AD8B411EF18F0A2
:10301E00F8EF17F02650020AD8B4E4EF17F0F8EFE5
:10302E0017F02850000AD8B40AEF18F0F8EF17F08E
:10303E00120044502E6E45502F6E444A452A090EFA
:10304E002E5C070E2F58D8A02FEF18F031EF18F086
:10305E0039EF18F0ECEC1DF0000E456E000E446ECC
:10306E0084EF18F042502E6E43502F6E424A432A80
:10307E00850E2E5C030E2F58D8A048EF18F04AEF9D
:10308E0018F052EF18F0EEEC1DF0000E436E000E2D
:10309E00426E84EF18F040502E6E41502F6E404A13
:1030AE00412A2F5009E13D0E2E5CD8A061EF18F099
:1030BE0063EF18F06BEF18F0EDEC1DF0000E416EA3
:1030CE00000E406E84EF18F03E502E6E3F502F6E65
:1030DE003E4A3F2A2F5009E1060E2E5CD8A07AEF09
:1030EE0018F07CEF18F084EF18F0E1EC1DF0000EF4
:1030FE003F6E000E3E6E84EF18F01200000E036E4F
:10310E00000E0A6E0A50020D860EF324D96E050EBD
:10311E00F420DA6EDF50066E065056EC1DF0056E8A
:10312E0005A09CEF18F09EEF18F0DFEF18F0065098
:10313E0022EC1DF0076E05A6A7EF18F0A9EF18F008
:10314E00ADEF18F007C504F5DDEF18F006500C0DC5
:10315E00550EF324D96E010EF420DA6EDF501F0BDC
:10316E00086E0A50020D870EF324D96E050EF42058
:10317E00DA6EDF50096E0950085CD8B0C9EF18F04E
:10318E00CBEF18F0D1EF18F00950085C0724046E4D
:10319E00DDEF18F00850095CD8B0D8EF18F0DAEF70
:1031AE0018F0A9EF18F00950085C046E04500326BD
:1031BE000A2A0A50D8B4E6EF18F0E8EF18F089EFB3
:1031CE0018F0035012006100D8F338F56100DCF3FB
:1031DE0039F56100E0F33AF56100D4F33BF500F008
:1031EE0000F09EACFDEF18F0FFEF18F00AEF19F0AB
:1031FE00AEAC04EF19F006EF19F00AEF19F04AEC35
:10320E0015F040EF19F0A2A80FEF19F011EF19F019
:10321E001CEF19F0B2A816EF19F018EF19F01CEF09
:10322E0019F09EEC1CF040EF19F0A1AE21EF19F051
:10323E0023EF19F02EEF19F0B1AE28EF19F02AEFA7
:10324E0019F02EEF19F040EC1AF040EF19F0A1A88A
:10325E0033EF19F035EF19F040EF19F0B1A83AEF4E
:10326E0019F03CEF19F040EF19F0F6EC1BF040EFBF
:10327E0019F06100ECF4F5F46100E8F4F8F4610083
:10328E00E4F4F7F46100E0F4F6F4110088EF19F0BD
:10329E00BF92BF94A9EF19F0BF94BF82A9EF19F0A6
:1032AE00BF94BFB25DEF19F060EF19F0010E61EF40
:1032BE0019F0000EFF0A016E0146BF500118FD0BFA
:1032CE000118BF6EA9EF19F0BF92BFB471EF19F0DC
:1032DE0074EF19F0010E75EF19F0000EFF0A016E72
:1032EE0001460146BF500118FB0B0118BF6EA9EF36
:1032FE0019F0BF92BF84A9EF19F0BF92BF94A9EF46
:10330E0019F04C50016E026A0250000AD8B492EFC6
:10331E0019F084EF19F00150010AD8B44FEF19F0EB
:10332E00030AD8B453EF19F0010AD8B457EF19F0C5
:10333E00070AD8B46BEF19F0010AD8B480EF19F070
:10334E0084EF19F012000501846F000E0501836FE2
:10335E00B1EC1DF00501826F040E8219D8B4BAEFDC
:10336E0019F0BCEF19F0CDEF19F08405D8B4C2EF07
:10337E0019F0C4EF19F0CDEF19F0040E8419D8A48A
:10338E00CBEF19F0CDEF19F0F2EF19F00101035167
:10339E0005018419F80B84190101036FE4EF19F08C
:1033AE0001011DA9DDEF19F0DFEF19F0E4EF19F0BF
:1033BE00020E0501836FF4EF19F00239E832070BA4
:1033CE0005018419D8A4EEEF19F0F0EF19F0D7EF3C
:1033DE0019F0F4EF19F0010E836F835112001D6E78
:1033EE001D50D7EC1BF00009D8B400EF1AF002EF15
:1033FE001AF03FEF1AF018C502F519C503F51D5066
:10340E00E1EC16F01A6E1A50D8A410EF1AF012EF63
:10341E001AF03FEF1AF01D500C0D580EF324D96E12
:10342E00010EF420DA6E610078F31BF5610074F37F
:10343E001CF51B501C10D8B427EF1AF029EF1AF008
:10344E003FEF1AF01BC50CF51CC50DF518C50EF592
:10345E0019C50FF507EC13F01D500C0D510EF3248A
:10346E00D96E010EF420DA6E030EDF123FEF1AF062
:10347E001200B19E3C4A3D2A3D5009E1040E3C5CCF
:10348E00D8A04CEF1AF04EEF1AF056EF1AF020ECCF
:10349E0018F072EC1CF0000E3D6E000E3C6E4E04E9
:1034AE00D8A45CEF1AF05EEF1AF07FEF1AF04D2AF7
:1034BE00230E4D6465EF1AF067EF1AF06CEF1AF0F9
:1034CE00000E4E6E000E4D6EC096C0B671EF1AF025
:1034DE0074EF1AF0010E75EF1AF0000EFF0A306E3F
:1034EE00304630463046C0503018F70B3018C06E9C
:1034FE001200E60E0501826F3B0E836FCAEC1DF0C3
:10350E00E80E0501826F3B0E836FCFEC1DF0EA0EC5
:10351E000501826F3B0E836FD4EC1DF0E40E0501A6
:10352E00826F3B0E836FC5EC1DF0E00E0501826FBE
:10353E003B0E836FBBEC1DF0DE0E0501826F3B0E62
:10354E00836FB6EC1DF0E20E0501826F3B0E836FAA
:10355E00C0EC1DF0AE9C000E01011C6F000E1D6F25
:10356E000A0E1E6FFC0E1F6F9E8C1200000EBE6E9A
:10357E00000EBF6E000EC06E080ECA6EC668E90E53
:10358E00C76EE70EC86E04011069F10E086F006970
:10359E00000E216F000E096F000E016F000E116FED
:1035AE00000E026F000E0A6F000E126F03690B6998
:1035BE00136904690C691469080E246F0B0E02015D
:1035CE003D6F460E0D6F120003C509F504C50AF5D1
:1035DE0001C507F502C508F50AEF1BF0610024F4DA
:1035EE00D9F4610028F4DAF4DF500B6E094A0A2A86
:1035FE0061001CF4D9F4610020F4DAF461002CF4BB
:10360E00DFF4074A082A0506D8A00606052806E1B3
:10361E000628D8A415EF1BF017EF1BF0F5EF1AF0E4
:10362E0012000101018F040EAAEC19F00009D8A4B2
:10363E0023EF1BF025EF1BF043EF1BF0000E0101F3
:10364E004C6F260E4D6F000E4E6F000E4F6F600EBC
:10365E00006F970E016F100E026F98EC1DF08EEC3E
:10366E001DF089EC1CF001EC1DF02DEC1CF080EC33
:10367E001AF0060EAAEC19F01200000E256E255057
:10368E00020D860EF324D96E050EF420DA6EDF508D
:10369E00186E22C519F523C51AF525506BEC16F0D8
:1036AE00246E2450D8B45EEF1BF060EF1BF062EF77
:1036BE001BF06BEF1BF0252A2550D8B469EF1BF0D9
:1036CE006BEF1BF046EF1BF024501200D20EF66E7D
:1036DE003B0EF76E000EF86E09006100D4F386F50E
:1036EE0009006100D4F387F501EE60F11E0EEE6A5B
:1036FE00E806FDE101EE3CF1210EEE6AE806FDE181
:10370E000401080E5D6F000E5E6F000E5F6F00010C
:10371E0062EF1DF0000E03011F6F000E206F010EF1
:10372E00216F0B0E1D6FDC0E1C6FB1981C516000CB
:10373E0074FC84F50501856B84C585F5846B841155
:10374E005D6E85515E6EA188D40E826F3B0E836FC7
:10375E00A2EC1DF0210E03011E6F1200BF92BF845A
:10376E00C086000E0501836FC80E826F13EC1CF02D
:10377E00BF92BF94C096000E0501836FC80E826F74
:10378E0013EC1CF0BF82BF94C086000E0501836F40
:10379E00C80E826F13EC1CF0BF92BF94C09612003D
:1037AE00026E000E016E040E0260E0EF1BF0E2EFFF
:1037BE001BF0F4EF1BF002500C0D500EF324D96EDB
:1037CE00010EF420DA6E0101DFAEF0EF1BF0F2EF26
:1037DE001BF0F4EF1BF0010E016E01501200B198B8
:1037EE005DC501F55EC502F544EC1CF0464A472A5C
:1037FE00475009E1050E465CD8A008EF1CF00AEF11
:10380E001CF012EF1CF04DEC19F05BEC1CF0000EEE
:10381E00476E000E466E12001EEF1CF0040E0501E0
:10382E00846F3D0EE82EFED7842FFCD700D0050105
:10383E008207D8A08307822906E18329D8A42AEF1C
:10384E001CF02CEF1CF015EF1CF01200000E050101
:10385E00826F8251020D870EF324D96E050EF4206D
:10386E00DA6E000EDF6E822B8251D8B441EF1CF05F
:10387E0043EF1CF030EF1CF0120003011EA54AEFBF
:10388E001CF04CEF1CF055EF1CF01E9102501D6FFA
:10389E00610004F41CF31E815AEF1CF002501D6FE0
:1038AE00610004F41CF31200050180518111D8B49B
:1038BE0063EF1CF065EF1CF071EF1CF002D871EF96
:1038CE001CF00500FA6E8051FD6E8151FE6EFF6A8E
:1038DE00FA501200120005017E517F11D8B47AEF12
:1038EE001CF07CEF1CF088EF1CF002D888EF1CF067
:1038FE000500FA6E7E51FD6E7F51FE6EFF6AFA5024
:10390E0012001200190E01015C6F040E5D6F600E45
:10391E005E6F050E5F6FC80E0501826F3B0E836FE3
:10392E00ACEC1DF001011E83B298A28812000101B9
:10393E0060A1A4EF1CF0A6EF1CF0B2EF1CF002D8B1
:10394E00B2EF1CF00500FA6E4850FD6E4950FE6E47
:10395E00FF6AFA50120012004C0E03011B6F980EF4
:10396E00196F000E186FB19EA18ED60E0501826FD3
:10397E003B0E836FA7EC1DF0800E03011A6F120031
:10398E00000E0001606F000E616F000E626F000E80
:10399E00636F000E646F000E656F000E666F000E93
:1039AE00676F000E686F1200046E000E036E0450F7
:1039BE00D7EC1BF00009D8B4E7EF1CF0E9EF1CF0D0
:1039CE00EDEF1CF004504AEC1DF0036E0350120094
:1039DE00040E4C18D8A4F6EF1CF0F8EF1CF0FDEF17
:1039EE001CF0C086010E4E6E00EF1DF0C096000E4C
:1039FE004E6E12005F0E0101946F9569966997697C
:103A0E00000E986F000E996F000E9A6F000E9B6F4E
:103A1E00810E816F1200E7EC1DF0C086C7EC1CF022
:103A2E00BDEC1AF03EEC1DF091EC1BF0B3EC1CF06B
:103A3E0018EC1BF01200026E02500C0D530EF32404
:103A4E00D96E010EF420DA6EDF50016E1F0E0116D4
:103A5E000128120078EC1DF00009D8B439EF1DF0E2
:103A6E003CEF1DF0010E3DEF1DF0000E1200700E2A
:103A7E000001AD6F000EAF6F000EB36F020EB16F8F
:103A8E00000EB06F1200016E01500C0D540EF32497
:103A9E00D96E010EF420DA6EDF50010B1200016EAA
:103AAE0001500C0D540EF324D96E010EF420DA6E73
:103ABE00DF50090B120012EC1DF0DEEC1DF0D68E5D
:103ACE00B5EC1BF069EF1DF00DEF00F0010136B5FE
:103ADE0073EF1DF076EF1DF0010E77EF1DF0000E67
:103AEE001200010136B97EEF1DF081EF1DF0010EBF
:103AFE0082EF1DF0000E1200010136BB89EF1DF0A2
:103B0E008CEF1DF0010E8DEF1DF0000E1200100E49
:103B1E000101506F040E516F610E526F050E536FFF
:103B2E001200010E0101046F010E056F060E066FE5
:103B3E00000E076F120082C580F583C581F5120055
:103B4E0082C57EF583C57FF5120082C548F583C513
:103B5E0049F5120001010239E832070B120082C545
:103B6E0062F583C563F5120082C564F583C565F5FC
:103B7E00120082C560F583C561F5120082C566F537
:103B8E0083C567F5120082C56CF583C56DF512000D
:103B9E0082C56AF583C56BF5120082C568F583C5CB
:103BAE0069F5120001010239E832070B1200000E0E
:103BBE004A6E1200F5EC15F01200B8EC17F0120078
:103BCE00D69A12000100120012001200120012000A
:0E3BDE0012001200120012001200120012005B
:020000040020DA
:10000000FF0FFF0FFF0FFF0FFF0FFF0FFF0FFF0F80
:10001000FF0FFF0FFF0FFF0FFF0FFF0FFF0FFF0F70
:020000040030CA
:10000000FAEFF7DF9FFFFFFFFFFFFFFFFFFFFFFF9D
:10001000FFFFFFFFFFFFFFFFFFFFFFFFFFFFFFFFF0
:04002000FFFFFFFFE0
:00000001FF
