:020000040000FA
:040000000DEF00F010
:040008007DEF14F084
:06001800FF00C0EF15F02F
:0D2600000000010203040506070850010058
:10260E00D2EC16F0D68EBF82BF94030E4A6EE80E41
:10261E00496E18EC16F0BFB217EF13F01AEF13F065
:10262E00010E1BEF13F0000EFF0A4D6E4D46BF500C
:10263E004D18FD0B4D18BF6EBFB428EF13F02BEFE6
:10264E0013F0010E2CEF13F0000EFF0A4D6E4D46E7
:10265E004D46BF504D18FB0B4D18BF6E030E4A6E04
:10266E00E80E496E18EC16F0BFB240EF13F043EFD0
:10267E0013F0010E44EF13F0000EFF0A4D6E4D469F
:10268E00BF504D18FD0B4D18BF6EBFB451EF13F078
:10269E0054EF13F0010E55EF13F0000EFF0A4D6EBE
:1026AE004D464D46BF504D18FB0B4D18BF6E030ED9
:1026BE004A6EE80E496E18EC16F0BFB269EF13F0D1
:1026CE006CEF13F0010E6DEF13F0000EFF0A4D6E5E
:1026DE004D46BF504D18FD0B4D18BF6EBFB47AEF6F
:1026EE0013F07DEF13F0010E7EEF13F0000EFF0AD4
:1026FE004D6E4D464D46BF504D18FB0B4D18BF6EDF
:10270E00030E4A6EE80E496E18EC16F0000E136EAC
:10271E00130E4A6E880E496E18EC16F0010E136EEB
:10272E00130E4A6E880E496E18EC16F0020E136EDA
:10273E00270E4A6E100E496E18EC16F0040E136E2C
:10274E00130E4A6E880E496E18EC16F0010E136EBB
:10275E000B0E4A6EB80E496E18EC16F0020E136E82
:10276E00130E4A6E880E496E18EC16F0030E136E99
:10277E00010E156E000E146E2E0E4A6EE00E496E90
:10278E0018EC16F0000E136E000E156E0AEF13F015
:10279E000DEF00F001011DAFD7EF13F0D9EF13F0DD
:1027AE00E7EF13F002D8E5EF13F00500FA6E1150C3
:1027BE00FD6E1250FE6EFF6AFA50120001011D9F4F
:1027CE001DADECEF13F0EEEF13F0FCEF13F002D8AB
:1027DE00FAEF13F00500FA6E0F50FD6E1050FE6EFC
:1027EE00FF6AFA50120001011D9D1DAB01EF14F09E
:1027FE0003EF14F011EF14F002D80FEF14F00500F0
:10280E00FA6E0D50FD6E0E50FE6EFF6AFA501200FB
:10281E0001011D9B1CA716EF14F018EF14F026EF04
:10282E0014F002D824EF14F00500FA6E0B50FD6E72
:10283E000C50FE6EFF6AFA50120001011C971DA982
:10284E002BEF14F02DEF14F03BEF14F002D839EF0C
:10285E0014F00500FA6E0950FD6E0A50FE6EFF6A06
:10286E00FA50120001011D991DA540EF14F042EF20
:10287E0014F05FEF14F002D84EEF14F00500FA6E6C
:10288E000750FD6E0850FE6EFF6AFA5012000101ED
:10289E0054A954EF14F056EF14F057EF14F0549966
:1028AE0060A95CEF14F05EEF14F05FEF14F0609926
:1028BE001DA764EF14F066EF14F07BEF14F002D84E
:1028CE0072EF14F00500FA6E0550FD6E0650FE6EA6
:1028DE00FF6AFA50120001016CA778EF14F07AEF3C
:1028EE0014F07BEF14F06C97AE9C12009EAC82EF4E
:1028FE0014F084EF14F08FEF14F0AEAC89EF14F0F7
:10290E008BEF14F08FEF14F0D1EC13F0B3EF14F053
:10291E00A1AE94EF14F096EF14F0A1EF14F0B1AE57
:10292E009BEF14F09DEF14F0A1EF14F018EC15F0DE
:10293E00B3EF14F0A1A8A6EF14F0A8EF14F0B3EFC4
:10294E0014F0B1A8ADEF14F0AFEF14F0B3EF14F034
:10295E00FDEC15F0B3EF14F01100780E496E2E0E4B
:10296E004A6E24EC17F07A0E496E2E0E4A6E29EC42
:10297E0017F07C0E496E2E0E4A6E2EEC17F0760E68
:10298E00496E2E0E4A6E1FEC17F0720E496E2E0E09
:10299E004A6E15EC17F0700E496E2E0E4A6E10EC44
:1029AE0017F0740E496E2E0E4A6E1AEC17F0AE9C8E
:1029BE00000E01011C6F000E1D6F080E1E6FFC0E27
:1029CE001F6F9E8C1200000EBE6E000EBF6E000EAC
:1029DE00C06E080ECA6EC668E90EC76EE70EC86EE8
:1029EE0004011069F10E086F0069000E216F000ED0
:1029FE00096F000E016F000E116F000E026F000EB8
:102A0E000A6F000E126F03690B69136904690C6972
:102A1E001469080E246F0B0E02013D6F460E0D6FEA
:102A2E001200B19E014A022A025009E1240E015CF5
:102A3E00D8A024EF15F026EF15F02CEF15F072EC60
:102A4E0016F0000E026E000E016E1504D8A432EFC1
:102A5E0015F034EF15F044EF15F0142A230E14641C
:102A6E003BEF15F03DEF15F042EF15F0000E156E31
:102A7E00000E146EC096E0EC15F012000101018FED
:102A8E00040E71EC15F00009D8A450EF15F052EFBA
:102A9E0015F070EF15F0000E01014C6F380E4D6FF2
:102AAE00000E4E6F000E4F6FE00E006F970E016F0F
:102ABE00100E026FF7EC16F0AFEC16F0EDEC16F010
:102ACE0035EC17F046EC16F0B4EC14F0060E71EC83
:102ADE0015F012004B6E000E4A6E0BEC17F0496E9D
:102AEE00040E4918D8B47EEF15F080EF15F091EF73
:102AFE0015F04B04D8B486EF15F088EF15F091EF72
:102B0E0015F0040E4B18D8A48FEF15F091EF15F0B9
:102B1E0099EF15F0010103514B18F80B4B18036F89
:102B2E009BEF15F0010E4A6E4A501200000E030183
:102B3E001F6F000E206F010E216F0B0E1D6FDC0E2E
:102B4E001C6FB1981C51600074FC4BF54C6A4BC560
:102B5E004CF54B6A4B10526E4C50536EA1886C0E56
:102B6E00496E2E0E4A6E01EC17F0210E03011E6FF8
:102B7E001200820EF66E2D0EF76E000EF86E01EE3E
:102B8E0025F110EE22F00900F5C4EEF4E550E15007
:102B9E00FAE101EE01F1240EEE6AE806FDE1040110
:102BAE00080E5D6F000E5E6F000E5F6F000107EF87
:102BBE0013F0030E1318D8A4E7EF15F0E9EF15F094
:102BCE00FCEF15F0C0B6EEEF15F0F1EF15F0010EBB
:102BDE00F2EF15F0000EFF0A476E4746474647468E
:102BEE00C0504718F70B4718C06E1200B19852C567
:102BFE0047F553C548F52FEC16F0034A042A045046
:102C0E0009E1050E035CD8A00FEF16F011EF16F0D8
:102C1E0017EF16F05CEC16F0000E046E000E036E4D
:102C2E00120021EF16F0040E4B6E3E0EE82EFED76C
:102C3E004B2EFCD74906D8A04A06492806E14A2859
:102C4E00D8A42CEF16F02EEF16F01AEF16F0120095
:102C5E0003011EA535EF16F037EF16F040EF16F014
:102C6E001E9148501D6F61001CF51CF31E8145EF2F
:102C7E0016F048501D6F61001CF51CF31200000E7B
:102C8E00496E4950020D260EF324D96E050EF4201E
:102C9E00DA6E000EDF6E492A4950D8B459EF16F09D
:102CAE005BEF16F048EF16F0120050505110D8B4EA
:102CBE0063EF16F065EF16F071EF16F002D871EFB4
:102CCE0016F00500FA6E5050FD6E5150FE6EFF6A02
:102CDE00FA50120012004E504F10D8B479EF16F081
:102CEE007BEF16F087EF16F002D887EF16F005008F
:102CFE00FA6E4E50FD6E4F50FE6EFF6AFA50120085
:102D0E001200000E0001606F000E616F000E626F08
:102D1E00000E636F000E646F000E656F000E666F1F
:102D2E00000E676F000E686F12004C0E03011B6FD2
:102D3E00980E196F000E186FB19EA18E6E0E496E11
:102D4E002E0E4A6E06EC17F0800E03011A6F12005B
:102D5E00100E0101506F040E516F600E526F050E72
:102D6E00536F900E5C6F040E5D6F600E5E6F050EFE
:102D7E005F6F1200020042554646455243414E00D7
:102D8E000000000000000000000000000000000035
:102D9E0000000000000033EC17F088EC16F0EAECAF
:102DAE0014F0E1EC16F09DEC15F09CEC16F045ECF1
:102DBE0015F01200700E0001AD6F000EAF6F000E19
:102DCE00B36F020EB16F000EB06F1200080E01014C
:102DDE00686F040E696F600E6A6F050E6B6F1200DE
:102DEE00010E0101046F010E056F060E066F000E37
:102DFE00076F120049C550F54AC551F5120049C575
:102E0E004EF54AC54FF5120001010239E832070BA3
:102E1E00120049C507F54AC508F5120049C509F55E
:102E2E004AC50AF5120049C505F54AC506F5120050
:102E3E0049C50BF54AC50CF5120049C511F54AC531
:102E4E0012F5120049C50FF54AC510F5120049C515
:102E5E000DF54AC50EF51200D69A12001200120098
:102E6E0012001200120012001200120012001200C4
:020000040020DA
:10000000FF0FFF0FFF0FFF0FFF0FFF0FFF0FFF0F80
:10001000FF0FFF0FFF0FFF0FFF0FFF0FFF0FFF0F70
:020000040030CA
:10000000FAEFF7DF9FFFFFFFFFFFFFFFFFFFFFFF9D
:10001000FFFFFFFFFFFFFFFFFFFFFFFFFFFFFFFFF0
:04002000FFFFFFFFE0
:00000001FF
