:040000000DEF00F010
:0400080014EF16F0EB
:06001800FF0038EF18F0B4
:0D2600000000010203040506070850010058
:10260E0020EE04F00C50D9260D50DA22DF50166E53
:10261E0016C510F520EE04F00E50D9260F50DA2212
:10262E0010461046DF501018C30B1018DF6E16B888
:10263E0023EF13F027EF13F0106A102A28EF13F090
:10264E00106A20EE04F00E50D9260F50DA22DF5019
:10265E001018FE0B1018DF6E16BA38EF13F03CEFA1
:10266E0013F0106A102A3DEF13F0106A20EE04F0FA
:10267E000E50D9260F50DA221046DF501018FD0BDF
:10268E001018DF6E16BC4EEF13F052EF13F0106AF7
:10269E00102A53EF13F0106A20EE04F00E50D926D4
:1026AE000F50DA2210321032DF5010187F0B101834
:1026BE00DF6E16BE65EF13F069EF13F0106A102A85
:1026CE006AEF13F0106A20EE04F00E50D9260F5068
:1026DE00DA22103A10461046DF501018BF0B1018B1
:1026EE00DF6E20EE01F00C50D9260D50DA22DF50AD
:1026FE00106E070E10161050126E136A146A156AB9
:10270E0014C515F513C514F512C513F5126A61003B
:10271E0030F4D9F4610034F4DAF4DF50106E105056
:10272E00121220EE04F00E50D9260F50DA22DFA03E
:10273E00A3EF13F0A5EF13F0E6EF13F0050ED8900C
:10274E001236133614361536E82EA6EF13F020EE99
:10275E0003F00C50D9260D50DA22DF50106E1F0EEA
:10276E0010161050121214C515F513C514F512C516
:10277E0013F5126A20EE02F00C50D9260D50DA2213
:10278E00DF50106E10501212050ED89012361336FE
:10279E0014361536E82ECCEF13F020EE01F00C5067
:1027AE00D9260D50DA22DF50106ED8901032D89004
:1027BE001032D89010321F0E1016105012126100E7
:1027CE0038F4D9F461003CF4DAF4610048F4DEF434
:1027DE0061004CF4DEF4610050F4DEF4610054F458
:1027EE00DEF43C0E016E050E026E080E0C24036E16
:1027FE00000E0D20046E20EE04F00E50D9260F5060
:10280E00DA22DF30E8320F0B106E116A010E10243F
:10281E00F66E260E1120F76EF86A000EF8220800EA
:10282E00F550056E066AB6EC17F020EE05F00E5068
:10283E00D9260F50DA223C0EDE6E050EDD6E12002A
:10284E0001011DAF2DEF14F02FEF14F03EEF14F039
:10285E0002D83CEF14F00500FA6E05016C51FD6EC6
:10286E006D51FE6EFF6AFA50120001011D9F1DADE3
:10287E0043EF14F045EF14F054EF14F002D852EF7A
:10288E0014F00500FA6E05016A51FD6E6B51FE6E75
:10289E00FF6AFA50120001011D9D1DAB59EF14F095
:1028AE005BEF14F06AEF14F002D868EF14F0050035
:1028BE00FA6E05016851FD6E6951FE6EFF6AFA509F
:1028CE00120001011D9B1CA76FEF14F071EF14F0A5
:1028DE0080EF14F002D87EEF14F00500FA6E0501B9
:1028EE006651FD6E6751FE6EFF6AFA5012000101CD
:1028FE001C971DA985EF14F087EF14F096EF14F0D6
:10290E0002D894EF14F00500FA6E05016451FD6EC5
:10291E006551FE6EFF6AFA50120001011D991DA548
:10292E009BEF14F09DEF14F0B3EF14F002D8AAEF62
:10293E0014F00500FA6E05016251FD6E6351FE6ED4
:10294E00FF6AFA501200010154A9B0EF14F0B2EF71
:10295E0014F0B3EF14F054991DA7B8EF14F0BAEFBA
:10296E0014F0D0EF14F002D8C7EF14F00500FA6E91
:10297E0005016051FD6E6151FE6EFF6AFA50120044
:10298E00010160A7CDEF14F0CFEF14F0D0EF14F0EB
:10299E006097AE9C1200206E000E1C6E175095ECC8
:1029AE0019F01F6E1FA0DEEF14F0E0EF14F046EFEB
:1029BE0015F017500C0D580EF324D96E010EF4209D
:1029CE00DA6E610078F31DF5610074F31EF51D508B
:1029DE001E10D8B4F5EF14F0F7EF14F046EF15F023
:1029EE001DC50CF51EC50DF518C50EF519C50FF54F
:1029FE0007EC13F017500C0D510EF324D96E010E87
:102A0E00F420DA6E000EDB802050020D770EF324D8
:102A1E00D96E050EF420DA6EDF2A17507AEC19F013
:102A2E001A6E2050020D770EF324D96E050EF42087
:102A3E00DA6E1A50DE5CD8A027EF15F029EF15F0EC
:102A4E0033EF15F02050020D770EF324D96E050EDC
:102A5E00F420DA6E000EDF6E1FA638EF15F03AEF97
:102A6E0015F044EF15F017500C0D540EF324D96EDB
:102A7E00010EF420DA6EF70EDF16010E1C6E1C50DE
:102A8E001200AFEC15F00009D8B450EF15F052EF6C
:102A9E0015F0AEEF15F04C0E216E050E226E0FECFA
:102AAE0018F0E806D8A45EEF15F060EF15F0AEEF63
:102ABE0015F000F04CC529F54DC52AF54EC52BF580
:102ACE004FC52CF5610044F5D9F4610048F5DAF4F0
:102ADE00DF502D6E8AEF15F039C538F52D50030BEA
:102AEE00396E39503818D8B47FEF15F081EF15F0E4
:102AFE00AEEF15F075EC16F080EC18F0AEEF15F0A9
:102B0E0000F0AEEF15F029C525F52AC526F52BC523
:102B1E0027F52CC528F52850000AD8B4A7EF15F0D4
:102B2E0087EF15F02650050AD8B4A0EF15F087EF01
:102B3E0015F02550000AD8B473EF15F087EF15F095
:102B4E002750000AD8B499EF15F087EF15F0120050
:102B5E00000E036E000E0A6E0A50020D760EF3245E
:102B6E00D96E050EF420DA6EDF50066E065095EC27
:102B7E0019F0056E05A0C6EF15F0C8EF15F009EFB8
:102B8E0016F006507AEC19F0076E05A6D1EF15F087
:102B9E00D3EF15F0D7EF15F007C504F507EF16F0D4
:102BAE0006500C0D550EF324D96E010EF420DA6E7C
:102BBE00DF501F0B086E0A50020D770EF324D96EEC
:102BCE00050EF420DA6EDF50096E0950085CD8B09D
:102BDE00F3EF15F0F5EF15F0FBEF15F00950085C6B
:102BEE000724046E07EF16F00850095CD8B002EF08
:102BFE0016F004EF16F0D3EF15F00950085C046ED2
:102C0E00045003260A2A0A50D8B410EF16F012EF19
:102C1E0016F0B3EF15F0035012006100D8F32EF545
:102C2E006100DCF32FF56100E0F330F56100D4F3C1
:102C3E0031F59EAC25EF16F027EF16F032EF16F0B9
:102C4E00AEAC2CEF16F02EEF16F032EF16F027EC9E
:102C5E0014F068EF16F0A2A837EF16F039EF16F061
:102C6E0044EF16F0B2A83EEF16F040EF16F044EF28
:102C7E0016F0B8EC18F068EF16F0A1AE49EF16F0AA
:102C8E004BEF16F056EF16F0B1AE50EF16F052EFC6
:102C9E0016F056EF16F089EC17F068EF16F0A1A8B3
:102CAE005BEF16F05DEF16F068EF16F0B1A862EF6D
:102CBE0016F064EF16F068EF16F09DEC18F068EF62
:102CCE0016F06100C4F4F5F46100C0F4F8F461008C
:102CDE00BCF4F7F46100B8F4F6F41100B0EF16F09E
:102CEE00BF92BF94D1EF16F0BF94BF82D1EF16F012
:102CFE00BF94BFB285EF16F088EF16F0010E89EF84
:102D0E0016F0000EFF0A016E0146BF500118FD0BB2
:102D1E000118BF6ED1EF16F0BF92BFB499EF16F047
:102D2E009CEF16F0010E9DEF16F0000EFF0A016EDD
:102D3E0001460146BF500118FB0B0118BF6ED1EFC3
:102D4E0016F0BF92BF84D1EF16F0BF92BF94D1EFB1
:102D5E0016F03950016E026A0250000AD8B4BAEF6A
:102D6E0016F0ACEF16F00150000AD8B477EF16F05B
:102D7E00010AD8B47BEF16F0030AD8B47FEF16F031
:102D8E00010AD8B493EF16F0070AD8B4A8EF16F0DC
:102D9E00ACEF16F012000501746F000E0501736F93
:102DAE00CBEC19F00501726F040E7219D8B4E2EF74
:102DBE0016F0E4EF16F0F5EF16F07405D8B4EAEF5E
:102DCE0016F0ECEF16F0F5EF16F0040E7419D8A409
:102DDE00F3EF16F0F5EF16F01AEF17F001010351AD
:102DEE0005017419F80B74190101036F0CEF17F03C
:102DFE0001011DA905EF17F007EF17F00CEF17F003
:102E0E00020E0501736F1CEF17F00239E832070B43
:102E1E0005017419D8A416EF17F018EF17F0FFEF8D
:102E2E0016F01CEF17F0010E736F73511200FC0EAB
:102E3E000501726F330E736FE4EC19F0FE0E05018F
:102E4E00726F330E736FE9EC19F0000E0501726F9D
:102E5E00340E736FEEEC19F0FA0E0501726F330E2D
:102E6E00736FDFEC19F0F60E0501726F330E736F90
:102E7E00D5EC19F0F40E0501726F330E736FD0ECB2
:102E8E0019F0F80E0501726F330E736FDAEC19F04C
:102E9E00AE9C000E01011C6F000E1D6F0A0E1E6F00
:102EAE00FC0E1F6F9E8C1200000EBE6E000EBF6ECB
:102EBE00000EC06E080ECA6EC668E90EC76EE70E2B
:102ECE00C86E04011069F10E086F0069000E216FC3
:102EDE00000E096F000E016F000E116F000E026FD3
:102EEE00000E0A6F000E126F03690B6913690469F5
:102EFE000C691469080E246F0B0E02013D6F460E0D
:102F0E000D6F1200B19E324A332A335009E1240E5E
:102F1E00325CD8A095EF17F097EF17F09DEF17F0F2
:102F2E0016EC19F0000E336E000E326E3B04D8A470
:102F3E00A3EF17F0A5EF17F0B5EF17F03A2A230E0F
:102F4E003A64ACEF17F0AEEF17F0B3EF17F0000ED8
:102F5E003B6E000E3A6EC09680EC18F0120003C560
:102F6E0009F504C50AF501C507F502C508F5D5EF43
:102F7E0017F0610024F4D9F4610028F4DAF4DF507C
:102F8E000B6E094A0A2A61001CF4D9F4610020F480
:102F9E00DAF461002CF4DFF4074A082A0506D8A0FB
:102FAE000606052806E10628D8A4E0EF17F0E2EFA2
:102FBE0017F0C0EF17F012000101018F040ED2ECD2
:102FCE0016F00009D8A4EEEF17F0F0EF17F00EEFA1
:102FDE0018F0000E01014C6F260E4D6F000E4E6F55
:102FEE00000E4F6F600E006F970E016F100E026F86
:102FFE00ABEC19F0A1EC19F02DEC19F0F6EC19F080
:10300E00D1EC18F01EEC17F0060ED2EC16F01200F2
:10301E00000E246E2450020D760EF324D96E050E8A
:10302E00F420DA6EDF50176E21C518F522C519F59A
:10303E002450D2EC14F0236E2350D8B429EF18F09C
:10304E002BEF18F02DEF18F036EF18F0242A24503D
:10305E00D8B434EF18F036EF18F011EF18F0235003
:10306E001200EA0EF66E330EF76E000EF86E0900C1
:10307E006100D4F376F509006100D4F377F501EE23
:10308E0060F10E0EEE6AE806FDE101EE32F1280E59
:10309E00EE6AE806FDE10401080E5D6F000E5E6F3C
:1030AE00000E5F6F0001B5EF19F0000E03011F6FE8
:1030BE00000E206F010E216F0B0E1D6FDC0E1C6FAC
:1030CE00B1981C51600074FC74F50501756B74C5E4
:1030DE0075F5746B74115A6E75515B6EA188EE0E98
:1030EE00726F330E736FBCEC19F0210E03011E6F5D
:1030FE001200030E3918D8A487EF18F089EF18F0D4
:10310E009CEF18F0C0B68EEF18F091EF18F0010E8C
:10311E0092EF18F0000EFF0A016E014601460146BD
:10312E00C0500118F70B0118C06E1200B1985AC5A5
:10313E0001F55BC502F5E8EC18F0344A352A355036
:10314E0009E1050E345CD8A0AFEF18F0B1EF18F01E
:10315E00B7EF18F0FFEC18F0000E356E000E346E5F
:10316E001200010160A1BEEF18F0C0EF18F0D0EF11
:10317E0018F002D8CCEF18F00500FA6E3650FD6E3E
:10318E003750FE6EFF6AFA50120048EC15F001013E
:10319E0060911200000E0501726F7251020D770ED2
:1031AE00F324D96E050EF420DA6E000EDF6E722B4C
:1031BE007251D8B4E5EF18F0E7EF18F0D4EF18F02D
:1031CE00120003011EA5EEEF18F0F0EF18F0F9EF64
:1031DE0018F01E9102501D6F610004F41CF31E8145
:1031EE00FEEF18F002501D6F610004F41CF3120084
:1031FE00050170517111D8B407EF19F009EF19F0EC
:10320E0015EF19F002D815EF19F00500FA6E70518E
:10321E00FD6E7151FE6EFF6AFA501200120005012A
:10322E006E516F11D8B41EEF19F020EF19F02CEF7C
:10323E0019F002D82CEF19F00500FA6E6E51FD6EE2
:10324E006F51FE6EFF6AFA5012001200190E010144
:10325E005C6F040E5D6F600E5E6F050E5F6FF20E9B
:10326E000501726F330E736FC6EC19F001011E83E8
:10327E00B298A28812004C0E03011B6F980E196FA4
:10328E00000E186FB19EA18EF00E0501726F330EF7
:10329E00736FC1EC19F0800E03011A6F1200000E4D
:1032AE000001606F000E616F000E626F000E636FA3
:1032BE00000E646F000E656F000E666F000E676F76
:1032CE00000E686F1200F3EC19F0C08656EC19F080
:1032DE005BEC17F089EC19F05CEC18F042EC19F08D
:1032EE00E3EC17F01200026E02500C0D530EF32495
:1032FE00D96E010EF420DA6EDF50016E1F0E01162C
:10330E0001281200700E0001AD6F000EAF6F000E9F
:10331E00B36F020EB16F000EB06F1200016E01504E
:10332E000C0D540EF324D96E010EF420DA6EDF501C
:10333E00090B1200100E0101506F040E516F600E3A
:10334E00526F050E536F1200010E0101046F010E34
:10335E00056F060E066F000E076F12006AEC19F06D
:10336E00D68EB8EF19F00DEF00F072C570F573C57B
:10337E0071F5120072C56EF573C56FF5120072C548
:10338E0036F573C537F5120001010239E832070B25
:10339E00120072C562F573C563F5120072C564F54D
:1033AE0073C565F5120072C560F573C561F512003F
:1033BE0072C566F573C567F5120072C56CF573C5F7
:1033CE006DF5120072C56AF573C56BF5120072C504
:1033DE0068F573C569F51200D69A12000100120045
:1033EE00120012001200120012001200120012003F
:0433FE0012001200A7
:020000040020DA
:10000000FF0FFF0FFF0FFF0FFF0FFF0FFF0FFF0F80
:10001000FF0FFF0FFF0FFF0FFF0FFF0FFF0FFF0F70
:020000040030CA
:10000000FAEFF7DF9FFFFFFFFFFFFFFFFFFFFFFF9D
:10001000FFFFFFFFFFFFFFFFFFFFFFFFFFFFFFFFF0
:04002000FFFFFFFFE0
:00000001FF
